:020000040800F2
:10000000001000201D0300086D0300086D030008A8
:1000100000000000000000000000000000000000E0
:100020000000000000000000000000006D03000858
:1000300000000000000000006D030008AD01000892
:100040006D0300086D0300086D0300086D030008D0
:100050006D0300086D0300086D0300086D030008C0
:100060006D0300086D0300086D0300086D030008B0
:100070006D0300086D0300086D0300086D030008A0
:100080006D0300086D030008000000006D03000808
:100090006D0300086D0300086D0300086D03000880
:1000A0006D0300086D0300086D0300086D03000870
:1000B0006D030008000000006D0300080000000050
:0400C0005FF808F1EC
:1000C400002934D00123002210B488422CD3012407
:1000D4002407A14204D2814202D209011B01F8E79C
:1000E400E400A14204D2814202D249005B00F8E755
:1000F400884201D3401A1A434C08A04202D3001B81
:100104005C0822438C08A04202D3001B9C082243B3
:10011400CC08A04202D3001BDC082243002803D0F1
:100124001B0901D00909E3E7101C10BC7047002823
:1001340001D00020C04307B4024802A14018029035
:1001440003BDC046190000000029F0D003B5FFF735
:10015400B9FF0EBC4243891A1847C0467047C046CF
:1001640070B50D4E0D4D0024AD1BAD1005D0A30090
:10017400F35801349847A542F9D100F0F7F8084E36
:10018400084D0024AD1BAD1005D0A300F358013475
:100194009847A542F9D170BD00000000000000009E
:1001A40000000000000000000F4A1388591C118051
:1001B400642B09D0962B0DD0322B14D190228021A0
:1001C400D205938A49000CE090228021D205938ABB
:1001D400890006E00023138090228021D205938AAF
:1001E400C9004B4093827047040000208021174AC5
:1001F40008B5536989020B4353619023A821DB0599
:100204001A6849030A43A8211A60DA6889030A4371
:10021400E021DA609A8AC9000A439A820C4B64216D
:100224001868FFF74DFF0B4B98420ED80A4A013865
:100234005060C020094900060B6A1B021B0A0343D5
:100244000B620023936007231360FEE70010024053
:1002540000000020FFFFFF0010E000E000ED00E0E0
:1002640013B501200F24254B1A6802431A605968FC
:10027400234A0A405A601968224A0A401A601968D7
:10028400214A0A401A605968204A11405960D96AC3
:10029400A143D9621C6B1E4921401963596B8143E8
:1002A4005963002111209960009101911949086056
:1002B400596859605968596059680A40A0215A60C0
:1002C4005A6889030A4380215A601A6849040A4318
:1002D40080211A6089041868084A0842FBD0032068
:1002E40051688143022051605168014351600C21DF
:1002F4005A680A40082AFBD113BDC04600100240C8
:100304000CB8FFF8FFFFF6FEFFFFFBFFFFFFC0FF87
:10031400ACFEFFFF002002400D488546002103E0AB
:100324000C4B5B58435004310B480C4B42189A4217
:10033400F6D30B4A02E0002313600432094B9A42BD
:10034400F9D3FFF78DFFFFF70BFFFFF74FFFFEE732
:100354000010002088030008000000200400002092
:100364000400002008000020FEE70000F8B5C046A5
:10037400F8BC08BC9E467047F8B5C046F8BC08BC3B
:040384009E467047DA
:04038800006CDC0227
:040000050800031DCF
:00000001FF
