:020000040800F2
:10000000001000201139000861390008613900082A
:1000100000000000000000000000000000000000E0
:10002000000000000000000000000000613900082E
:100030000000000000000000613900089D33000846
:100040006139000861390008613900086139000828
:100050006139000861390008613900086139000818
:100060006139000861390008613900086139000808
:1000700061390008613900086139000861390008F8
:10008000613900086139000800000000613900088A
:10009000613900086139000861390008F937000842
:1000A000613900086139000861390008DD31000854
:1000B00061390008000000006139000800000000FC
:0400C0005FF808F1EC
:1000C40008B59023DB05984217D0224B98421FD0E5
:1000D400214B984227D0214B98422FD0204B984255
:1000E40000D008BD80200121C00300F0A7FD8020BE
:1000F4000021C00300F0A2FDF3E78020012180026B
:1001040000F09CFD80200021800200F097FDE8E7CC
:1001140080200121C00200F091FD80200021C00256
:1001240000F08CFDDDE780200121000300F086FD56
:1001340080200021000300F081FDD2E7802001210E
:10014400400300F07BFD80200021400300F076FD99
:10015400C7E7C0460004004800080048000C0048F7
:1001640000140048F0B544465F4656464D46F0B488
:1001740003248C4683B00968002200230127A0468B
:1001840003E001330232102B27D03C1C0D1C9C4091
:100194002540A542F5D164462479A346013C012CAF
:1001A40022D944469440E44301940568019C0133F8
:1001B4002C4004605C46944005682C4345469540B9
:1001C4000460C468AC43C4606446E479C568944080
:1001D4002C43C4600232102BD7D103B03CBC9046F0
:1001E4009946A246AB46F0BD8468A1464446944075
:1001F4004E46E4432640866086680194B2466646CD
:1002040076799640B14656464C46264386608488A5
:10021400261CAE4386808488A1466446A5794C4654
:100224009D402543ADB28580BFE7C046044B022202
:1002340003600023427103718371C3717047C04628
:10024400FFFF0000802382B05B020193019B0B43FC
:100254000193019BC361C161019BC361C3690193A4
:10026400C369019302B07047008A0840411E884167
:10027400C0B27047008A80B27047C046808A084086
:10028400411E8841C0B27047808A80B27047C04620
:100294008161704701857047002A01D1018570474B
:1002A4008161FCE781827047072310B50F240B405E
:1002B4009B009A409C40131CC90889004018016A9D
:1002C400A1430162016A0B43036210BD08B50C4BE4
:1002D40098420AD080200121C00300F0C7FC80208E
:1002E4000021C00300F0C2FC08BD8020012180036E
:1002F40000F0BCFC80200021800300F0B7FCF3E791
:100304000054004010B501240368A343036002684D
:10031400124B13408A68120213434A681343036062
:100324000A680F4B1340036103688A691C43002366
:1003340004608360C3600B69134380228360836815
:100344001202134383600368CA681343036042685C
:10035400044B13404A691343436010BDFFE0CF00D0
:10036400FFFFFFF0FF7FFF078022002312020360DC
:1003740043608360C3600361426183617047C04628
:10038400002904D1012203689343036070470123C9
:10039400026813430360F9E7002904D10268054B9E
:1003A4001340036070478022036892011343036083
:1003B400F8E7C046FFDFFFFF0368002A02D18B4342
:1003C4000360704719430160FBE7C046002905D16B
:1003D4008022036892021343036070470268024B51
:1003E40013400360F9E7C046FFFFFDFF002904D175
:1003F4000268054B13400360704780220368D202F1
:1004040013430360F8E7C046FFFFFBFF002904D154
:10041400C268054B1340C36070478022C368120250
:100424001343C360F8E7C046FF7FFFFF10B5074BD7
:100434000C1CC16812020B40FE212140E024E400A0
:10044400224011431943C16010BDC04601F8FFFFAB
:10045400002904D10268054B1340036070478022D1
:100464000368120313430360F8E7C046FFFFF7FF76
:10047400002904D10268054B1340036070478022B1
:100484000368520213430360F8E7C046FFFFFEFF10
:10049400436889059B0A9B02890D19434160704793
:1004A400002904D14268054B134043607047802201
:1004B4004368120113434360F8E7C046FFF7FFFFA8
:1004C400002904D14268054B1340436070478022E1
:1004D4004368920413434360F8E7C046FFFFFFFDFF
:1004E400002904D14268054B1340436070478022C1
:1004F4004368520413434360F8E7C046FFFFFFFE1E
:100504004268034B09041340194341607047C046D5
:10051400FFFF00FF002905D080224368D200134367
:10052400436070474268024B13404360F9E7C0469A
:10053400FFFBFFFF002904D14268054B13404360D1
:10054400704780224368920113434360F8E7C04632
:10055400FFDFFFFF002904D14268054B13404360CD
:10056400704780224368D20113434360F8E7C046D2
:10057400FFBFFFFF002904D14268054B13404360CD
:10058400704780224368520113434360F8E7C04632
:10059400FFEFFFFF002905D18022436812021343B5
:1005A400436070474268024B13404360F9E7C0461A
:1005B400FF7FFFFFFE2380691B041840000C704777
:1005C4008069C003C00F80027047C04630B54468DC
:1005D400054D89052C40039D890D2C4323430B4372
:1005E40012041343436030BD009800FC002904D179
:1005F4000268054B13400360704780220368D203EE
:1006040013430360F8E7C046FFFFBFFF002904D18E
:100614004269054B134043617047802243691202CB
:1006240013434361F8E7C046FF7FFFFF4369002996
:1006340003D15B005B0843617047802212061343B9
:100644004361F9E7002904D14269054B1340436132
:10065400704780224369520113434361F8E7C0465F
:10066400FFEFFFFF436909051B0B1B03090D19432A
:10067400416170474269044B09041340034A114025
:10068400194341617047C046FFFF00F00000FF0FAF
:10069400002904D10268054B13400360704780228F
:1006A4000368120413430360F8E7C046FFFF7FFFAB
:1006B400002904D10268054B13400360704780226F
:1006C4000368D20413430360F8E7C046FFFFFFFB4F
:1006D400006AC0B27047C046002382B00193019003
:1006E400019BC9180191019B186802B07047C0466C
:1006F40081627047406AC0B27047C0460368002AEE
:1007040002D18B430360704719430160FBE7C04685
:1007140080690840411E8841C0B27047C16170477A
:10072400FC239B0119420AD080220368134082698A
:1007340000200A4202D0581E8341D8B27047C02319
:100744000B4203D0402203681340F0E703680B40D8
:10075400EDE7C046C1617047837870B5002B09D1BD
:100764001F2203781349134001229A40131C80224C
:100774008B5070BD032402780E4B95082240D400A0
:10078400FF22111C9C46C026A140AD006544B60062
:10079400AB598B43417889010A40A24013431F227D
:1007A400AB510378134001229A40131C6246136034
:1007B400DFE7C04600E100E0044A1369002902D1E2
:1007C40083431361704718431061FBE700ED00E0B9
:1007D400042805D00421054A13688B43136070472D
:1007E400024B1A6810431860F9E7C04610E000E0B5
:1007F4000121114B1A680A431A6058680F4A0240D3
:100804005A6018680E4A02401A6018680D4A02407D
:100814001A6058680C4A02400F205A60DA6A824310
:10082400DA62186B094A02401A635A6B8A435A63A4
:1008340000229A607047C046001002400CB8FFF8CE
:10084400FFFFF6FEFFFFFBFFFFFFC0FFACFEFFFF55
:100854000022024B1A7018707047C0460210024002
:10086400F821034AC00013688B4318431060704793
:1008740000100240064A002804D1012113688B436A
:1008840013607047012311680B431360F9E7C046F6
:1008940000100240F821034AC000536B8B431843F5
:1008A4005063704700100240064A002804D1012119
:1008B400536B8B43536370470123516B0B43536357
:1008C400F9E7C04600100240064A002804D1042378
:1008D400516B0B43536370470421536B8B43536336
:1008E400F9E7C046001002400121064B1A6A8A4308
:1008F40004211A621A6A8A431A621A6A1043186235
:100904007047C046001002401821044B1A6A8A43FB
:100914001A621A6A104318627047C04600100240F7
:10092400064A002804D10121536A8B43536270475D
:100934000123516A0B435362F9E7C0460010024099
:10094400054B10B5054A5C6822405A605A68114349
:100954000843586010BDC04600100240FFFFC2FFAC
:10096400064A002804D11168054B0B4013607047F8
:100974008021136849040B431360F8E70010024018
:10098400FFFFFFFE0F21034AD36A8B431843D06253
:100994007047C04600100240064A002804D111687E
:1009A400054B0B40136070478021136809030B4308
:1009B4001360F8E700100240FFFFF7FF014B1870C7
:1009C4007047C046071002400321034A53688B4313
:1009D400184350607047C046001002400C20024B80
:1009E4005B6818407047C04600100240F021034A7B
:1009F40053688B43184350607047C0460010024050
:100A0400034A044B51680B40184350607047C0467A
:100A140000100240FFF8FFFF094B0A4A59680A40D8
:100A24005A6059680204120C0A435A60196B064A48
:100A3400000C0A401A631A6B104318637047C046CF
:100A440000100240FFBFFFFFFFFEFFFF4021044BE9
:100A54001A6B8A431A631A6B104318637047C046B3
:100A6400001002401021044B1A6B8A431A631A6B5C
:100A7400104318637047C046001002400321044B22
:100A84001A6B8A431A631A6B104318637047C04683
:100A9400001002400C213B4A38B55368041C0B403B
:100AA400042B01D0082B51D0374820603549374DED
:100AB4004B681B061B0FEA5C031CD3401A1C6360C3
:100AC4004B685B055B0FEB5CDA40A2600B6BDB05EC
:100AD40021D42F4BE3602B4B1B6B5B0624D42D4B93
:100AE4002361284B1B6BDB0625D4274B2549636107
:100AF40003230D6B2B4224D00A6B1A40012A3AD0EF
:100B04000A6B1A40022A38D00A6B1340032B01D116
:100B14001D4BA36138BD4B685B0414D45308E360D8
:100B2400184B1B6B5B06DAD580231B022361154B24
:100B34001B6BDB06D9D50323124960610D6B2B4275
:100B4400DAD1A261E6E79308E360C4E7506853682A
:100B54008002000F851CDB0303D40F486843206028
:100B6400A4E70F21D36A08481940013102F038FA8A
:100B7400684320609AE7A061CCE780231B02A3614D
:100B8400C8E7C0460010024000127A0000000020AE
:100B9400809FD5001280000000093D00024A136ABC
:100BA400184310627047C04600100240064A0028ED
:100BB40004D1116A054B0B40136270478021136AFC
:100BC40009020B431362F8E700100240FF7FFFFFA6
:100BD400064A002804D1116A054B0B401362704782
:100BE4008021136A49020B431362F8E700100240A4
:100BF400FFFFFEFF044A5369002902D18343536176
:100C0400704718435061FBE700100240044A93699F
:100C1400002902D183439361704718439061FBE735
:100C240000100240044AD369002902D18343D361EE
:100C340070471843D061FBE700100240044A936AEE
:100C4400002902D183439362704718439062FBE703
:100C540000100240044AD368002902D18343D360C0
:100C640070471843D060FBE700100240044A136940
:100C7400002902D183431361704718431061FBE7D5
:100C840000100240044A1378002902D183431370F0
:100C9400704718431070FBE70910024043090BD159
:100CA4000C4B1B681F22104001228240101C18406C
:100CB400431E9841C0B27047012B04D0022B05D0CB
:100CC400044B5B6BEEE7034B1B6AEBE7014B5B6A80
:100CD400E8E7C0460010024010B50023A02482B00B
:100CE4000193E40001E0002808D11120FFF7D6FFAA
:100CF400019B01330193019BA342F4D11120FFF71F
:100D0400CDFF431E9841C0B202B010BD8021034AFA
:100D14004904536A0B4353627047C04600100240B3
:100D2400034B9B681840431E9841C0B27047C046AD
:100D340000100240014B18707047C0460A10024070
:100D440008B50E4B98420ED00D4B984200D008BD0A
:100D5400802001218002FFF789FF8020002180028A
:100D6400FFF784FFF3E780200121C001FFF772FF42
:100D740080200021C001FFF76DFFE8E70038014043
:100D8400004400400122F0B50D1C036889B0934370
:100D9400036042681E4B041C13408A68134343607B
:100DA40002681C4B1A40CB6849680B4329690B4302
:100DB400134303608268184B13406A6913438360CA
:100DC40001A8FFF767FE154B9C421FD0039F2368C1
:100DD4001B0400D57F002E68381C311C02F000F97A
:100DE400311C051C381C02F03FF900237608B1427F
:100DF4005B41ED1823681B0404D5094B2A07520FE5
:100E04001D401543ADB2A58109B0F0BD079FDEE7D3
:100E1400FFCFFFFFF3E9FFFFFFFCFFFF00380140B6
:100E2400F0FF000096239B0103600C220023026163
:100E340043608360C36043617047C0464268064BA9
:100E440010B51A400C684B6823438C68C968234367
:100E54000B431343436010BDFFF0FFFF0023036007
:100E640043608360C3607047002904D10122036892
:100E74009343036070470123026813430360F9E757
:100E84000368002A02D18B43036070471943016051
:100E9400FBE7C046002904D10268054B13400360F8
:100EA400704780220368120213430360F8E7C046C8
:100EB400FF7FFFFF002904D18268054B1340836044
:100EC400704780228368120113438360F8E7C046A9
:100ED400FFF7FFFF002904D14268054B134043602C
:100EE400704780224368120313434360F8E7C04607
:100EF400FFFFF7FF002904D14268054B134043600C
:100F0400704780224368D20213434360F8E7C04627
:100F1400FFFFFBFF4368002A02D18B434360704705
:100F240019434160FBE7C046002904D14268054BE0
:100F340013404360704780224368120213434360A6
:100F4400F8E7C046FF7FFFFF002904D14268054B44
:100F54001340436070478022436812041343436084
:100F6400F8E7C046FFFF7FFF43691B0E1B06436182
:100F74004369194341617047FF22038A9343038203
:100F8400038A194301827047002904D102220368AD
:100F94009343036070470223026813430360F9E735
:100FA4008268034B134083608368194381607047F0
:100FB400FFFFCFFF002904D14268054B1340436073
:100FC400704780224368520313434360F8E7C046E6
:100FD400FFFFEFFF4268034B13404360436819432C
:100FE40041607047FFFF9FFFC905C90D0185704728
:100FF400808CC005C00D7047436809061B021B0A9C
:1010040043604368194341607047C046002904D1D6
:101014000268054B13400360704780220368920105
:1010240013430360F8E7C046FFDFFFFF0268034B8A
:10103400134003600368194301607047FFF7FFFF23
:1010440010224368934343604368194341607047E7
:1010540020224368934343604368194341607047C7
:10106400002904D14268054B134043607047802235
:101074004368D20113434360F8E7C046FFBFFFFF54
:10108400002904D1082283689343836070470823AE
:10109400826813438360F9E7FF22038A090213403D
:1010A4000382038A194301827047C046002904D190
:1010B400202283689343836070472023826813430C
:1010C4008360F9E7002904D1102283689343836085
:1010D40070471023826813438360F9E78268044BE6
:1010E4004904134083608368194381607047C04694
:1010F400FFFFF1FF436909061B021B0A43614369B1
:10110400194341617047C046042283689343836056
:101114008368194381607047002904D102228368DF
:101124009343836070470223826813438360F9E723
:10113400002904D18268054B1340836070478022E4
:101144008368D20113438360F8E7C046FFBFFFFF03
:101154008268034B1340836083681943816070473E
:10116400FF7FFFFF0268044B4905134003600368D7
:10117400194301607047C046FFFF1FFC0268044B1F
:101184000904134003600368194301607047C046B3
:10119400FFFFE0FF8368002A02D18B43836070471E
:1011A40019438160FBE7C0468268034B13408360A8
:1011B4008368194381607047FFDFFFFFFF2310B589
:1011C4008CB2194001238B40240A191C022C0AD02A
:1011D400032C0AD00368002A02D18B43036010BD9C
:1011E40019430160FBE70430F4E70830F2E7C04636
:1011F400038B002A02D18B4303837047194389B2BE
:101204000183FAE78268034B1340836083681943C0
:1012140081607047FFEFFFFFC0690840411E8841AD
:10122400C0B2704701627047FF230B4010B51C1C0D
:1012340001238AB2120AA340012A10D0022A11D033
:1012440082681340C2690020002B07D00123090CD7
:101254008B401A40101C411E8841C0B210BD026868
:101264001340EFE742681340ECE7C0460123090C42
:101274008B4003627047C046F0B585B0171C0A9ACC
:10128400061C141C0391D5180A9BE11A039BC90080
:101294005918C9B2AC4208D02378301C00933A1CC8
:1012A400002301F068FB0134EEE705B0F0BDF0B5B2
:1012B4001D1C141C85B00AAB1B78061C0393039AEF
:1012C400EB000092DBB2221C0F1C00F011F9002885
:1012D40014D0039BE318DBB20393039B9C420DD011
:1012E4000B9B221C0093301C2B1C391CFFF7C4FFE2
:1012F4000B9B01345B190B93E4B2EEE705B0F0BD30
:10130400F0B585B0171C0A9A061C141C0391D51855
:101314000A9BE11A039BC9005918C9B2AC4208D010
:101324002378301C00933A1C002301F024FB013481
:10133400EEE705B0F0BDF0B51D1C141C85B00AAB7A
:101344001B78061C0393039AEB000092DBB2221C69
:101354000F1C00F0CDF8002814D0039BE318DBB277
:101364000393039B9C420DD00B9B221C0093301CC7
:101374002B1C391CFFF7C4FF0B9B01345B190B9327
:10138400E4B2EEE705B0F0BDF0B51D1C8BB010ABB8
:101394001F782B1C009703900E1C141C00F0A8F857
:1013A400002849D0EB1DDBB2DB08E71907930736A9
:1013B400FBB20893F3B20493049AEB080593DB00A1
:1013C400D318073BDBB20993089B9C4234D02E1CF4
:1013D400119F119BF91A049BC9005918C9B2072E11
:1013E4000AD93B7803980093221C0223083E01F09B
:1013F400C2FA0137F6B2ECE7059A119B9B18072253
:101404002A40069210D000261F78099B9919C9B268
:10141400FB0703D50398221C01F0A5FA0136069AAE
:10142400F3B27F089A42F0D1079A119B9446013493
:1014340063441193E4B2C7E70BB0F0BDF0B51D1CD3
:101444008BB010AB1F782B1C009703900E1C141C40
:1014540000F04EF8002849D0EB1DDBB2DB08E71999
:1014640007930736FBB20893F3B20493049AEB088C
:101474000593DB00D318073BDBB20993089B9C421E
:1014840034D02E1C119F119BF91A049BC9005918C2
:10149400C9B2072E0AD93B7803980093221C022371
:1014A400083E01F068FA0137F6B2ECE7059A119BA1
:1014B4009B1807222A40069210D000261F78099B09
:1014C4009919C9B2FB0703D50398221C01F04BFA02
:1014D4000136069AF3B27F089A42F0D1079A119B1B
:1014E4009446013463441193E4B2C7E70BB0F0BDF2
:1014F40070B5051C04A80478281C4930067802300D
:10150400013C00781419E4B2904205D3B44208D2E5
:101514000020A24219D904E00020B44215D3A2420B
:1015240013D92A1C4A35013B2878CB184832DBB240
:101534001278884203D30120934206D202E00020AD
:10154400934202D38B429B41584270BD41180878A4
:101554004B780002C01880B27047002070472A30D0
:1015640000787047293000780130C0B27047031CFE
:1015740029302A331A7803789B1A5BB2D80FC01823
:101584004310D018C0B27047007870470078704795
:10159400704708B5FFF7FCFF002803D0022801D0EC
:1015A400032000E0062008BD4079704708B50621F5
:1015B400FFF7CCFF08BD08B50821FFF7C7FF08BD3A
:1015C400807A7047C07A7047007B40B27047407B96
:1015D40040B27047807B40B27047C07B40B27047D6
:1015E400007C40B27047F8B50578041C281CFFF74E
:1015F400CFFF071C281CFFF7CCFF061C201CFFF79D
:10160400DFFF051C201CFFF7DDFFFF21012F00D1A8
:101614000F21231C11331A78FF2A01D1013303E06F
:101624009A780A4092199B18854202D00135EDB28E
:10163400F1E7181BF8BD8368587870478368987879
:10164400704783680320185670478368042018562F
:101654007047836858797047F0B5866885B03578E7
:10166400041C281C0F1CFFF793FF0090281CFFF795
:1016740090FFFF230293009B0390012B01D10F23C2
:101684000293301CFFF79CFF051C301CFFF79AFFE8
:101694000190301CFFF78FFF602F04D9002802D07F
:1016A400361861250AE0301CFFF780FF402F04D96B
:1016B400002802D03618412500E01136019B9F42D4
:1016C40007D90026631C2677E677DE776677A67748
:1016D40028E0019B9D42F4D83378FF2B01D10136D9
:1016E40029E0BD4221D1009A611C002A01D0022ABE
:1016F40009D1E3777378CB77F378237733796377FA
:101704007379A3770EE00F22181C10401B090238CE
:10171400A077637773781A401B09CA77E377B378A5
:101724001B092377301C05B0F0BDB378029A13402F
:10173400039A9B18F618019B9D42C2D00135EDB265
:10174400CAE7002370B513710B78051C0E1C141C1A
:10175400002B04D1137053709370D37032E07F2345
:101764001370802353700978FFF776FF6B7F5B4219
:1017740023716B7FA370AB7FE3700021AA7F615656
:1017840053B2994200DD227001216B1CDB7F61564C
:10179400D318DBB25AB2914200DA6370013633785F
:1017A4002279002B07D02B7F281C9A1822713178BC
:1017B400FFF752FFE1E7EB7F9B18DBB223716A7FEF
:1017C4009B18237170BD08B5FFF746FF431E98416F
:1017D400C0B208BD10B5041CFFF73EFF031E00D0C5
:1017E400237F58B210BDF0B50F1C87B0191C041C20
:1017F400161CFFF731FF051E3DD0A3681878FFF7CC
:10180400C8FEE37F05900393631CDA7F637F009235
:10181400FF18FBB20493A37F201CF61AF3B29E1A9E
:10182400F6B202930499321C039BFFF761FE002871
:1018340020D0059BED18039B0733DBB2DB08039331
:10184400029B9E4216D02F1C7B1B049ADBB2D9004C
:101854005118039AC9B2934208D23B78201C0093D2
:10186400321C002301F087F80137EDE70136AD188B
:10187400F6B2E5E7207F40B207B0F0BDF8B5051C2D
:101884001E1C6B6A0F1C141C98470219391C281C57
:10189400331CD2B2FFF7A7FFF8BDF0B50F1C87B019
:1018A400191C041C161CFFF7D7FE051E45D0A3689F
:1018B4001878FFF76EFEE37F05900393631CDB7FCC
:1018C400201C0293A37F0133FF18637FFFB2F61835
:1018D400F3B20493039B391C0093049A029BFFF711
:1018E40007FE002828D0059BED18039B0733DBB2C5
:1018F400DB080393029B013BFF18029BFFB2FB1A18
:10190400DBB20293029B9F4216D02E1C731B0499D8
:10191400DBB2DA008A180399D2B28B4208D2337848
:10192400201C0093391C012301F025F80136EDE752
:10193400013F6D18FFB2E5E7207F40B207B0F0BD6C
:10194400F8B5051C1E1C6B6A171C0C1C9847211A41
:101954003A1C281C331CC9B2FFF79FFFF8BDF0B531
:101964000E1C89B0191C051C171CFFF775FE03908B
:10197400002853D0AB681878FFF70BFE6B1C069059
:10198400DB7FEC7F04936B7F281CF61AF3B205937C
:10199400AB7F0133FF18059BFFB2191B049B013178
:1019A4000093C9B23A1C231CFFF7A2FD002834D0CF
:1019B400069A039B944663440393049B0734013BB8
:1019C400FF18049BFFB2FB1AE6B2DBB2F6080693DB
:1019D400069B9F4221D06B461B7B059A0493DB0038
:1019E400D318DBB2039C0793E3B2079AD900511AC8
:1019F400049AC9B29B1ADBB2B34208D22378281CDA
:101A040000933A1C022300F0B6FF0134ECE7039B79
:101A1400013F9B190393FFB2DAE7287F40B209B074
:101A2400F0BDF8B5051C1E1C6B6A0F1C141C9847EE
:101A3400221A391C281C331CD2B2FFF790FFF8BDC0
:101A4400F0B50E1C89B0191C051C171CFFF704FE09
:101A5400039000284FD0AB681878FFF79AFD6B1CF1
:101A64000690DB7FEC7F04936B7F049AFF1AFBB232
:101A74000593AB7F0094D318F61A059BF6B21A1B94
:101A84000132D2B2281C311C049BFFF731FD00281F
:101A940030D0069A039B944663440393049B073413
:101AA400F318E7B2DBB2FF080693069B9E4221D0EF
:101AB4006B461B7B059A0493DB00D318DBB2039CB3
:101AC4000793E3B20799DA008A1A0499D2B25B1A2F
:101AD400DBB2BB4208D22378281C0093311C0323B9
:101AE40000F049FF0134ECE7039B0136DB19039353
:101AF400F6B2DAE7287F40B209B0F0BDF8B5051CAC
:101B04001E1C6B6A171C0C1C984701193A1C281CD4
:101B1400331CC9B2FFF794FFF8BDF7B5071C1E1CB0
:101B24007B6A151C0C1C98474519EBB200250193E0
:101B34003378002B0BD0211C381C019AFFF753FE7D
:101B4400C0B204194519E4B2EDB20136F0E7281C1D
:101B5400FEBDF7B5071C1E1C7B6A0D1C141C9847A0
:101B64002D1AEBB2002501933378002B0BD0221CE5
:101B7400381C0199FFF791FEC0B204194519E4B26B
:101B8400EDB20136F0E7281CFEBDF7B5071C1E1C9C
:101B94007B6A151C0C1C98472D1AEBB20025019387
:101BA4003378002B0BD0211C381C019AFFF7D7FE89
:101BB400C0B2241A4519E4B2EDB20136F0E7281C8C
:101BC400FEBDF7B5071C1E1C7B6A0D1C141C984730
:101BD4004519EBB2002501933378002B0BD0221C5E
:101BE400381C0199FFF72CFFC0B2241A4519E4B23E
:101BF400EDB20136F0E7281CFEBD10B5041C002030
:101C0400032B17D8181C01F0E1F902070C11201C52
:101C1400029BFFF782FF0DE0201C029BFFF799FF58
:101C240008E0201C029BFFF7B0FF03E0201C029B8E
:101C3400FFF7C7FF10BDF7B5071C1E1C7B6A151CF8
:101C44000C1C98474519EBB2002501933378002BFF
:101C54000BD0211C381C019AFFF7C5FDC0B2041932
:101C64004519E4B2EDB20136F0E7281CFEBDF7B524
:101C7400071C1E1C7B6A0D1C141C98472D1AEBB202
:101C8400002501933378002B0BD0221C381C0199BA
:101C9400FFF756FEC0B204194519E4B2EDB201369D
:101CA400F0E7281CFEBDF7B5071C1E1C7B6A151C3B
:101CB4000C1C98472D1AEBB2002501933378002BA6
:101CC4000BD0211C381C019AFFF7ABFEC0B2241ABA
:101CD4004519E4B2EDB20136F0E7281CFEBDF7B5B4
:101CE400071C1E1C7B6A0D1C141C98474519EBB27B
:101CF400002501933378002B0BD0221C381C01994A
:101D0400FFF7FCFEC0B2241A4519E4B2EDB2013665
:101D1400F0E7281CFEBDF7B51E1C051C171C0C1C87
:101D2400FFF78FFC241A281CFFF78FFC089B3A1836
:101D3400E4B20093281C331CD2B2211CFFF75DFFD0
:101D4400FEBDF8B506AB1E78051C171C0C1CFFF76E
:101D540078FC241A281CFFF778FCE4B23A18331CE8
:101D6400281CD2B2211CFFF73EFD0020F8BD836879
:101D740010B5002B25D0021C011C283214782931FF
:101D84000232002C03D15C790C701B7B08E0012C1F
:101D940003D1DC7B0C701B7C02E05C7B0C709B7BB6
:101DA400137000231278CB5652B29B1A021C2B32AA
:101DB40012789BB2402A02D0DBB253439B092C30E9
:101DC400037010BD08B5031C002228331A70FFF7F6
:101DD400CEFF08BD08B5031C012228331A70FFF793
:101DE400C6FF08BD08B5031C022228331A70FFF78A
:101DF400BEFF08BD08B5031C2B331970FFF7B7FFEE
:101E040008BD014B436270475F150008014B4362F4
:101E14007047C04663150008014B43627047C046D3
:101E240069150008014B43627047C04673150008EA
:101E3400F7B5051C081C0F1C01929047061C0020D6
:101E4400864221D0281C311CFFF706FC6C7F6442BB
:101E5400E4B20137381C019B984700280BD0287F37
:101E6400019B2418381C9847061C281C311CE4B21A
:101E7400FFF7F2FBEDE7202E03D0687FEB7FC0185D
:101E840000E0287F2418E0B2FEBD08B5014AFFF740
:101E9400CFFF08BD8D15000808B5024AFFF7C8FF3B
:101EA40008BDC0469115000810B50978041CFFF759
:101EB400D3FB1D20205610BD10B50978041CFFF774
:101EC400CBFB1D20205610BD70B5061C0D1C002434
:101ED4002978002907D0301CFFF7BEFB337F01357A
:101EE400E418E4B2F4E7201C70BD70B5061C0D1CA8
:101EF40000242978002907D0301CFFF7ADFB337F7D
:101F04000135E418E4B2F4E7201C70BD08B5FFF70E
:101F140018FC08BD70477047F7B50C78002C04D145
:101F2400089B1C70099B1C701CE0041C0D1C171CD6
:101F34006A461E1CFFF705FC2978201CFFF78CFB62
:101F44003A78637FD3183B706B46089A1B791370F9
:101F54006B4632785B78D21A32706A4612789B1AD2
:101F6400099A1370F7BDF0B50F7885B0002F04D12E
:101F74000A9B1F700B9B1F7026E01D1C8368161C98
:101F840002AA5F790191041CFFF7DBFB02AB5B78CB
:101F94005BB2BB4201DA02AB5F70019B201C197873
:101FA400FFF75AFB3278637FD318337002AB1B7987
:101FB4000A9A137002AB5B782A78D21A2A7002AAA2
:101FC40012789B1A0B9A137005B0F0BD836810B594
:101FD4008B4205D0041C8160FFF7C9FE014B63628C
:101FE40010BDC0465F150008F0B50F1C87B0191C62
:101FF400041C161CFFF730FB051E3DD0A36818789F
:10200400FFF7C7FAE37F05900393631CDA7F637FCE
:102014000092FF18FBB20493A37F201CF61AF3B2BC
:102024009E1AF6B202930499321C039BFFF760FADE
:10203400002820D0059BED18039B0333DBB29B08DB
:102044000393029B9E4216D02F1C7B1B049ADBB287
:1020540099005118039AC9B2934208D23B78201CC4
:102064000093321C002300F096FC0137EDE70136A3
:10207400AD18F6B2E5E7207F40B207B0F0BDF8B581
:10208400051C1E1C6B6A0F1C141C98470219391C72
:10209400281C331CD2B2FFF7A7FFF8BDF7B51F1CED
:1020A4008368061C18780D1C0192FFF771FA00244E
:1020B400022815D1736A301C9847019BC018C3B21B
:1020C40001933B78002B0BD0291C301C019AFFF79D
:1020D4008BFFC0B245190419EDB2E4B20137F0E741
:1020E400201CFEBDF7B5051C101C0A380C1C161C60
:1020F40001930B283BD800F069FF063A3A3A3A3A82
:102104002F333A3A3A10281C022200F04AFE281CC7
:10211400211C1A4A00F07CFE29E0184A281C2632A9
:102124004F6800F075FEB0233A79211C1A43281C2D
:1021340000F05EFE281C211C012200F053FE381C16
:10214400291C221C00F00FFF002816D0281C211C7B
:10215400002200F033FE0AE0084A281C2E3202E076
:10216400281C064A373200F053FE012005E0281CE3
:10217400211C321C019B00F0D5FDFEBD1B4F000845
:10218400F7B5051C101C0A380C1C161C01930B28EF
:102194003CD800F01BFF063B3B3B3B3B30343B3B16
:1021A4003B11281C022200F0FCFD1C4A281C211CA7
:1021B400423200F02DFE29E0184A281C26324F68CE
:1021C40000F026FEB0233A79211C1A43281C00F0A3
:1021D4000FFE281C211C012200F004FE381C291CBF
:1021E400221C00F0C0FE002816D0281C211C00224E
:1021F40000F0E4FD0AE0094A281C2E3202E0281C03
:10220400064A373200F004FE012005E0281C211C98
:10221400321C019B00F086FDFEBDC0461B4F00082A
:10222400F7B5051C101C0A380C1C161C01930B284E
:102234003CD800F0CBFE063B3B3B3B3B30343B3BC6
:102244003B11281C022200F0ACFD1C4A281C211C56
:10225400423200F0DDFD29E0184A281C68324F683C
:1022640000F0D6FDB0233A79211C1A43281C00F053
:10227400BFFD281C211C012200F0B4FD381C291CC0
:10228400221C00F070FE002816D0281C211C0022FD
:1022940000F094FD0AE0094A281C2E3202E0281CB2
:1022A400064A373200F0B4FD012005E0281C211C49
:1022B400321C019B00F036FDFEBDC0461B4F0008DA
:1022C400F7B5051C101C0A380C1C171C01930B28AD
:1022D40061D800F07BFE0660606060605559606004
:1022E4006011281C022200F05CFD2E4A281C211CCF
:1022F400423200F08DFD4EE02A4B281C26331A1C76
:102304004E68009300F084FD502332795B42520002
:102314001A43211CD2B2281C00F06AFD281C211C7F
:10232400012200F05FFDB3687279211C281C00F0C3
:1023340065FD281C211C002200F040FD211C009A90
:10234400281C00F065FD502332795B4252000132B3
:102354001A43211CD2B2281C00F04AFD281C211C5F
:10236400012200F03FFD7279B368211C9B18281CE0
:1023740000F044FD281C211C002200F01FFD0AE08F
:10238400084A281C2E3202E0281C064A373200F084
:102394003FFD012005E0281C211C3A1C019B00F094
:1023A4000AFCFEBD1B4F0008F7B5051C101C0A38BB
:1023B4000C1C171C01930B2861D800F007FE066063
:1023C40060606060555960606011281C022200F052
:1023D400E8FC2E4A281C211C423200F019FD4EE074
:1023E4002A4B281C68331A1C4E68009300F010FD19
:1023F400502332795B4252001A43211CD2B2281C6A
:1024040000F0F6FC281C211C012200F0EBFCB36850
:102414007279211C281C00F0F1FC281C211C0022CC
:1024240000F0CCFC211C009A281C00F0F1FC502385
:1024340032795B42520001321A43211CD2B2281C69
:1024440000F0D6FC281C211C012200F0CBFC727980
:10245400B368211C9B18281C00F0D0FC281C211CEC
:10246400002200F0ABFC0AE0084A281C2E3202E0ED
:10247400281C064A373200F0CBFC012005E0281C5A
:10248400211C3A1C019B00F096FBFEBD1B4F00086B
:10249400012238B50023027422228360C36043748E
:1024A40082748361021C031C041CFF2134334232F6
:1024B400197001339342FBD1231C012531331D7064
:1024C400201CFFF79EFC231C221C28331D700023B4
:1024D4004021293213705370D370024B917063649E
:1024E40038BDC046A12A000810B50C68A04710BD2D
:1024F40038B5041C0D1C636C02209847291C0A2261
:10250400201C0023FFF7F0FF051C636C0320984791
:10251400636C00209847281C38BD38B5041C0D1C7A
:10252400636C02209847636C01209847291C201C87
:1025340014220023FFF7D8FF231C291C1722483339
:10254400201CFFF7D1FF636C0020984738BD70B59D
:10255400041C0E1C0220636C98470120636C98478E
:10256400201C311C15220023FFF7BEFF051E06D0D8
:10257400231C201C311C17224833FFF7B5FF636C62
:1025840000209847281C70BD07B56B4607331A70A6
:102594000F22FFF7A9FF0EBD10B51C1C031C2D3321
:1025A4001A705C703222FFF79FFF10BD70B51E1CBD
:1025B40004AB1D7805AB1C78031C2D331A705E70B8
:1025C400DD709C703B22FFF78FFF70BD70B51E1C41
:1025D40004AB1D7805AB1C78031C2D331A705E7098
:1025E400DD709C702D22FFF77FFF70BD13B56B4625
:1025F400DC1D4622231CFFF777FF207816BD13B598
:102604006B46DC1D4722231CFFF76EFF207816BDA6
:1026140008B548220023FFF767FF08BD10B5041C66
:102624006168FFF7E3FF61682070201CFFF7E7FF94
:1026340061686070201CFFF7EBFF231CE074616885
:102644004833201C1722FFF74FFF10BD10B5041CA0
:102654006168FFF74DFF002803D0201CFFF7DEFF61
:10266400012010BD38B50D1C041CFFF711FF656077
:10267400201CFFF7EBFF38BD70B5041C0D1C161CA5
:10268400FFF706FF231C221CFE213433423219704B
:1026940001339342FBD16560201CAE60FFF7D6FF87
:1026A40070BDF0B5041C85B01D1C0AAB1B780F1C53
:1026B40001930BAB1B78161C02930CAB1B78039392
:1026C400FFF7E6FE231C6A46383312796760023B43
:1026D4009E70DD701A706A46127A013B1A706A465F
:1026E400127B013B1A70201CFFF7B0FF05B0F0BD50
:1026F400F7B5041C1D1C08AB1B780F1C161C01939A
:10270400FFF7C6FE231C6A463633676012791E70D3
:10271400013B1D70013B1A70201CFFF797FFFEBDA3
:1027240070B5041C0E1C151CFFF7B2FE231C3F33AE
:102734006660201C1D70FFF789FF70BDF0B5041C96
:1027440085B01D1C0AAB1B780F1C01930BAB1B78C7
:10275400161C02930CAB1B780393FFF799FE231C02
:102764006A4638336760023B9E7012791D70013BE4
:102774001A706A46127A201C1A736A46127B013B4D
:102784001A70FFF763FF05B0F0BDF0B58DB000938C
:1027940012AB1B78161C019313AB1B780CAA029383
:1027A40014AB1B78041C039315AB1B780F1C049308
:1027B40016AB1B78059317AB1B78069318AB1B78E5
:1027C400079319AB1B78089319239B18DB7F099394
:1027D4001D239B18DB7F0A931CAB1B780B931DAB4B
:1027E4001D78FFF755FE6A46231C1278393367605B
:1027F4005A706A4612791E709A706A46127A013BC0
:102804001A716A46127B20215A716A46127C201C76
:102814009A716A46127DDA716A46127E1A726A46A3
:10282400127F023B9A706A465218127824211A7059
:102834006A465218127828215A706A465218127839
:10284400013B1A702C216A46521812781A73013B04
:102854001D70FFF7FBFE0DB0F0BDF0B58DB0019318
:1028640012AB1B78161C029313AB1B780CAA0393B0
:1028740014AB1B78041C049315AB1B780F1C059335
:1028840016AB1B78069317AB1B78079318AB1B7812
:10289400089319AB1B78099319239B18DB7F0A93C0
:1028A4001D239B18DB7F0B931CAB1D78FFF7F0FDFA
:1028B4006A46231C1279393367605A706A46127A61
:1028C40020219A706A46127B1E70DA706A46127C66
:1028D400033BDA716A46127D201C1A726A46127E24
:1028E4005A726A46127F9A726A46521812782421E2
:1028F4001A706A4652181278013B1A7028216A46E7
:10290400521812782C211A736A465218127803331B
:102914001A70043B1D70FFF799FE0DB0F0BD08B5A9
:102924004168FFF7FAFD08BD836910B5041C002B4C
:1029340000D098476168201CFFF709FE10BD08B558
:102944000A1C4168FFF720FE08BD08B54168102243
:102954000023FFF7C9FD08BD08B541681122002313
:10296400FFF7C2FD08BD10B50C1C131C4168221CE6
:10297400FFF712FE10BD70B51D1C04AB1C78031CC0
:102984000E1C2D3341681E705A70DD709C703B2202
:10299400FFF7AAFD70BD70B51D1C04AB1C78031CA9
:1029A4000E1C2D3341681E705A70DD709C702D22F0
:1029B400FFF79AFD70BD37B506AC257801AC2170E0
:1029C4006270A37041683C22231CE570FFF78CFD04
:1029D40037BD313001707047031C31331970323008
:1029E400090A01707047920810B5DB0854012343AB
:1029F400041C313423700723D20899430A4332302C
:102A0400027010BD10B5C47C282C09D11F24A24328
:102A1400A143D20811439B091943313001700CE0E2
:102A2400302C02D1FFF7DFFF07E0041C31342170A2
:102A3400011C333032310A70037010BD313000781C
:102A44007047C37CFF20282B03D00320022B00D027
:102A54000120704710B5041CC37C3134302B04D1E1
:102A6400FF2332302370037002E0FFF7EAFF207087
:102A740010BD002070470023313003707047C37CC1
:102A84006D20282B00D001207047C27C6D23282A9A
:102A940000D00123313003707047C046704708B539
:102AA40041640320884708BD704700214379826848
:102AB4005B00D318117001329A42FBD1704708B5FC
:102AC40081604271FFF7F1FF08BD30B585788468F5
:102AD400521BD2B2072A03D9407924180720024096
:102AE400012090406118C2B20878002B01D0104335
:102AF40000E09043087030BD10B583784A78934263
:102B04000AD8C378934207D30C784379A34203D9F4
:102B14000B79211CFFF7D9FF10BD70B5061C0C1CE6
:102B24008D786BB2002B03DA301C211CFFF7E4FF15
:102B3400E078032810D800F049FA0205080C23783D
:102B4400013304E06378013305E02378013B23700B
:102B540002E06378013B63706D00EDB2002DE0D1BB
:102B640070BDF7B50190C8780C1C8D7803280ED879
:102B740000F02CFA0205070A0026012709E00126C5
:102B840003E00026FF2704E0FF26002701E00026DB
:102B9400371C6BB2002B03DA0198211CFFF7ACFF42
:102BA40023786D00FB1823706378EDB2F31863701B
:102BB400002DEED1F7BD70B51E1C4D68322A1FD012
:102BC4000CD8152A21D0172A28D0142A2FD1281C32
:102BD400FFF76BFF281C00F0D1F928E0462A22D029
:102BE400472A22D03B2A22D1281C191C00F0A8F91C
:102BF400012400281CD0281C311CFFF7B2FF17E069
:102C0400281C191CFFF778FF11E0281C00F0C5F9F7
:102C1400041E0DD0281CFFF748FF08E0281C191CCF
:102C240000F084F903E06B7900E06B7833700124E1
:102C3400201C70BD08B58160427100F037F908BDF1
:102C440030B50724856880786918121A2240012457
:102C5400201C9040C2B20878002B01D0104300E041
:102C64009043087030BD10B583784A7893420AD8EF
:102C7400C378934207D30C784379A34203D90B79E1
:102C8400211CFFF7DDFF10BD70B5061C0C1C8D78F0
:102C94006BB2002B03DA301C211CFFF7E4FFE07851
:102CA400032810D800F092F90205080C23780133A8
:102CB40004E06378013305E02378013B237002E0EC
:102CC4006378013B63706D00EDB2002DE0D170BDFF
:102CD400F7B50190C8780C1C8D7803280ED800F045
:102CE40075F90205070A0026012709E0012603E019
:102CF4000026FF2704E0FF26002701E00026371CFA
:102D04006BB2002B03DA0198211CFFF7ACFF237888
:102D14006D00FB1823706378EDB2F3186370002D17
:102D2400EED1F7BD70B51E1C4D68322A1FD00CD8E9
:102D3400152A21D0172A28D0142A2FD1281C00F0B4
:102D4400B5F8281C00F01AF928E0462A22D0472AB0
:102D540022D03B2A22D1281C191C00F0F1F80124AE
:102D640000281CD0281C311CFFF7B2FF17E0281CD8
:102D7400191CFFF778FF11E0281C00F00EF9041E5F
:102D84000DD0281C00F092F808E0281C191C00F053
:102D9400CDF803E06B7900E06B7833700124201CDC
:102DA40070BD10B500238C680121A04710BD10B57B
:102DB4008C6800210A1C0B1CA04710BD10B5002311
:102DC4008C680321A04710BD002210B5131C8C6829
:102DD4000421A04710BD10B501228C6800230421F2
:102DE400A04710BD10B500238C680221A04710BD78
:102DF40010B500238C680521A04710BD10B58C6860
:102E04000621A04710BD10B58C680721A04710BD4E
:102E1400F8B5051C0E1C171C00233C78002B09D1A7
:102E2400FF2C3CD0281C311C221CFFF7E1FF00289A
:102E34002ED137E0FF2CF5D0FE2C35D0EF2C27D83F
:102E4400DF2C06D90F22281C2240311CFFF7CAFFB1
:102E54001EE0CF2C06D90F22281C2240311CFFF77C
:102E6400ADFF15E0BF2C15D9311C281CFFF7ACFFB2
:102E74000F22144024010234E4B2A4B2201C00F056
:102E84002BFC281C311CFFF7A6FF201C00F024FC9F
:102E9400002305E063B2A0B2002BF7DAF8E70123C0
:102EA4000137BAE7002000E00120F8BD0021836863
:102EB40042799A18197001339342FBD1704730B5A7
:102EC4000024251CC37880788B4265418A429B414B
:102ED40059420B1C82426441EDB22B431C40201C1E
:102EE4002940084330BD43790120994203D9002089
:102EF40093424041C0B2704738B50D1C4978EA7816
:102F0400041C8A18013AD2B2FFF7D9FF00280CD06A
:102F140029786279AB780120914206D90020CB1838
:102F2400013BDBB29A424041C0B238BD00230B7072
:102F340083784B704379013B8B70C378CB707047B7
:102F440008B5CB784A78012B06D0111C0839C9B2D0
:102F5400032B05D0111C03E0131C0833111CDAB237
:102F6400FFF7ADFF08BD08B5031C081C111C5A79F6
:102F74009B68FFF743FF08BD0120704700220378D8
:102F84008270013BC3700271704708B50023017061
:102F940042700371FFF7F2FF08BD30B58478017801
:102FA40045780C19E4B2031C84700020AC420BD2A7
:102FB4001A7901321A71DA785118CAB2AA4201D3C5
:102FC4006A1ED2B20120DA7030BD000002B471462C
:102FD40049084900095C49008E4402BC7047C04658
:102FE400002934D00123002210B488422CD30124B8
:102FF4002407A14204D2814202D209011B01F8E74D
:10300400E400A14204D2814202D249005B00F8E705
:10301400884201D3401A1A434C08A04202D3001B31
:103024005C0822438C08A04202D3001B9C08224364
:10303400CC08A04202D3001BDC082243002803D0A2
:103044001B0901D00909E3E7101C10BC70470028D4
:1030540001D00020C04307B4024802A140180290E6
:1030640003BDC046190000000029F0D003B5FFF7E6
:10307400B9FF0EBC4243891A1847C0467047C04680
:1030840070B50D4E0D4D0024AD1BAD1005D0A30041
:10309400F35801349847A542F9D101F075FF084E61
:1030A400084D0024AD1BAD1005D0A300F358013426
:1030B4009847A542F9D170BD00000000000000004F
:1030C4000000000000000000F0B50F2A34D9031CF2
:1030D4000B439B0734D1151C031C103D2D090135EE
:1030E4002D014C190E681E604E685E608E681031AA
:1030F4009E600E1F376810331E1F3760A142F1D146
:103104000F2345191340032B1CD90021043B9B08B2
:1031140001339B0066586E5004319942FAD103235F
:103124006D181A406118002A05D00023CC5CEC54B9
:1031340001339342FAD1F0BD051C002AF5D1FAE718
:10314400051CF2E71A1CF8E770B583073ED0541E3D
:10315400002A3AD0CEB2031C032503E0621E002CE1
:1031640033D0141C01335A1E16702B42F6D1032C93
:1031740023D9FF220A4015022A4315042A430F2C9F
:1031840027D9251C103D2D0901352D015D191A6023
:103194005A609A6010331E1F32609D42F7D10F2689
:1031A4003440032C09D9231F9B0801339B00EB18DF
:1031B40004C5AB42FCD103221440002C05D0C9B293
:1031C4001C1919700133A342FBD170BD141C031CDC
:1031D400CDE71D1CE7E7C046802290208021F0B592
:1031E400584B1205584CDA67236885B0C005C900EE
:1031F400002B03D1FDF74CF8012302E0FDF74AF858
:103204000023524852492360FEF70EF8002800D1EB
:1032140091E04E48FDF7ECFEC0B24E4C7B2803D142
:1032240001234D4A236050E03B280FD100220121A5
:10323400494B21601A60494B49481C688C4202D1B1
:103244001A60046077E00260196074E02368454FF7
:10325400002B6BD07D283AD13B68002B6BD0424BBE
:1032640042491B6842481A1C0193FFF72DFF414E47
:103274004149336841481A1C0293FFF725FF404D2A
:1032840040492B6840481A1C0393FFF71DFF802216
:10329400002152003D48FFF757FF0023344A0199AB
:1032A4003B605354354A029933605354364A039968
:1032B4002B60535401212C4A23601360344A11605B
:1032C400254A1360254A1360254A136033E0234BD3
:1032D400196800290AD0274B1A68402A01D1002214
:1032E4001A601A68511C1960234B0CE01C4B1A68B5
:1032F400002A0DD0224B1A68402A00D119601A689E
:10330400511C19601F4B98543B6801333B6012E019
:10331400114B1B68002B09D0134B1968402900D1AD
:103324001A601A68511C1960104BECE73B685A1C70
:103334003A60164AD0548022164B12051A6005B022
:10334400F0BDC04604E100E0080A00200038014056
:1033540005010500680B0020580A0020F00B00202E
:10336400640B0020EC0B00205C0B0020AC0B002055
:10337400800C00200C0A00206C0B0020F40B0020B1
:10338400540A0020100A0020DC0C00205C0A0020F3
:10339400500A002000E100E0024A13680133136080
:1033A4007047C046600B002010B580209024C001F7
:1033B400E4050121FDF72AFC0122201C0321FCF76E
:1033C40073FF201C0C490D4CFCF7CCFE0C48FDF798
:1033D400C3F9201C0B49FDF7D5FC201C0A49012226
:1033E400FDF7ECFE8022094B12051A60201C012116
:1033F400FDF73AFD10BDC0464C01002000380140E5
:10340400480100205C0300200501050000E100E004
:1034140037B5144D041C1449281CFEF7D7FD40236E
:10342400124A00930192281C211C0022FDF7ACFFD4
:103434000F4B1B68012B13D14034E4B2211C14221E
:103444000C4B281CFEF769FB211C28220A4B281C64
:10345400FEF763FB281C211C3C22084BFEF75DFB96
:1034640037BDC046340C00206C3900085C010020D4
:10347400500A0020800C0020F40B0020DC0C0020FB
:1034840038B500F055F800F0AFF880200121800233
:10349400FDF7B0FB90201D49C005FCF763FE002139
:1034A4001B4B1C4A19601C4B1B68DB0893420DD84C
:1034B400C0241A4A013B1A485360036A24061B02BB
:1034C4001B0A23430362072391601360FFF76CFF19
:1034D40090208021C005C900FCF7DAFE114C124986
:1034E400124A201CFFF7C8F8201CFFF7B3FA002586
:1034F400201CFFF714FA281CFFF78AFF201CFFF793
:1035040013FA0028F7D1013DEDB2F1E75401002090
:10351400600B0020FFFFFF008403002010E000E0A8
:1035240000ED00E0340C0020000100200137000809
:1035340013B501200F24254B1A6802431A605968F9
:10354400234A0A405A601968224A0A401A601968D4
:10355400214A0A401A605968204A11405960D96AC0
:10356400A143D9621C6B1E4921401963596B8143E5
:103574005963002111209960009101911949086053
:10358400596859605968596059680A40A0215A60BD
:103594005A6889030A4380215A601A6849040A4315
:1035A40080211A6089041868084A0842FBD0032065
:1035B40051688143022051605168014351600C21DC
:1035C4005A680A40082AFBD113BDC04600100240C5
:1035D4000CB8FFF8FFFFF6FEFFFFFBFFFFFFC0FF85
:1035E400ACFEFFFF002002400C2370B5124D134EB9
:1035F4006A681340042B01D0082B02D0104B3360AF
:1036040011E06C686B68A402240F0234DB0301D45C
:103614000C4806E00F23E96A094819400131FFF715
:10362400DFFC444334606B68074A1B061B0FD35C02
:103634003268DA40326070BD00100240840300201A
:1036440000127A0000093D00740300200F498A68C3
:103654001202120A131E834203D24B681B021B0A76
:103664009B18181A824209D38B681B021B0A8342D7
:103674000AD99342F8D907E0934205D88B681B0214
:103684001B0A8342FAD8F7E77047C04610E000E00F
:1036940038B5051C074B5C682402A40AA54204D96A
:1036A400201C2D1BFFF7D2FFF8E7281CFFF7CEFFE5
:1036B40038BDC04610E000E0054B10B50549041CB8
:1036C4001868FFF78DFC6043FFF7E2FF10BDC046AA
:1036D4008403002040420F0008B5FA239B0058439E
:1036E400FFF7EAFF08BD08B50120FFF7E5FF08BDB5
:1036F40008B50A20FFF7E0FF08BD000037B5481EF3
:10370400062871D81D1C141CFFF760FC04076E6E9C
:103714001117170000F070F864E0344B002A01D14F
:103724001A6001E040221A60FFF7E2FF5CE02F4BD1
:10373400111C187800F0A6F854E080212C480902E6
:10374400FCF7E6FF0128F8D080239B010093802337
:103754002748782101225B04FCF738FF2448022122
:10376400FCF7D6FF0028F9D0204B21481978FCF744
:10377400BFFF1F488021FCF7CBFF0028F9D00023AE
:1037840000938023621CD2B2194878219B04FCF771
:103794001DFF17480221FCF7BBFF0028F9D02C19A4
:1037A400A5420BD029781248FCF7A2FF1048022149
:1037B400FCF7AEFF0028F9D00135F1E78023DB01E7
:1037C400009380230A48782100229B04FCF7FEFE24
:1037D40007482021FCF79CFF0028F9D00448202149
:1037E400FCF79CFFFFF77FFF01203EBD1C0D00206E
:1037F4000054004070470000802030B5C0028BB0F8
:103804000121FDF7F7F980201A4C01218003FDF70F
:1038140009FA1020FDF726F9201C06210122FCF7E5
:1038240043FD201C07210122FCF73EFD01A90A1CCF
:10383400114B21CB21C2201CFCF794FC201C062137
:10384400FCF700FD201C0721FCF7FCFC0B4B0C4C87
:1038540003930023201C03A9049305930693079361
:1038640008930993FCF74EFD201C0121FCF788FD09
:103874000BB030BD00040048643900080A0210008F
:103884000054004037B5051C0C1C80211E48090259
:10389400FCF73EFF0128F8D080239B01009380238E
:1038A4001948782101225B04FCF790FE1648022196
:1038B400FCF72EFF0028F9D01348291CFCF718FF49
:1038C40011488021FCF724FF0028F9D0002300933D
:1038D40080230D48782101229B04FCF777FE0A48D7
:1038E4000221FCF715FF0028F9D00748211CFCF73A
:1038F400FFFE05482021FCF70BFF0028F9D0024801
:103904002021FCF70BFF37BD005400400D488546CD
:10391400002103E00C4B5B58435004310B480C4B23
:1039240042189A42F6D30B4A02E000231360043291
:10393400094B9A42F9D3FFF7FBFDFFF7A1FBFFF711
:103944009FFDFEE700100020A44F000800000020A7
:103954008803002088030020200D0020FEE70000DB
:10396400C00000000203010100101000FE0A06A7B7
:10397400089500FFFE0EFE0BFE1010201000FEAA9C
:10398400AA00018000000180004A51EA505A51C93E
:103994009E00018000000180000001800055551048
:1039A40010201000FEAAAA00018000000180003946
:1039B40093C252325F8A52719380000001800000EA
:1039C40001800055551010201000FEAAAA000180A5
:1039D40000000180003BA5C1243119892471258090
:1039E40000000180000001800055551010201000D7
:1039F400FEAAAA00018000000180007BA5C12479F1
:103A040019C124792580000001800000018000553F
:103A1400551010201000FEAAAA00018000000180A9
:103A24000079BFC2487A49C2487989800000018080
:103A3400000001800055551010201000FEAAAA00B5
:103A4400018000000180007A4DC2527B53C2D67AB5
:103A54004F800000018000000180005555101020A7
:103A64001000FEAAAA000180000001800031A5CA4E
:103A7400287A31CA2849A58000000180000001800D
:103A84000055551010201000FEAAAA000180000065
:103A940001800073D1CA1073D1CA1073DF80000093
:103AA4000180000001800055551010201000FEAA6E
:103AB400AA00018000000180001E3991401E31914E
:103AC400081E71800000018000000180005555101F
:103AD40010201000FEAAAA0001800000018000222C
:103AE400F9A2203E21A220222180000001800000B2
:103AF40001800055551010201000FEAAAA00018074
:103B0400000001800020F9A08020F9A0803E81807F
:103B140000000180000001800055551010201000A5
:103B2400FEAAAA000180000001800022F9A220223E
:103B340021942008218000000180000001800055AC
:103B4400551010201000FEAAAA0001800000018078
:103B5400003EF9A0803EF9A0802081800000018011
:103B6400000001800055551010201000FEAAAA0084
:103B7400018000000180001EF1A08820F1A0901EA9
:103B8400898000000180000001800055551010203C
:103B94001000FEAAAA00018000000180001E71A08E
:103BA400881C8982883C71800000018000000180AB
:103BB4000055551010201000FEAAAA000180000034
:103BC4000180001EF9A0201C2182203CF980000005
:103BD4000180000001800055551010201000FEAA3D
:103BE400AA0001800000018000391DA510251DA533
:103BF4001039DD800000018000000180005555105F
:103C040010201000FEAAAA000180000001800071AB
:103C140089CA184A09CA08719D8000000180000001
:103C240001800055551010201000FEAAAA00018042
:103C340000000180007199CA044A09CA10719D806C
:103C44000000018000000180005555101020100074
:103C5400FEAAAA00018000000180007199CA044AEA
:103C640019CA047199800000018000000180005588
:103C7400551010201000FEAAAA0001800000018047
:103C8400007185CA0C4A15CA1C7185800000018028
:103C9400000001800055551010201000FEAAAA0053
:103CA400018000000180004993EA546A59DBD44A38
:103CB4005380000001800000018000555510102041
:103CC4001000FEAAAA00018000000180003453C243
:103CD4009A3117891271138000000180000001805D
:103CE4000055551010201000FEAAAA000180000003
:103CF4000180007BB9C1247939C12479398000005D
:103D04000180000001800055551010201000FEAA0B
:103D1400AA00018000000180003325C4B447ADC46B
:103D2400A434A580000001800000018000555510D6
:103D340010201000FEAAAA00018000000180003EAD
:103D440089A0D83EA9A0883E898000000180000097
:103D540001800055551010201000FEAAAA00018011
:103D640000000180003A5DC252325D8A52719D802A
:103D74000000018000000180005555101020100043
:103D8400FEAAAA000180000001800079CFC2107948
:103D940091C0507B8F80000001800000018000559D
:103DA400551010201000FEAAAA0001800000018016
:103DB400001E7190801E61901010E180000001804F
:103DC400000001800055551010201000FEAAAA0022
:103DD400018000000180000E719080166192100E27
:103DE400E180000001800000018000555510102082
:103DF4001000FEAAAA00018000000180001C71923C
:103E0400801C61941012E180000001800000018098
:103E14000055551010201000FEAAAA0001800000D1
:103E240001800012719280126192100CE1800000F6
:103E340001800000018000555500000008000E01BB
:103E44000A0A0804008080808080808000808005C9
:103E5400040408020888888888060A0A08010024DD
:103E64002424FC4848FC909090070A0A080100109A
:103E74007C9290701C12927C10070A0A080100625E
:103E840094946810102C52528C070A0A08010038C6
:103E940044442830528A848C720104040804088043
:103EA400808080030C0C0803FF20404080808080C9
:103EB4008080404020030C0C0802FF8040402020FA
:103EC4002020202040408007070708010110925459
:103ED40038549210070707080101101010FE101043
:103EE400100204040803FEC04040800401010802DB
:103EF40004F0020202080300C0C0060A0A08010016
:103F040004040810102020408080060A0A080100DA
:103F140030488484848484844830050A0A08020072
:103F24002060A0202020202020F8060A0A08010092
:103F3400788484041820408080FC060A0A08010062
:103F440078848404380404848478060A0A08010006
:103F5400081828488888FC080808060A0A08010086
:103F6400FC808080F80404048478060A0A080100AE
:103F740038408080F88484848478060A0A08010022
:103F8400FC040408080810101010060A0A080100AE
:103F940078848484788484848478060A0A080100F6
:103FA400788484847C0404040870020707080301ED
:103FB400C0C0000000C0C00209090803FFC0C0005F
:103FC4000000C04040800509090802000810204094
:103FD4008040201008060505080102FC000000FCD2
:103FE40005090908010080402010081020408006BF
:103FF4000A0A0801007884840408101000101006CE
:104004000A0A080100384494ACA4A4A49C403C06C9
:104014000A0A0801003048488484FC8484848406A5
:104024000A0A080100F8848484F884848484F806E5
:104034000A0A080100788484808080808484780659
:104044000A0A080100F08884848484848488F00641
:104054000A0A080100FC808080F880808080FC06C9
:104064000A0A080100FC808080F880808080800635
:104074000A0A08010078848480809C84848C7406F5
:104084000A0A08010084848484FC8484848484056A
:104094000A0A080200F82020202020202020F80707
:1040A4000A0A0801003E08080808080888887006FB
:1040B4000A0A080100848890A0C0C0A090888406E1
:1040C4000A0A080100808080808080808080FC064D
:1040D4000A0A0801008484CCCCB4B48484848406A1
:1040E4000A0A08010084C4C4A4A494948C8C840691
:1040F4000A0A080100788484848484848484780689
:104104000A0A080100F8848484F88080808080078B
:104114000B0B0801FF78848484848484B4CC7806EF
:10412400060A0A080100F8848484F8908888848444
:10413400060A0A080100788484806018048484785C
:10414400070A0A080100FE101010101010101010B9
:10415400060A0A080100848484848484848484781C
:10416400070A0A0801008282824444442828101065
:10417400060A0A08010084848484B4B4CCCC848400
:10418400060A0A0801008484484830304848848478
:10419400070A0A08010082824444281010101010F3
:1041A400060A0A080100FC0404081020408080FC70
:1041B400030C0C0804FFE080808080808080808075
:1041C40080E0060A0A0801008080402020101008C0
:1041D4000404030C0C0801FFE020202020202020F0
:1041E400202020E006030308010930488407010168
:1041F4000801FFFE03030308020A804020060808A2
:104204000801007884047C84848C74060B0B0801F8
:1042140000808080B8C484848484C4B806080808F4
:1042240001007884808080808478060B0B0801006C
:10423400040404748C848484848C7406080808013F
:1042440000788484FC80808478050B0B08010018B6
:10425400202020F8202020202020060B0B0801FE1F
:104264000474888888704078848478060B0B08016D
:1042740000808080B8C4848484848484050B0B0803
:10428400020020200060202020202020F8050D0DB1
:104294000801FE08080018080808080808089060C3
:1042A400060B0B0801008080808890A0C0A0908835
:1042B40084050B0B080200602020202020202020F1
:1042C40020F8070808080100EC92929292929292C8
:1042D400060808080100B8C4848484848484060819
:1042E400080801007884848484848478060A0A088F
:1042F40001FEB8C484848484C4B88080060A0A0891
:1043040001FE748C848484848C7404040608080874
:104314000100B8C4848080808080060808080100F9
:104324007884806018048478050A0A080100202033
:1043340020F8202020202018060808080100848482
:10434400848484848C740608080801008484844866
:1043540048483030070808080100829292929292ED
:10436400926C06080808010084844830304884842C
:10437400060A0A0801FE84848484844C3404047884
:10438400060808080100FC040810204080FC030C07
:104394000C0803FF60808040408080404080806043
:1043A400010E0E0804FE80808080808080808080E2
:1043B40080808080030C0C0802FFC0202040402035
:1043C4002040402020C007030308010862928C109B
:1043D40010201000FEAAAA000180000001800073D2
:1043E400D1CA104BD1CA1073DF80000001800000D5
:1043F40001800055551010201000FEAAAA0001806B
:104404000000018000719DCA5273D3C252425D8084
:10441400000001800000018000555510102010009C
:10442400FEAAAA0001800000018000499DCA527AB8
:104434005DCA504991800000018000000180005550
:10444400551010201000FEAAAA000180000001806F
:10445400007393CA52739FCA1272138000000180C2
:10446400000001800055551010201000FEAAAA007B
:10447400018000000180004B93EA525B9FCA524BBB
:104484009380000001800000018000555510102029
:104494001000FEAAAA000180000001800074B9A6E1
:1044A400A425A5A4A474B9800000018000000180A3
:1044B4000055551010201000FEAAAA00018000002B
:1044C4000180004BD1EA105BD1CA104BDF800000A1
:1044D4000180000001800055551010201000FEAA34
:1044E400AA000180000001800039CDC212319F88EA
:1044F4005273938000000180000001800055551024
:1045040010201000FEAAAA0001800000018000799A
:10451400CDC212799FC0527B9380000001800000BD
:1045240001800055551010201000FEAAAA00018039
:1045340000000180004B9DC9207919C904493980C4
:10454400000001800000018000555510102010006B
:10455400FEAAAA000180000001800025DDA4843C9D
:1045640085A4842499800000018000000180005506
:10457400551010201000FEAAAA000180000001803E
:104584000045CDC4904489A884109980000001801E
:10459400000001800055551010201000FEAAAA004A
:1045A40001800000018000721DCA127213C21243FE
:1045B400DD800000018000000180005555101020AE
:1045C4001000FEAAAA00018000000180007213CA34
:1045D400127213C21243CD800000018000000180DA
:1045E4000055551010201000FEAAAA0001800000FA
:1045F4000180000E2189200E218A200921800000DB
:104604000180000001800055551010201000FEAA02
:10461400AA000180000001800039DDC202318D88CA
:1046240050739F80000001800000018000555510E8
:1046340010201000FEAAAA000180000001800039A9
:10464400DDC202318D8842739D800000018000002C
:1046540001800055551010201000FEAAAA00018008
:10466400000001800071CFCA104A0DCA0271DD80BA
:10467400000001800000018000555510102010003A
:10468400FEAAAA00018000000180007245CA4C7293
:1046940045C244418F800000018000000180005524
:1046A400551010201000FEAAAA000180000001800D
:1046B40000725DCA42724DC250419F800000018069
:1046C400000001800055551010201000FEAAAA0019
:1046D400018000000180003B9DC1203119890471D3
:1046E4003980000001800000018000555510102021
:1046F4001000FEAAAA000180000001800039D3C284
:1047040012421FC21239D3800000018000000180D0
:104714000055551010201000FEAAAA0001800000C8
:104724000180002289B6882AA9A2D82289800000A3
:104734000180000001800055551010201000FEAAD1
:10474400AA00018000000180003B8DC252339F8A81
:104754001272138000000180000001800055551082
:1047640010201000FEAAAA00018000000180007B36
:104774008DC2527B9FC2127A138000000180000018
:1047840001800055551010201000FEAAAA000180D7
:104794000000018000398FC250324D8A42719D80E1
:1047A4000000018000000180005555101020100009
:1047B400FEAAAA0001800000018000339BC42225C8
:1047C400A394A2639B800000018000000180005537
:1047D400551010201000FEAAAA00018000000180DC
:1047E4000039DDC20832098A0871DD8000000180C9
:1047F400000001800055551010201000FEAAAA00E8
:104804000180000001800039DDC2084189C0483BB5
:104814009D8000000180000001800055551010208B
:104824001000FEAAAA00018000000180000EF99089
:10483400200C2182201C21800000018000000180C6
:104844000055551010201000FEAAAA000180000097
:1048540001800031CFCA104991C850338F800000C5
:104864000180000001800055551010201000FEAAA0
:10487400AA00018000000180001C8992D81CA99024
:1048840088108980000001800000018000555510C7
:1048940010201000FEAAAA0001800000018000334D
:1048A4008FCA507B91CA104A0F800000018000001B
:1048B400018000555500000008000E010A0A080492
:1048C4000080800080808080808080070A0A080140
:1048D4000010107C929090927C1010070A0A080134
:1048E400001C202020F82020207CC2060808080193
:1048F400018448784848784884070A0A08010082F5
:10490400442810FE10FE101010010A0A080400804A
:10491400808080000080808080060A0A0801007878
:1049240084807884847804847804020208020C90D9
:1049340090080A0A0800003C4299A5A1A1A5994241
:104944003C050707080205700878887800F806090E
:1049540009080100242448489048482424060404F3
:10496400080100FC0404041010201000FEAAAA0090
:104974000180003A63C25433C98A487249800000F6
:1049840001800003C18000000180005555080A0A17
:104994000800003C42B9A5A5B9A9A5423C060101FD
:1049A40008010BFC03040408020A40A0A040070904
:1049B40009080101101010FE10101000FE05070771
:1049C400080205708808708080F80507070802054A
:1049D4007088087008887003030308030A20408065
:1049E400080A0A0800FE4242424242426659408096
:1049F400060C0C0801FF7CF4F4F4F474141414147D
:104A0400141C020202080304C0C00302020802FECE
:104A140020C00307070802052060A02020202005ED
:104A24000707080205708888887000F806090908D5
:104A34000100909048482448489090060A0A0801CA
:104A44000044C4485050242C549C84060A0A08018B
:104A54000044C4485050283444889C060A0A08017B
:104A640000C4244830D0242C549C84060A0A08012B
:104A74000010100010106084848478060E0E080163
:104A840000601800003048488484FC8484848406D0
:104A94000E0E080100186000003048488484FC842D
:104AA400848484060E0E0801003048000030484813
:104AB4008484FC84848484060E0E080100649800B7
:104AC400003048488484FC84848484060E0E0801E3
:104AD40000484800003048488484FC848484840668
:104AE4000E0E080100304830003048488484FC84AD
:104AF400848484070A0A0801003E509090FE909036
:104B040090909E060C0C0801FE788484808080803E
:104B14008484781060060E0E08010060180000FC02
:104B2400808080F880808080FC060E0E08010018CA
:104B3400600000FC808080F880808080FC060E0E7F
:104B440008010030480000FC808080F8808080806C
:104B5400FC060E0E08010048480000FC808080F826
:104B640080808080FC050E0E08020060180000F8AA
:104B74002020202020202020F8050E0E08020030DE
:104B8400C00000F82020202020202020F8050E0E50
:104B940008020060900000F820202020202020201F
:104BA400F8050E0E08020090900000F82020202046
:104BB40020202020F8070A0A08000078444242F224
:104BC4004242424478060E0E0801006498000084B4
:104BD400C4C4A4A494948C8C84060E0E08010060B2
:104BE40018000078848484848484848478060E0E77
:104BF4000801001860000078848484848484848498
:104C040078060E0E080100304800007884848484FD
:104C14008484848478060E0E080100649800007869
:104C2400848484848484848478060E0E0801004875
:104C34004800007884848484848484847806050508
:104C44000801028448304884060C0C0801FF0474EF
:104C5400888C9494A4A4C444B880060E0E08010061
:104C64006018000084848484848484848478060E98
:104C74000E08010018600000848484848484848481
:104C84008478060E0E080100304800008484848471
:104C9400848484848478060E0E0801004848000049
:104CA40084848484848484848478070E0E080100B8
:104CB4001860000082824444281010101010060B63
:104CC4000B0801008080F088848488F0808080064E
:104CD4000A0A08010070888890B0888484A4980621
:104CE4000C0C080100601800007884047C84848C17
:104CF40074060C0C080100186000007884047C849D
:104D0400848C74060C0C080100304800007884047C
:104D14007C84848C74060C0C080100649800007870
:104D240084047C84848C74060C0C080100484800BC
:104D3400007884047C84848C74060D0D0801003092
:104D4400483000007884047C84848C740708080844
:104D540001007C92127E9090927C060A0A0801FE61
:104D640078848080808084781060060C0C080100B0
:104D740060180000788484FC80808478060C0C0819
:104D8400010018600000788484FC80808478060C1C
:104D94000C08010030480000788484FC808084780A
:104DA400060C0C08010048480000788484FC8080CC
:104DB4008478050C0C080200C0300000602020201C
:104DC400202020F8050C0C08020030C000006020F0
:104DD4002020202020F8050C0C0802006090000020
:104DE40060202020202020F8050C0C080200909060
:104DF400000060202020202020F8060C0C08010070
:104E040064182844047C848484848478060C0C0804
:104E1400010064980000B8C4848484848484060CEB
:104E24000C080100601800007884848484848478E9
:104E3400060C0C08010018600000788484848484C3
:104E44008478060C0C0801003048000078848484BF
:104E540084848478060C0C0801006498000078842B
:104E6400848484848478060C0C080100484800007B
:104E740078848484848484780607070801013000D8
:104E840000FC000030060A0A0801FF04788C9494A0
:104E9400A4A4C47880060C0C0801006018000084E7
:104EA40084848484848C74060C0C080100186000CB
:104EB400008484848484848C74060C0C080100307F
:104EC4004800008484848484848C74060C0C080157
:104ED40000484800008484848484848C74060E0E04
:104EE4000801FE1860000084848484844C34040423
:104EF40078050C0C0802FE8080F088888890A0C099
:104F0400808080060E0E0801FE48480000848484D8
:104F140084844C34040478FFD0FFE0FFC1FFD1AE99
:104F2400D580A83FD300408D142000A1C8DA128197
:104F3400CFD9F1DB402EA4A6AFFFD0FFFEFFE0FFE8
:104F4400D11000FFFEFFE0FFD1AEFFD0FFFEFFE077
:104F5400FFD1AFFF32FFD0FFFEFFD0FFE0FFC1FF64
:104F6400D1AED580A83FD300408D142002A1C8DA69
:104F74001281CFD9F1DB402EA4A6AFFFD0FFFEFFF4
:104F8400E0FFD11002FFFE00F8B5C046F8BC08BC33
:104F94009E467047F8B5C046F8BC08BC9E467047AC
:104FA40000000000010203040102030406070809CB
:104FB400AD230008340000207D2F0008AD23000835
:104FC400340000207D2F0008AD23000834000020A9
:104FD4007D2F00081040000000800000880300209E
:104FE400252200084C0000207D2F00080840000006
:104FF40000800000880400202522000864000020AE
:105004007D2F0008084000000080000008050020F3
:10501400252200087C0000207D2F000808400000A5
:105024000080000088050020C5220008AC00002094
:105034007D2F0008C5220008AC0000207D2F000849
:10504400C5220008AC0000207D2F0008104000009D
:10505400008000000806002085210008C40000200C
:105064007D2F000808400000008000000807002091
:1050740085210008DC0000207D2F00080840000086
:10508400008000008807002085210008F40000202B
:105094007D2F000808400000008000000808002060
:1050A400E92000080C0100207D2F000808400000C2
:1050B4000080000088080020E92000082401002066
:1050C4007D2F00080840000000800000080900202F
:1050D400E92000083C0100207D2F00080840000062
:1050E40000800000880900201B0001000800000067
:1050F400020300010007000001030000000000009B
:10510400000000000000000000000000000000009B
:105114000000000000000000000000000000FE008D
:10512400000000000080FF010000000000C0FF0735
:105134000000000000E0FF070000000000F0FF0F87
:105144000000000000F8FF1F0000000000F8FF1F2F
:105154000000000000FC1F1E0000000000FCEF1D0A
:105164000000000000FCF73A00001E0000D6FB3CE3
:105174000000E10000BE7B3C0000010700AF7F3A65
:105184000000010880CF2B7F0000290880EFFB7B03
:105194000080000980E7CF760080100900FB7F7350
:1051A4000080440900F3CFFC0040100500FF3D9E41
:1051B40000408204007EC7870040A80400C6F18036
:1051C40001208202003C7E000120500200E2070020
:1051D400033E450200FE011482215001003E0024DA
:1051E400661022010004002024F027010004002896
:1051F4009C0F3C01000400480806B0000004004075
:105204004801A000000800509000C00000080050B1
:10521400800040000008009000104000000800A03A
:1052240000004000001000A000004000002000200A
:105234000700400000200020100020000040002053
:105244001F10200000C000E0022030000080008019
:1052540001001000000001600300080000000300CA
:1052640000000C000000060000000600000004001E
:1052740000A00100000018000070000000003000D1
:10528400002600000000E0008025000000008007E8
:10529400E8240000000000FC1F280000000000A01B
:1052A400802A0000000000A0C04E0000000000A002
:1052B400C0400000000000A000430000000000A067
:1052C400008E0000000000A200700000000080AD0D
:1052D40000000000000000B1000000000000008297
:1052E400000000000000008C0000000000000078B6
:1052F40000000000000000400000000080250000C5
:105304000000000000000000000000000400000095
:10531400000000000000000000000000010203047F
:0853240006070809006CDC0219
:0400000508003911A5
:00000001FF
