:020000040800F2
:10000000001000209D390008ED390008ED39000886
:1000100000000000000000000000000000000000E0
:10002000000000000000000000000000ED390008A2
:100030000000000000000000ED3900080134000855
:10004000ED390008ED390008ED390008ED390008F8
:10005000ED390008ED390008ED390008ED390008E8
:10006000ED390008ED390008ED390008ED390008D8
:10007000ED390008ED390008ED390008ED390008C8
:10008000ED390008ED39000800000000ED390008E6
:10009000ED390008ED390008ED3900088538000811
:1000A000ED390008ED390008ED390008413200084B
:1000B000ED39000800000000ED39000800000000E4
:0400C0005FF808F1EC
:1000C40008B59023DB05984217D0224B98421FD0E5
:1000D400214B984227D0214B98422FD0204B984255
:1000E40000D008BD80200121C00300F0D9FD80208C
:1000F4000021C00300F0D4FDF3E780200121800239
:1001040000F0CEFD80200021800200F0C9FDE8E768
:1001140080200121C00200F0C3FD80200021C00224
:1001240000F0BEFDDDE780200121000300F0B8FDF2
:1001340080200021000300F0B3FDD2E780200121DC
:10014400400300F0ADFD80200021400300F0A8FD35
:10015400C7E7C0460004004800080048000C0048F7
:1001640000140048F0B544465F4656464D46F0B488
:1001740003248C4683B00968002200230127A0468B
:1001840003E001330232102B27D03C1C0D1C9C4091
:100194002540A542F5D164462479A346013C012CAF
:1001A40022D944469440E44301940568019C0133F8
:1001B4002C4004605C46944005682C4345469540B9
:1001C4000460C468AC43C4606446E479C568944080
:1001D4002C43C4600232102BD7D103B03CBC9046F0
:1001E4009946A246AB46F0BD8468A1464446944075
:1001F4004E46E4432640866086680194B2466646CD
:1002040076799640B14656464C46264386608488A5
:10021400261CAE4386808488A1466446A5794C4654
:100224009D402543ADB28580BFE7C046044B022202
:1002340003600023427103718371C3717047C04628
:10024400FFFF0000802382B05B020193019B0B43FC
:100254000193019BC361C161019BC361C3690193A4
:10026400C369019302B07047008A0840411E884167
:10027400C0B27047008A80B27047C046808A084086
:10028400411E8841C0B27047808A80B27047C04620
:100294008161704701857047002A01D1018570474B
:1002A4008161FCE781827047072310B50F240B405E
:1002B4009B009A409C40131CC90889004018016A9D
:1002C400A1430162016A0B43036210BD08B50C4BE4
:1002D40098420AD080200121C00300F0F9FC80205C
:1002E4000021C00300F0F4FC08BD8020012180033C
:1002F40000F0EEFC80200021800300F0E9FCF3E72D
:100304000054004010B501240368A343036002684D
:10031400124B13408A68120213434A681343036062
:100324000A680F4B1340036103688A691C43002366
:1003340004608360C3600B69134380228360836815
:100344001202134383600368CA681343036042685C
:10035400044B13404A691343436010BDFFE0CF00D0
:10036400FFFFFFF0FF7FFF078022002312020360DC
:1003740043608360C3600361426183617047C04628
:10038400002904D1012203689343036070470123C9
:10039400026813430360F9E7002904D10268054B9E
:1003A4001340036070478022036892011343036083
:1003B400F8E7C046FFDFFFFF0368002A02D18B4342
:1003C4000360704719430160FBE7C046002905D16B
:1003D4008022036892021343036070470268024B51
:1003E40013400360F9E7C046FFFFFDFF002904D175
:1003F4000268054B13400360704780220368D202F1
:1004040013430360F8E7C046FFFFFBFF002904D154
:10041400C268054B1340C36070478022C368120250
:100424001343C360F8E7C046FF7FFFFF10B5074BD7
:100434000C1CC16812020B40FE212140E024E400A0
:10044400224011431943C16010BDC04601F8FFFFAB
:10045400002904D10268054B1340036070478022D1
:100464000368120313430360F8E7C046FFFFF7FF76
:10047400002904D10268054B1340036070478022B1
:100484000368520213430360F8E7C046FFFFFEFF10
:10049400436889059B0A9B02890D19434160704793
:1004A400002904D14268054B134043607047802201
:1004B4004368120113434360F8E7C046FFF7FFFFA8
:1004C400002904D14268054B1340436070478022E1
:1004D4004368920413434360F8E7C046FFFFFFFDFF
:1004E400002904D14268054B1340436070478022C1
:1004F4004368520413434360F8E7C046FFFFFFFE1E
:100504004268034B09041340194341607047C046D5
:10051400FFFF00FF002905D080224368D200134367
:10052400436070474268024B13404360F9E7C0469A
:10053400FFFBFFFF002904D14268054B13404360D1
:10054400704780224368920113434360F8E7C04632
:10055400FFDFFFFF002904D14268054B13404360CD
:10056400704780224368D20113434360F8E7C046D2
:10057400FFBFFFFF002904D14268054B13404360CD
:10058400704780224368520113434360F8E7C04632
:10059400FFEFFFFF002905D18022436812021343B5
:1005A400436070474268024B13404360F9E7C0461A
:1005B400FF7FFFFFFE2380691B041840000C704777
:1005C4008069C003C00F80027047C04630B54468DC
:1005D400054D89052C40039D890D2C4323430B4372
:1005E40012041343436030BD009800FC002904D179
:1005F4000268054B13400360704780220368D203EE
:1006040013430360F8E7C046FFFFBFFF002904D18E
:100614004269054B134043617047802243691202CB
:1006240013434361F8E7C046FF7FFFFF4369002996
:1006340003D15B005B0843617047802212061343B9
:100644004361F9E7002904D14269054B1340436132
:10065400704780224369520113434361F8E7C0465F
:10066400FFEFFFFF436909051B0B1B03090D19432A
:10067400416170474269044B09041340034A114025
:10068400194341617047C046FFFF00F00000FF0FAF
:10069400002904D10268054B13400360704780228F
:1006A4000368120413430360F8E7C046FFFF7FFFAB
:1006B400002904D10268054B13400360704780226F
:1006C4000368D20413430360F8E7C046FFFFFFFB4F
:1006D400006AC0B27047C046002382B00193019003
:1006E400019BC9180191019B186802B07047C0466C
:1006F40081627047406AC0B27047C0460368002AEE
:1007040002D18B430360704719430160FBE7C04685
:1007140080690840411E8841C0B27047C16170477A
:10072400FC239B0119420AD080220368134082698A
:1007340000200A4202D0581E8341D8B27047C02319
:100744000B4203D0402203681340F0E703680B40D8
:10075400EDE7C046C1617047014B18607047C04661
:1007640000300040014B58607047C04600300040E4
:10077400014B98607047C04600300040014A024B6C
:100784001A607047AAAA000000300040014B1861AB
:100794007047C04600300040014A024B1A6070475F
:1007A400CCCC000000300040034BDB681840431EF3
:1007B4009841C0B27047C04600300040837870B59D
:1007C400002B09D11F2203781349134001229A40B8
:1007D400131C80228B5070BD032402780E4B9508A5
:1007E4002240D400FF22111C9C46C026A140AD002B
:1007F4006544B600AB598B43417889010A40A24055
:1008040013431F22AB510378134001229A40131C57
:1008140062461360DFE7C04600E100E0044A136962
:10082400002902D183431361704718431061FBE729
:1008340000ED00E0042805D00421054A13688B4329
:1008440013607047024B1A6810431860F9E7C046FA
:1008540010E000E00121114B1A680A431A6058683D
:100864000F4A02405A6018680E4A02401A6018681B
:100874000D4A02401A6058680C4A02400F205A6020
:10088400DA6A8243DA62186B094A02401A635A6BC5
:100894008A435A6300229A607047C046001002409F
:1008A4000CB8FFF8FFFFF6FEFFFFFBFFFFFFC0FFE2
:1008B400ACFEFFFF0022024B1A7018707047C0464E
:1008C40002100240F821034AC00013688B43184306
:1008D4001060704700100240064A002804D101212C
:1008E40013688B4313607047012311680B43136033
:1008F400F9E7C04600100240F821034AC000536BD8
:100904008B4318435063704700100240064A002886
:1009140004D10121536B8B43536370470123516B03
:100924000B435363F9E7C04600100240064A00280F
:1009340004D10423516B0B43536370470421536B5D
:100944008B435363F9E7C046001002400121064B74
:100954001A6A8A4304211A621A6A8A431A621A6A50
:10096400104318627047C046001002401821044B1F
:100974001A6A8A431A621A6A104318627047C04698
:1009840000100240064A002804D10121536A8B4317
:10099400536270470123516A0B435362F9E7C0461F
:1009A40000100240054B10B5054A5C6822405A60AD
:1009B4005A6811430843586010BDC04600100240F5
:1009C400FFFFC2FF064A002804D11168054B0B4003
:1009D400136070478021136849040B431360F8E7E0
:1009E40000100240FFFFFFFE0F21034AD36A8B432E
:1009F4001843D0627047C04600100240064A0028DF
:100A040004D11168054B0B401360704780211368B3
:100A140009030B431360F8E700100240FFFFF7FFE0
:100A2400014B18707047C046071002400321034A67
:100A340053688B43184350607047C046001002400F
:100A44000C20024B5B6818407047C04600100240FF
:100A5400F021034A53688B43184350607047C046E3
:100A640000100240034A044B51680B401843506085
:100A74007047C04600100240FFF8FFFF094B0A4AC6
:100A840059680A405A6059680204120C0A435A60B1
:100A9400196B064A000C0A401A631A6B1043186358
:100AA4007047C04600100240FFBFFFFFFFFEFFFF7C
:100AB4004021044B1A6B8A431A631A6B1043186360
:100AC4007047C046001002401021044B1A6B8A4341
:100AD4001A631A6B104318637047C0460010024033
:100AE4000321044B1A6B8A431A631A6B104318636D
:100AF4007047C046001002400C213B4A38B5536889
:100B0400041C0B40042B01D0082B51D03748206023
:100B14003549374D4B681B061B0FEA5C031CD34059
:100B24001A1C63604B685B055B0FEB5CDA40A260E8
:100B34000B6BDB0521D42F4BE3602B4B1B6B5B064C
:100B440024D42D4B2361284B1B6BDB0625D4274B68
:100B54002549636103230D6B2B4224D00A6B1A4091
:100B6400012A3AD00A6B1A40022A38D00A6B134081
:100B7400032B01D11D4BA36138BD4B685B0414D416
:100B84005308E360184B1B6B5B06DAD580231B020A
:100B94002361154B1B6BDB06D9D503231249606116
:100BA4000D6B2B42DAD1A261E6E79308E360C4E758
:100BB400506853688002000F851CDB0303D40F4880
:100BC40068432060A4E70F21D36A08481940013123
:100BD40002F038FA684320609AE7A061CCE78023EA
:100BE4001B02A361C8E7C0460010024000127A004D
:100BF40000000020809FD5001280000000093D0005
:100C0400024A136A184310627047C046001002403B
:100C1400064A002804D1116A054B0B401362704741
:100C24008021136A09020B431362F8E700100240A3
:100C3400FF7FFFFF064A002804D1116A054B0B40D1
:100C4400136270478021136A49020B431362F8E769
:100C540000100240FFFFFEFF044A5369002902D13D
:100C640083435361704718435061FBE7001002400F
:100C7400044A9369002902D183439361704718435E
:100C84009061FBE700100240044AD369002902D1B5
:100C94008343D36170471843D061FBE700100240DF
:100CA400044A936A002902D183439362704718432C
:100CB4009062FBE700100240044AD368002902D185
:100CC4008343D36070471843D060FBE700100240B1
:100CD400044A1369002902D18343136170471843FE
:100CE4001061FBE700100240044A1378002902D186
:100CF40083431370704718431070FBE709100240D8
:100D040043090BD10C4B1B681F2210400122824067
:100D1400101C1840431E9841C0B27047012B04D0E8
:100D2400022B05D0044B5B6BEEE7034B1B6AEBE72E
:100D3400014B5B6AE8E7C0460010024010B500238F
:100D4400A02482B00193E40001E0002808D111201E
:100D5400FFF7D6FF019B01330193019BA342F4D11A
:100D64001120FFF7CDFF431E9841C0B202B010BD61
:100D74008021034A4904536A0B4353627047C046B7
:100D840000100240034B9B681840431E9841C0B2B8
:100D94007047C04600100240014B18707047C046AF
:100DA4000A10024008B50E4B98420ED00D4B9842E3
:100DB40000D008BD802001218002FFF789FF802038
:100DC40000218002FFF784FFF3E780200121C001A6
:100DD400FFF772FF80200021C001FFF76DFFE8E7F5
:100DE40000380140004400400122F0B50D1C0368A6
:100DF40089B09343036042681E4B041C13408A6805
:100E04001343436002681C4B1A40CB6849680B4388
:100E140029690B43134303608268184B13406A69C2
:100E24001343836001A8FFF767FE154B9C421FD054
:100E3400039F23681B0400D57F002E68381C311CD7
:100E440002F000F9311C051C381C02F03FF90023A4
:100E54007608B1425B41ED1823681B0404D5094BA5
:100E64002A07520F1D401543ADB2A58109B0F0BD4C
:100E7400079FDEE7FFCFFFFFF3E9FFFFFFFCFFFF64
:100E840000380140F0FF000096239B0103600C2210
:100E94000023026143608360C36043617047C046BE
:100EA4004268064B10B51A400C684B6823438C68A3
:100EB400C96823430B431343436010BDFFF0FFFF96
:100EC4000023036043608360C3607047002904D13A
:100ED40001220368934303607047012302681343AC
:100EE4000360F9E70368002A02D18B43036070476B
:100EF40019430160FBE7C046002904D10268054B91
:100F04001340036070478022036812021343036096
:100F1400F8E7C046FF7FFFFF002904D18268054B34
:100F240013408360704780228368120113438360F7
:100F3400F8E7C046FFF7FFFF002904D14268054BDC
:100F44001340436070478022436812031343436095
:100F5400F8E7C046FFFFF7FF002904D14268054BBC
:100F640013404360704780224368D20213434360B6
:100F7400F8E7C046FFFFFBFF4368002A02D18B431A
:100F84004360704719434160FBE7C046002904D120
:100F94004268054B13404360704780224368120245
:100FA40013434360F8E7C046FF7FFFFF002904D1E5
:100FB4004268054B13404360704780224368120423
:100FC40013434360F8E7C046FFFF7FFF43691B0EEE
:100FD4001B0643614369194341617047FF22038A39
:100FE40093430382038A194301827047002904D181
:100FF4000222036893430360704702230268134389
:101004000360F9E78268034B1340836083681943E4
:1010140081607047FFFFCFFF002904D14268054B70
:101024001340436070478022436852031343436074
:10103400F8E7C046FFFFEFFF4268034B13404360ED
:101044004368194341607047FFFF9FFFC905C90DFD
:1010540001857047808CC005C00D70474368090640
:101064001B021B0A43604368194341607047C04632
:10107400002904D10268054B1340036070478022A5
:101084000368920113430360F8E7C046FFDFFFFFE4
:101094000268034B134003600368194301607047FF
:1010A400FFF7FFFF102243689343436043681943EB
:1010B4004160704720224368934343604368194367
:1010C40041607047002904D14268054B13404360D6
:1010D400704780224368D20113434360F8E7C04657
:1010E400FFBFFFFF002904D1082283689343836074
:1010F40070470823826813438360F9E7FF22038A59
:10110400090213400382038A194301827047C046CF
:10111400002904D1202283689343836070472023ED
:10112400826813438360F9E7002904D1102283689D
:101134009343836070471023826813438360F9E705
:101144008268044B490413408360836819438160B7
:101154007047C046FFFFF1FF436909061B021B0AE3
:1011640043614369194341617047C046042283685F
:10117400934383608368194381607047002904D1D5
:101184000222836893438360704702238268134377
:101194008360F9E7002904D18268054B134083601A
:1011A400704780228368D20113438360F8E7C04606
:1011B400FFBFFFFF8268034B1340836083681943BA
:1011C40081607047FF7FFFFF0268044B49051340AD
:1011D40003600368194301607047C046FFFF1FFCAA
:1011E4000268044B09041340036003681943016057
:1011F4007047C046FFFFE0FF8368002A02D18B439B
:101204008360704719438160FBE7C0468268034BE3
:10121400134083608368194381607047FFDFFFFFD9
:10122400FF2310B58CB2194001238B40240A191CEA
:10123400022C0AD0032C0AD00368002A02D18B4363
:10124400036010BD19430160FBE70430F4E7083084
:10125400F2E7C046038B002A02D18B430383704715
:10126400194389B20183FAE78268034B1340836010
:101274008368194381607047FFEFFFFFC06908402E
:10128400411E8841C0B2704701627047FF230B4082
:1012940010B51C1C01238AB2120AA340012A10D0E3
:1012A400022A11D082681340C2690020002B07D0A3
:1012B4000123090C8B401A40101C411E8841C0B206
:1012C40010BD02681340EFE742681340ECE7C046E4
:1012D4000123090C8B4003627047C046F0B585B00A
:1012E400171C0A9A061C141C0391D5180A9BE11AB0
:1012F400039BC9005918C9B2AC4208D02378301CEA
:1013040000933A1C002301F068FB0134EEE705B0BA
:10131400F0BDF0B51D1C141C85B00AAB1B78061C6F
:101324000393039AEB000092DBB2221C0F1C00F023
:1013340011F9002814D0039BE318DBB20393039B39
:101344009C420DD00B9B221C0093301C2B1C391C7F
:10135400FFF7C4FF0B9B01345B190B93E4B2EEE778
:1013640005B0F0BDF0B585B0171C0A9A061C141C14
:101374000391D5180A9BE11A039BC9005918C9B2F5
:10138400AC4208D02378301C00933A1C002301F0AF
:1013940024FB0134EEE705B0F0BDF0B51D1C141CB0
:1013A40085B00AAB1B78061C0393039AEB000092EA
:1013B400DBB2221C0F1C00F0CDF8002814D0039BD4
:1013C400E318DBB20393039B9C420DD00B9B221CBE
:1013D4000093301C2B1C391CFFF7C4FF0B9B0134FA
:1013E4005B190B93E4B2EEE705B0F0BDF0B51D1C3C
:1013F4008BB010AB1F782B1C009703900E1C141C91
:1014040000F0A8F8002849D0EB1DDBB2DB08E7198F
:1014140007930736FBB20893F3B20493049AEB08DC
:101424000593DB00D318073BDBB20993089B9C426E
:1014340034D02E1C119F119BF91A049BC900591812
:10144400C9B2072E0AD93B7803980093221C0223C1
:10145400083E01F0C2FA0137F6B2ECE7059A119B97
:101464009B1807222A40069210D000261F78099B59
:101474009919C9B2FB0703D50398221C01F0A5FAF8
:101484000136069AF3B27F089A42F0D1079A119B6B
:101494009446013463441193E4B2C7E70BB0F0BD42
:1014A400F0B51D1C8BB010AB1F782B1C009703905C
:1014B4000E1C141C00F04EF8002849D0EB1DDBB2C2
:1014C400DB08E71907930736FBB20893F3B20493DA
:1014D400049AEB080593DB00D318073BDBB20993AE
:1014E400089B9C4234D02E1C119F119BF91A049B1B
:1014F400C9005918C9B2072E0AD93B78039800933A
:10150400221C0223083E01F068FA0137F6B2ECE728
:10151400059A119B9B1807222A40069210D0002698
:101524001F78099B9919C9B2FB0703D50398221C9C
:1015340001F04BFA0136069AF3B27F089A42F0D1D1
:10154400079A119B9446013463441193E4B2C7E7AC
:101554000BB0F0BD70B5051C04A80478281C4930F4
:1015640006780230013C00781419E4B2904205D3A5
:10157400B44208D20020A24219D904E00020B442A7
:1015840015D3A24213D92A1C4A35013B2878CB181B
:101594004832DBB21278884203D30120934206D248
:1015A40002E00020934202D38B429B41584270BD1B
:1015B400411808784B780002C01880B270470020A8
:1015C40070472A3000787047293000780130C0B263
:1015D4007047031C29302A331A7803789B1A5BB2AC
:1015E400D80FC0184310D018C0B2704700787047A5
:1015F40000787047704708B5FFF7FCFF002803D058
:10160400022801D0032000E0062008BD407970477D
:1016140008B50621FFF7CCFF08BD08B50821FFF780
:10162400C7FF08BD807A7047C07A7047007B40B21C
:101634007047407B40B27047807B40B27047C07BAC
:1016440040B27047007C40B27047F8B50578041C7E
:10165400281CFFF7CFFF071C281CFFF7CCFF061C34
:10166400201CFFF7DFFF051C201CFFF7DDFFFF2117
:10167400012F00D10F21231C11331A78FF2A01D125
:10168400013303E09A780A4092199B18854202D0EC
:101694000135EDB2F1E7181BF8BD8368587870473F
:1016A4008368987870478368032018567047836866
:1016B400042018567047836858797047F0B58668D7
:1016C40085B03578041C281C0F1CFFF793FF00908D
:1016D400281CFFF790FFFF230293009B0390012B2C
:1016E40001D10F230293301CFFF79CFF051C301C13
:1016F400FFF79AFF0190301CFFF78FFF602F04D98A
:10170400002802D0361861250AE0301CFFF780FF5C
:10171400402F04D9002802D03618412500E01136A4
:10172400019B9F4207D90026631C2677E677DE7764
:101734006677A67728E0019B9D42F4D83378FF2B87
:1017440001D1013629E0BD4221D1009A611C002A51
:1017540001D0022A09D1E3777378CB77F378237722
:10176400337963777379A3770EE00F22181C104046
:101774001B090238A077637773781A401B09CA776C
:10178400E377B3781B092377301C05B0F0BDB37839
:10179400029A1340039A9B18F618019B9D42C2D0EB
:1017A4000135EDB2CAE7002370B513710B78051C3F
:1017B4000E1C141C002B04D1137053709370D3703F
:1017C40032E07F231370802353700978FFF776FF8C
:1017D4006B7F5B4223716B7FA370AB7FE37000214F
:1017E400AA7F615653B2994200DD227001216B1C1D
:1017F400DB7F6156D318DBB25AB2914200DA6370D0
:10180400013633782279002B07D02B7F281C9A18B5
:1018140022713178FFF752FFE1E7EB7F9B18DBB2CF
:1018240023716A7F9B18237170BD08B5FFF746FFCB
:10183400431E9841C0B208BD10B5041CFFF73EFF1B
:10184400031E00D0237F58B210BDF0B50F1C87B023
:10185400191C041C161CFFF731FF051E3DD0A3689C
:101864001878FFF7C8FEE37F05900393631CDA7FC3
:10187400637F0092FF18FBB20493A37F201CF61A27
:10188400F3B29E1AF6B202930499321C039BFFF73B
:1018940061FE002820D0059BED18039B0733DBB2C3
:1018A400DB080393029B9E4216D02F1C7B1B049AD9
:1018B400DBB2D9005118039AC9B2934208D23B78DB
:1018C400201C0093321C002301F087F80137EDE758
:1018D4000136AD18F6B2E5E7207F40B207B0F0BD9F
:1018E400F8B5051C1E1C6B6A0F1C141C98470219C2
:1018F400391C281C331CD2B2FFF7A7FFF8BDF0B582
:101904000F1C87B0191C041C161CFFF7D7FE051EFC
:1019140045D0A3681878FFF76EFEE37F0590039324
:10192400631CDB7F201C0293A37F0133FF18637FBA
:10193400FFB2F618F3B20493039B391C0093049A84
:10194400029BFFF707FE002828D0059BED18039B98
:101954000733DBB2DB080393029B013BFF18029BB6
:10196400FFB2FB1ADBB20293029B9F4216D02E1CDD
:10197400731B0499DBB2DA008A180399D2B28B4242
:1019840008D23378201C0093391C012301F025F878
:101994000136EDE7013F6D18FFB2E5E7207F40B265
:1019A40007B0F0BDF8B5051C1E1C6B6A171C0C1C97
:1019B4009847211A3A1C281C331CC9B2FFF79FFF11
:1019C400F8BDF0B50E1C89B0191C051C171CFFF7D7
:1019D40075FE0390002853D0AB681878FFF70BFE10
:1019E4006B1C0690DB7FEC7F04936B7F281CF61A3C
:1019F400F3B20593AB7F0133FF18059BFFB2191BAC
:101A0400049B01310093C9B23A1C231CFFF7A2FDC9
:101A1400002834D0069A039B944663440393049BA2
:101A24000734013BFF18049BFFB2FB1AE6B2DBB29A
:101A3400F6080693069B9F4221D06B461B7B059AB2
:101A44000493DB00D318DBB2039C0793E3B2079A39
:101A5400D900511A049AC9B29B1ADBB2B34208D214
:101A64002378281C00933A1C022300F0B6FF0134AB
:101A7400ECE7039B013F9B190393FFB2DAE7287F4E
:101A840040B209B0F0BDF8B5051C1E1C6B6A0F1CF2
:101A9400141C9847221A391C281C331CD2B2FFF795
:101AA40090FFF8BDF0B50E1C89B0191C051C171C5D
:101AB400FFF704FE039000284FD0AB681878FFF7B7
:101AC4009AFD6B1C0690DB7FEC7F04936B7F049A7A
:101AD400FF1AFBB20593AB7F0094D318F61A059B4B
:101AE400F6B21A1B0132D2B2281C311C049BFFF738
:101AF40031FD002830D0069A039B94466344039337
:101B0400049B0734F318E7B2DBB2FF080693069B85
:101B14009E4221D06B461B7B059A0493DB00D318AD
:101B2400DBB2039C0793E3B20799DA008A1A04999B
:101B3400D2B25B1ADBB2BB4208D22378281C0093D2
:101B4400311C032300F049FF0134ECE7039B013609
:101B5400DB190393F6B2DAE7287F40B209B0F0BD8F
:101B6400F8B5051C1E1C6B6A171C0C1C9847011940
:101B74003A1C281C331CC9B2FFF794FFF8BDF7B513
:101B8400071C1E1C7B6A151C0C1C98474519EBB2DC
:101B9400002501933378002B0BD0211C381C019AAB
:101BA400FFF753FEC0B204194519E4B2EDB2013691
:101BB400F0E7281CFEBDF7B5071C1E1C7B6A0D1C34
:101BC400141C98472D1AEBB2002501933378002B8F
:101BD4000BD0221C381C0199FFF791FEC0B20419E6
:101BE4004519E4B2EDB20136F0E7281CFEBDF7B5A5
:101BF400071C1E1C7B6A151C0C1C98472D1AEBB283
:101C0400002501933378002B0BD0211C381C019A3A
:101C1400FFF7D7FEC0B2241A4519E4B2EDB201367B
:101C2400F0E7281CFEBDF7B5071C1E1C7B6A0D1CC3
:101C3400141C98474519EBB2002501933378002B07
:101C44000BD0221C381C0199FFF72CFFC0B2241AB8
:101C54004519E4B2EDB20136F0E7281CFEBD10B51B
:101C6400041C0020032B17D8181C01F0E1F902070B
:101C74000C11201C029BFFF782FF0DE0201C029B2D
:101C8400FFF799FF08E0201C029BFFF7B0FF03E079
:101C9400201C029BFFF7C7FF10BDF7B5071C1E1CD5
:101CA4007B6A151C0C1C98474519EBB2002501935F
:101CB4003378002B0BD0211C381C019AFFF7C5FD8B
:101CC400C0B204194519E4B2EDB20136F0E7281C9C
:101CD400FEBDF7B5071C1E1C7B6A0D1C141C98471F
:101CE4002D1AEBB2002501933378002B0BD0221C64
:101CF400381C0199FFF756FEC0B204194519E4B225
:101D0400EDB20136F0E7281CFEBDF7B5071C1E1C1A
:101D14007B6A151C0C1C98472D1AEBB20025019305
:101D24003378002B0BD0211C381C019AFFF7ABFE33
:101D3400C0B2241A4519E4B2EDB20136F0E7281C0A
:101D4400FEBDF7B5071C1E1C7B6A0D1C141C9847AE
:101D54004519EBB2002501933378002B0BD0221CDC
:101D6400381C0199FFF7FCFEC0B2241A4519E4B2ED
:101D7400EDB20136F0E7281CFEBDF7B51E1C051CAC
:101D8400171C0C1CFFF78FFC241A281CFFF78FFC70
:101D9400089B3A18E4B20093281C331CD2B2211CCD
:101DA400FFF75DFFFEBDF8B506AB1E78051C171CDA
:101DB4000C1CFFF778FC241A281CFFF778FCE4B20B
:101DC4003A18331C281CD2B2211CFFF73EFD002018
:101DD400F8BD836810B5002B25D0021C011C2832E5
:101DE400147829310232002C03D15C790C701B7BEE
:101DF40008E0012C03D1DC7B0C701B7C02E05C7BD3
:101E04000C709B7B137000231278CB5652B29B1A32
:101E1400021C2B3212789BB2402A02D0DBB253430D
:101E24009B092C30037010BD08B5031C0022283315
:101E34001A70FFF7CEFF08BD08B5031C0122283332
:101E44001A70FFF7C6FF08BD08B5031C0222283329
:101E54001A70FFF7BEFF08BD08B5031C2B331970B9
:101E6400FFF7B7FF08BD014B43627047C315000875
:101E7400014B43627047C046C7150008014B4362DB
:101E84007047C046CD150008014B43627047C046F9
:101E9400D7150008F7B5051C081C0F1C01929047C4
:101EA400061C0020864221D0281C311CFFF706FCAA
:101EB4006C7F6442E4B20137381C019B98470028C8
:101EC4000BD0287F019B2418381C9847061C281C1B
:101ED400311CE4B2FFF7F2FBEDE7202E03D0687F5C
:101EE400EB7FC01800E0287F2418E0B2FEBD08B5DF
:101EF400014AFFF7CFFF08BDF115000808B5024AF3
:101F0400FFF7C8FF08BDC046F515000810B50978ED
:101F1400041CFFF7D3FB1D20205610BD10B5097813
:101F2400041CFFF7CBFB1D20205610BD70B5061C0A
:101F34000D1C00242978002907D0301CFFF7BEFBB4
:101F4400337F0135E418E4B2F4E7201C70BD70B5AA
:101F5400061C0D1C00242978002907D0301CFFF72B
:101F6400ADFB337F0135E418E4B2F4E7201C70BD07
:101F740008B5FFF718FC08BD70477047F7B50C7833
:101F8400002C04D1089B1C70099B1C701CE0041CD1
:101F94000D1C171C6A461E1CFFF705FC2978201C23
:101FA400FFF78CFB3A78637FD3183B706B46089A33
:101FB4001B7913706B4632785B78D21A32706A469A
:101FC40012789B1A099A1370F7BDF0B50F7885B093
:101FD400002F04D10A9B1F700B9B1F7026E01D1C51
:101FE4008368161C02AA5F790191041CFFF7DBFBCE
:101FF40002AB5B785BB2BB4201DA02AB5F70019B60
:10200400201C1978FFF75AFB3278637FD31833709A
:1020140002AB1B790A9A137002AB5B782A78D21A46
:102024002A7002AA12789B1A0B9A137005B0F0BD9D
:10203400836810B58B4205D0041C8160FFF7C9FE8C
:10204400014B636210BDC046C3150008F0B50F1CF8
:1020540087B0191C041C161CFFF730FB051E3DD06D
:10206400A3681878FFF7C7FAE37F05900393631C0E
:10207400DA7F637F0092FF18FBB20493A37F201CD6
:10208400F61AF3B29E1AF6B202930499321C039B19
:10209400FFF760FA002820D0059BED18039B03335B
:1020A400DBB29B080393029B9E4216D02F1C7B1B22
:1020B400049ADBB299005118039AC9B2934208D228
:1020C4003B78201C0093321C002300F096FC01375F
:1020D400EDE70136AD18F6B2E5E7207F40B207B070
:1020E400F0BDF8B5051C1E1C6B6A0F1C141C984728
:1020F4000219391C281C331CD2B2FFF7A7FFF8BD04
:10210400F7B51F1C8368061C18780D1C0192FFF795
:1021140071FA0024022815D1736A301C9847019B78
:10212400C018C3B201933B78002B0BD0291C301C80
:10213400019AFFF78BFFC0B245190419EDB2E4B25E
:102144000137F0E7201CFEBDF7B5051C101C0A384A
:102154000C1C161C01930B283BD800F069FF063AAF
:102164003A3A3A3A2F333A3A3A10281C022200F00B
:102174004AFE281C211C1A4A00F07CFE29E0184A59
:10218400281C26324F6800F075FEB0233A79211CD2
:102194001A43281C00F05EFE281C211C012200F0BA
:1021A40053FE381C291C221C00F00FFF002816D0F7
:1021B400281C211C002200F033FE0AE0084A281CD7
:1021C4002E3202E0281C064A373200F053FE01206A
:1021D40005E0281C211C321C019B00F0D5FDFEBD2E
:1021E400E34B0008F7B5051C101C0A380C1C161C20
:1021F40001930B283CD800F01BFF063B3B3B3B3BC9
:1022040030343B3B3B11281C022200F0FCFD1C4AED
:10221400281C211C423200F02DFE29E0184A281CFB
:1022240026324F6800F026FEB0233A79211C1A4367
:10223400281C00F00FFE281C211C012200F004FEC3
:10224400381C291C221C00F0C0FE002816D0281CB3
:10225400211C002200F0E4FD0AE0094A281C2E3269
:1022640002E0281C064A373200F004FE012005E093
:10227400281C211C321C019B00F086FDFEBDC046BB
:10228400E34B0008F7B5051C101C0A380C1C161C7F
:1022940001930B283CD800F0CBFE063B3B3B3B3B79
:1022A40030343B3B3B11281C022200F0ACFD1C4A9D
:1022B400281C211C423200F0DDFD29E0184A281CAC
:1022C40068324F6800F0D6FDB0233A79211C1A43D6
:1022D400281C00F0BFFD281C211C012200F0B4FDC5
:1022E400381C291C221C00F070FE002816D0281C63
:1022F400211C002200F094FD0AE0094A281C2E3219
:1023040002E0281C064A373200F0B4FD012005E043
:10231400281C211C321C019B00F036FDFEBDC0466A
:10232400E34B0008F7B5051C101C0A380C1C171CDD
:1023340001930B2861D800F07BFE0660606060604A
:10234400555960606011281C022200F05CFD2E4A81
:10235400281C211C423200F08DFD4EE02A4B281C23
:1023640026331A1C4E68009300F084FD5023327902
:102374005B4252001A43211CD2B2281C00F06AFDB1
:10238400281C211C012200F05FFDB3687279211C16
:10239400281C00F065FD281C211C002200F040FDD3
:1023A400211C009A281C00F065FD502332795B4201
:1023B400520001321A43211CD2B2281C00F04AFDFB
:1023C400281C211C012200F03FFD7279B368211CF6
:1023D4009B18281C00F044FD281C211C002200F03E
:1023E4001FFD0AE0084A281C2E3202E0281C064A77
:1023F400373200F03FFD012005E0281C211C3A1C67
:10240400019B00F00AFCFEBDE34B0008F7B5051C78
:10241400101C0A380C1C171C01930B2861D800F0FF
:1024240007FE066060606060555960606011281C9A
:10243400022200F0E8FC2E4A281C211C423200F043
:1024440019FD4EE02A4B281C68331A1C4E68009371
:1024540000F010FD502332795B4252001A43211CD4
:10246400D2B2281C00F0F6FC281C211C012200F02A
:10247400EBFCB3687279211C281C00F0F1FC281CC9
:10248400211C002200F0CCFC211C009A281C00F026
:10249400F1FC502332795B42520001321A43211C71
:1024A400D2B2281C00F0D6FC281C211C012200F00A
:1024B400CBFC7279B368211C9B18281C00F0D0FC5B
:1024C400281C211C002200F0ABFC0AE0084A281C4E
:1024D4002E3202E0281C064A373200F0CBFC0120E1
:1024E40005E0281C211C3A1C019B00F096FBFEBD54
:1024F400E34B0008012238B50023027422228360D2
:10250400C360437482748361021C031C041CFF2196
:1025140034334232197001339342FBD1231C012519
:1025240031331D70201CFFF79EFC231C221C283312
:102534001D7000234021293213705370D370024B55
:102544009170636438BDC046052B000810B50C6853
:10255400A04710BD38B5041C0D1C636C02209847BD
:10256400291C0A22201C0023FFF7F0FF051C636CC2
:1025740003209847636C00209847281C38BD38B561
:10258400041C0D1C636C02209847636C012098475F
:10259400291C201C14220023FFF7D8FF231C291C0C
:1025A40017224833201CFFF7D1FF636C00209847A3
:1025B40038BD70B5041C0E1C0220636C98470120C2
:1025C400636C9847201C311C15220023FFF7BEFFC3
:1025D400051E06D0231C201C311C17224833FFF78C
:1025E400B5FF636C00209847281C70BD07B56B4687
:1025F40007331A700F22FFF7A9FF0EBD10B51C1C7C
:10260400031C2D331A705C703222FFF79FFF10BD3C
:1026140070B51E1C04AB1D7805AB1C78031C2D3350
:102624001A705E70DD709C703B22FFF78FFF70BDE7
:1026340070B51E1C04AB1D7805AB1C78031C2D3330
:102644001A705E70DD709C702D22FFF77FFF70BDE5
:1026540013B56B46DC1D4622231CFFF777FF207859
:1026640016BD13B56B46DC1D4722231CFFF76EFF16
:10267400207816BD08B548220023FFF767FF08BD80
:1026840010B5041C6168FFF7E3FF61682070201C2B
:10269400FFF7E7FF61686070201CFFF7EBFF231C66
:1026A400E07461684833201C1722FFF74FFF10BD08
:1026B40010B5041C6168FFF74DFF002803D0201CEF
:1026C400FFF7DEFF012010BD38B50D1C041CFFF719
:1026D40011FF6560201CFFF7EBFF38BD70B5041CCB
:1026E4000D1C161CFFF706FF231C221CFE2134338D
:1026F4004232197001339342FBD16560201CAE60F5
:10270400FFF7D6FF70BDF0B5041C85B01D1C0AABE5
:102714001B780F1C01930BAB1B78161C02930CAB9C
:102724001B780393FFF7E6FE231C6A4638331279BD
:102734006760023B9E70DD701A706A46127A013B34
:102744001A706A46127B013B1A70201CFFF7B0FF17
:1027540005B0F0BDF7B5041C1D1C08AB1B780F1C9D
:10276400161C0193FFF7C6FE231C6A4636336760C6
:1027740012791E70013B1D70013B1A70201CFFF77B
:1027840097FFFEBD70B5041C0E1C151CFFF7B2FEAE
:10279400231C3F336660201C1D70FFF789FF70BD4A
:1027A400F0B5041C85B01D1C0AAB1B780F1C0193EB
:1027B4000BAB1B78161C02930CAB1B780393FFF72F
:1027C40099FE231C6A4638336760023B9E70127977
:1027D4001D70013B1A706A46127A201C1A736A46ED
:1027E400127B013B1A70FFF763FF05B0F0BDF0B533
:1027F4008DB0009312AB1B78161C019313AB1B789E
:102804000CAA029314AB1B78041C039315AB1B781E
:102814000F1C049316AB1B78059317AB1B78069318
:1028240018AB1B78079319AB1B78089319239B18D3
:10283400DB7F09931D239B18DB7F0A931CAB1B785A
:102844000B931DAB1D78FFF755FE6A46231C1278C7
:10285400393367605A706A4612791E709A706A46F4
:10286400127A013B1A716A46127B20215A716A4618
:10287400127C201C9A716A46127DDA716A46127EB5
:102884001A726A46127F023B9A706A46521812788C
:1028940024211A706A465218127828215A706A46FE
:1028A40052181278013B1A702C216A465218127879
:1028B4001A73013B1D70FFF7FBFE0DB0F0BDF0B5C0
:1028C4008DB0019312AB1B78161C029313AB1B78CB
:1028D4000CAA039314AB1B78041C049315AB1B784C
:1028E4000F1C059316AB1B78069317AB1B78079345
:1028F40018AB1B78089319AB1B78099319239B1801
:10290400DB7F0A931D239B18DB7F0B931CAB1D7885
:10291400FFF7F0FD6A46231C1279393367605A7059
:102924006A46127A20219A706A46127B1E70DA7007
:102934006A46127C033BDA716A46127D201C1A72C5
:102944006A46127E5A726A46127F9A726A46521810
:10295400127824211A706A4652181278013B1A70B0
:1029640028216A46521812782C211A736A46521882
:10297400127803331A70043B1D70FFF799FE0DB0F3
:10298400F0BD08B54168FFF7FAFD08BD836910B5CD
:10299400041C002B00D098476168201CFFF709FE37
:1029A40010BD08B50A1C4168FFF720FE08BD08B534
:1029B400416810220023FFF7C9FD08BD08B541682E
:1029C40011220023FFF7C2FD08BD10B50C1C131C17
:1029D4004168221CFFF712FE10BD70B51D1C04AB2C
:1029E4001C78031C0E1C2D3341681E705A70DD7058
:1029F4009C703B22FFF7AAFD70BD70B51D1C04AB93
:102A04001C78031C0E1C2D3341681E705A70DD7037
:102A14009C702D22FFF79AFD70BD37B506AC257862
:102A240001AC21706270A37041683C22231CE570E4
:102A3400FFF78CFD37BD313001707047031C313313
:102A440019703230090A01707047920810B5DB081A
:102A540054012343041C313423700723D2089943BF
:102A64000A433230027010BD10B5C47C282C09D141
:102A74001F24A243A143D20811439B0919433130B7
:102A840001700CE0302C02D1FFF7DFFF07E0041CDB
:102A940031342170011C333032310A70037010BD9F
:102AA400313000787047C37CFF20282B03D00320EB
:102AB400022B00D00120704710B5041CC37C3134B4
:102AC400302B04D1FF2332302370037002E0FFF770
:102AD400EAFF207010BD00207047002331300370DE
:102AE4007047C37C6D20282B00D001207047C27C26
:102AF4006D23282A00D00123313003707047C0466B
:102B0400704708B541640320884708BD7047002119
:102B1400437982685B00D318117001329A42FBD169
:102B2400704708B581604271FFF7F1FF08BD30B509
:102B340085788468521BD2B2072A03D940792418B5
:102B440007200240012090406118C2B20878002B8F
:102B540001D0104300E09043087030BD10B5837875
:102B64004A7893420AD8C378934207D30C784379BE
:102B7400A34203D90B79211CFFF7D9FF10BD70B50F
:102B8400061C0C1C8D786BB2002B03DA301C211C44
:102B9400FFF7E4FFE078032810D800F049FA0205B3
:102BA400080C2378013304E06378013305E02378CB
:102BB400013B237002E06378013B63706D00EDB26A
:102BC400002DE0D170BDF7B50190C8780C1C8D784C
:102BD40003280ED800F02CFA0205070A0026012764
:102BE40009E0012603E00026FF2704E0FF26002772
:102BF40001E00026371C6BB2002B03DA0198211C7C
:102C0400FFF7ACFF23786D00FB1823706378EDB2F7
:102C1400F3186370002DEED1F7BD70B51E1C4D681E
:102C2400322A1FD00CD8152A21D0172A28D0142ACA
:102C34002FD1281CFFF76BFF281C00F0D1F928E0E6
:102C4400462A22D0472A22D03B2A22D1281C191CEA
:102C540000F0A8F9012400281CD0281C311CFFF71F
:102C6400B2FF17E0281C191CFFF778FF11E0281C9D
:102C740000F0C5F9041E0DD0281CFFF748FF08E03A
:102C8400281C191C00F084F903E06B7900E06B78D0
:102C940033700124201C70BD08B58160427100F0BE
:102CA40037F908BD30B50724856880786918121A89
:102CB40022400124201C9040C2B20878002B01D08D
:102CC400104300E09043087030BD10B583784A7813
:102CD40093420AD8C378934207D30C784379A3422A
:102CE40003D90B79211CFFF7DDFF10BD70B5061C5D
:102CF4000C1C8D786BB2002B03DA301C211CFFF7FF
:102D0400E4FFE078032810D800F092F90205080CDB
:102D14002378013304E06378013305E02378013B31
:102D2400237002E06378013B63706D00EDB2002D07
:102D3400E0D170BDF7B50190C8780C1C8D780328DC
:102D44000ED800F075F90205070A0026012709E0EC
:102D5400012603E00026FF2704E0FF26002701E008
:102D64000026371C6BB2002B03DA0198211CFFF7F5
:102D7400ACFF23786D00FB1823706378EDB2F31871
:102D84006370002DEED1F7BD70B51E1C4D68322A5C
:102D94001FD00CD8152A21D0172A28D0142A2FD1B5
:102DA400281C00F0B5F8281C00F01AF928E0462A7F
:102DB40022D0472A22D03B2A22D1281C191C00F0F9
:102DC400F1F8012400281CD0281C311CFFF7B2FFA5
:102DD40017E0281C191CFFF778FF11E0281C00F0ED
:102DE4000EF9041E0DD0281C00F092F808E0281CEF
:102DF400191C00F0CDF803E06B7900E06B783370B8
:102E04000124201C70BD10B500238C680121A0474B
:102E140010BD10B58C6800210A1C0B1CA04710BD06
:102E240010B500238C680321A04710BD002210B503
:102E3400131C8C680421A04710BD10B501228C68B6
:102E440000230421A04710BD10B500238C68022183
:102E5400A04710BD10B500238C680521A04710BD04
:102E640010B58C680621A04710BD10B58C680721E9
:102E7400A04710BDF8B5051C0E1C171C00233C7898
:102E8400002B09D1FF2C3CD0281C311C221CFFF73D
:102E9400E1FF00282ED137E0FF2CF5D0FE2C35D0F1
:102EA400EF2C27D8DF2C06D90F22281C2240311CF6
:102EB400FFF7CAFF1EE0CF2C06D90F22281C2240A0
:102EC400311CFFF7ADFF15E0BF2C15D9311C281CB0
:102ED400FFF7ACFF0F22144024010234E4B2A4B281
:102EE400201C00F045FC281C311CFFF7A6FF201C09
:102EF40000F03EFC002305E063B2A0B2002BF7DA39
:102F0400F8E701230137BAE7002000E00120F8BD0B
:102F14000021836842799A18197001339342FBD1D6
:102F2400704730B50024251CC37880788B426541F6
:102F34008A429B4159420B1C82426441EDB22B43AD
:102F44001C40201C2940084330BD4379012099428C
:102F540003D9002093424041C0B2704738B50D1CDC
:102F64004978EA78041C8A18013AD2B2FFF7D9FFEB
:102F740000280CD029786279AB780120914206D9D7
:102F84000020CB18013BDBB29A424041C0B238BDAD
:102F940000230B7083784B704379013B8B70C378AB
:102FA400CB70704708B5CB784A78012B06D0111C3A
:102FB4000839C9B2032B05D0111C03E0131C0833D4
:102FC400111CDAB2FFF7ADFF08BD08B5031C081CDD
:102FD400111C5A799B68FFF743FF08BD0120704715
:102FE400002203788270013BC3700271704708B5F8
:102FF4000023017042700371FFF7F2FF08BD30B582
:103004008478017845780C19E4B2031C847000209C
:10301400AC420BD21A7901321A71DA785118CAB259
:10302400AA4201D36A1ED2B20120DA7030BD000078
:1030340002B4714649084900095C49008E4402BC47
:103044007047C046002934D00123002210B48842BE
:103054002CD301242407A14204D2814202D20901C3
:103064001B01F8E7E400A14204D2814202D24900E4
:103074005B00F8E7884201D3401A1A434C08A04287
:1030840002D3001B5C0822438C08A04202D3001B1D
:103094009C082243CC08A04202D3001BDC08224334
:1030A400002803D01B0901D00909E3E7101C10BC58
:1030B4007047002801D00020C04307B4024802A191
:1030C4004018029003BDC046190000000029F0D04A
:1030D40003B5FFF7B9FF0EBC4243891A1847C0462F
:1030E4007047C04670B50D4E0D4D0024AD1BAD109C
:1030F40005D0A300F35801349847A542F9D101F053
:10310400A7FD084E084D0024AD1BAD1005D0A3004B
:10311400F35801349847A542F9D170BD000000006E
:10312400000000000000000000000000F0B50F2ABD
:1031340034D9031C0B439B0734D1151C031C103DCD
:103144002D0901352D014C190E681E604E685E6014
:103154008E6810319E600E1F376810331E1F376053
:10316400A142F1D10F2345191340032B1CD900218F
:10317400043B9B0801339B0066586E50043199420E
:10318400FAD103236D181A406118002A05D00023D0
:10319400CC5CEC5401339342FAD1F0BD051C002AF7
:1031A400F5D1FAE7051CF2E71A1CF8E770B58307B6
:1031B4003ED0541E002A3AD0CEB2031C032503E0AD
:1031C400621E002C33D0141C01335A1E16702B427D
:1031D400F6D1032C23D9FF220A4015022A431504F1
:1031E4002A430F2C27D9251C103D2D0901352D010B
:1031F4005D191A605A609A6010331E1F32609D4236
:10320400F7D10F263440032C09D9231F9B0801331F
:103214009B00EB1804C5AB42FCD103221440002CE4
:1032240005D0C9B21C1919700133A342FBD170BD7A
:10323400141C031CCDE71D1CE7E7C0468022902028
:103244008021F0B5584B1205584CDA67236885B0D5
:10325400C005C900002B03D1FDF71AF8012302E0D1
:10326400FDF718F80023524852492360FEF70EF880
:10327400002800D191E04E48FDF7ECFEC0B24E4C60
:103284007B2803D101234D4A236050E03B280FD112
:1032940000220121494B21601A60494B49481C68AE
:1032A4008C4202D11A60046077E00260196074E015
:1032B4002368454F002B6BD07D283AD13B68002B07
:1032C4006BD0424B42491B6842481A1C0193FFF7DA
:1032D4002DFF414E4149336841481A1C0293FFF7C0
:1032E40025FF404D40492B6840481A1C0393FFF7C3
:1032F4001DFF8022002152003D48FFF757FF0023A5
:10330400344A01993B605354354A0299336053540B
:10331400364A03992B60535401212C4A23601360CD
:10332400344A1160254A1360254A1360254A136004
:1033340033E0234B196800290AD0274B1A68802AE6
:1033440001D100221A601A68511C1960234B0CE049
:103354001C4B1A68002A0DD0224B1A68802A00D10F
:1033640019601A68511C19601F4B98543B6801334B
:103374003B6012E0114B1B68002B09D0134B1968FA
:10338400402900D11A601A68511C1960104BECE7EF
:103394003B685A1C3A60164AD0548022164B1205D8
:1033A4001A6005B0F0BDC04604E100E0080A002040
:1033B4000038014005010500280B0020180A0020F0
:1033C400700C0020240B00206C0C00201C0A002030
:1033D4002C0C0020400D0020100A0020AC0B002013
:1033E400740C00200C0A00202C0B00209C0D0020E3
:1033F400240A0020140A002000E100E0024A1368B5
:10340400013313607047C046200A002010B58020A5
:103414009024C001E4050121FDF72AFC0122201CAF
:103424000321FCF741FF201C0C490D4CFCF79AFECC
:103434000C48FDF7C3F9201C0B49FDF7D5FC201CF3
:103444000A490122FDF7ECFE8022094B12051A609D
:10345400201C0121FDF73AFD10BDC0466801002083
:1034640000380140700300204801002005010500D8
:1034740000E100E037B5011C4023154A154C4039E2
:1034840000930192051CC9B2201C0022FDF7AEFF77
:10349400114B1B68012B19D1201C1049FEF7C8FDE4
:1034A40014220F4B291C201CFEF769FB201C0D491C
:1034B400FEF7BEFD291C28220B4B201CFEF75FFBE8
:1034C400201C291C3C22094BFEF759FB37BDC04682
:1034D40070010020F40C0020140A0020F8390008C0
:1034E400400D002097440008740C00209C0D00201F
:1034F40038B500F069F800F0C3F88020012180029B
:10350400FDF7AAFB90202549C005FCF72BFE0021FE
:10351400234B244A1960244B1B68DB0893420DD8C3
:10352400C024224A013B22485360036A24061B023A
:103534001B0A23430362072391601360FFF766FFAE
:1035440090208021C005C900FCF7A2FE1948FDF7B0
:1035540003F90020FDF706F91748FDF709F9FDF70F
:103564000DF9FDF719F9154C1549164A201CFFF7FA
:10357400B5F8201CFFF7A0FAC025201CFFF701FABC
:10358400FDF7FCF8281CFFF775FF201CFFF7FEF978
:103594000028F5D1013DEDB2EFE7C04660010020FF
:1035A400200A0020FFFFFF008403002010E000E059
:1035B40000ED00E055550000FFFF0000F40C002072
:1035C400000100209937000813B501200F24254B72
:1035D4001A6802431A605968234A0A405A601968F3
:1035E400224A0A401A601968214A0A401A60596836
:1035F400204A11405960D96AA143D9621C6B1E4903
:1036040021401963596B814359630021112099604A
:1036140000910191194908605968596059685960C5
:1036240059680A40A0215A605A6889030A438021D4
:103634005A601A6849040A4380211A608904186888
:10364400084A0842FBD0032051688143022051609C
:103654005168014351600C215A680A40082AFBD181
:1036640013BDC046001002400CB8FFF8FFFFF6FE81
:10367400FFFFFBFFFFFFC0FFACFEFFFF0020024087
:103684000C2370B5124D134E6A681340042B01D0FD
:10369400082B02D0104B336011E06C686B68A402F5
:1036A400240F0234DB0301D40C4806E00F23E96A3B
:1036B400094819400131FFF7C5FC444334606B6885
:1036C400074A1B061B0FD35C3268DA40326070BDB8
:1036D400001002408403002000127A0000093D001B
:1036E400730300200F498A681202120A131E8342D0
:1036F40003D24B681B021B0A9B18181A824209D377
:103704008B681B021B0A83420AD99342F8D907E04B
:10371400934205D88B681B021B0A8342FAD8F7E749
:103724007047C04610E000E038B5051C074B5C68E4
:103734002402A40AA54204D9201C2D1BFFF7D2FFA2
:10374400F8E7281CFFF7CEFF38BDC04610E000E0C4
:10375400054B10B50549041C1868FFF773FC60435A
:10376400FFF7E2FF10BDC0468403002040420F0073
:1037740008B5FA239B005843FFF7EAFF08BD08B5D4
:103784000120FFF7E5FF08BD08B50A20FFF7E0FFB9
:1037940008BD000037B5481E06286AD81D1C141C35
:1037A400FFF746FC040767671119190000F06AF86F
:1037B4000EE0314B002A01D11A6001E040221A6068
:1037C400FFF7E2FF55E02C4B111C187800F0A0F82D
:1037D400FFF7D5FF4DE0802128480902FCF798FF48
:1037E4000128F8D080239B0100938023234878216B
:1037F40001225B04FCF7EAFE20480221FCF788FF63
:103804000028F9D01C4B1D481978FCF771FF1B48A0
:103814008021FCF77DFF0028F9D00023009380234A
:10382400621CD2B2154878219B04FCF7CFFE1348E2
:103834000221FCF76DFF0028F9D02C19A5420BD00A
:1038440029780E48FCF754FF0C480221FCF760FF6E
:103854000028F9D00135F1E78023DB0100938023B0
:103864000648782100229B04FCF7B0FE6420FFF791
:103874006FFF01203EBDC0461C0E002000540040D6
:1038840070470000802030B5C0028BB00121FDF7E5
:10389400E3F980201A4C01218003FDF7F5F910208B
:1038A400FDF712F9201C06210122FCF7FDFC201C67
:1038B40007210122FCF7F8FC01A90A1C114B21CBBA
:1038C40021C2201CFCF74EFC201C0621FCF7BAFC8C
:1038D400201C0721FCF7B6FC0B4B0C4C0393002374
:1038E400201C03A904930593069307930893099353
:1038F400FCF708FD201C0121FCF742FD0BB030BD94
:1039040000040048F03900080A0210000054004086
:1039140037B5051C0C1C80211E480902FCF7F8FE73
:103924000128F8D080239B01009380231948782133
:1039340001225B04FCF74AFE16480221FCF7E8FE6C
:103944000028F9D01348291CFCF7D2FE1148802125
:10395400FCF7DEFE0028F9D00023009380230D48F5
:10396400782101229B04FCF731FE0A480221FCF76E
:10397400CFFE0028F9D00748211CFCF7B9FE054802
:103984002021FCF7C5FE0028F9D002482021FCF7CD
:10399400C5FE37BD005400400D488546002103E0B4
:1039A4000C4B5B58435004310B480C4B42189A4261
:1039B400F6D30B4A02E0002313600432094B9A4207
:1039C400F9D3FFF701FEFFF78DFBFFF791FDFEE74B
:1039D400001000206C4C0008000000208803002028
:1039E40088030020200E0020FEE70000C000000035
:1039F40002030101000C1500FC0E03750771207F02
:103A0400FC12FC10FC0000000C0000020E0E0C0462
:103A140000C0C0C0C0C0C0C0C0C0C00000C0C0069C
:103A240006060C020ACCCCCCCCCCCC0A0A140C0072
:103A34000433003300FFC0FFC033003300FFC0FF76
:103A4400C0330033000A12240C00FE0C000C003FAB
:103A5400007F80EDC0CCC0CC00EC007F003F800D27
:103A6400C00CC0CCC0EDC07F803F000C000C000A2D
:103A74000E1C0C00003FC07FC0CCC0CDC0CF80CF97
:103A8400007F003F803CC07CC0ECC0CCC0C780C37A
:103A9400000A0E1C0C00003E007F00E300C700CEAD
:103AA40000FC0078007800FCC0CFC0C780E7807FAE
:103AB400C03CC00206060C040AC0C0C0C0C0C00698
:103AC40012120C02FE0C1C3870E0C0C0C0C0C0C092
:103AD400C0C0E070381C0C0612120C02FEC0E0706C
:103AE400381C0C0C0C0C0C0C0C0C1C3870E0C00AB0
:103AF4000A140C00040C000C00CCC0FFC03F003FB3
:103B040000FFC0CCC00C000C000A0A140C00020C0C
:103B1400000C000C000C00FFC0FFC00C000C000CDB
:103B2400000C000509090C02FC307878381838704C
:103B3400E0400602020C0206FCFC0404040C03012F
:103B440060F0F0600B14280C00FC0060006000C002
:103B540000C00180018003000300060006000C0081
:103B64000C00180018003000300060006000C00035
:103B7400C0000A0E1C0C00003F007F80E1C0C1C0E1
:103B8400C3C0C7C0CEC0DCC0F8C0F0C0E0C0E1C054
:103B94007F803F000A0E1C0C00000C000C007C000F
:103BA4007C000C000C000C000C000C000C000C0041
:103BB4000C00FFC0FFC00A0E1C0C00003F007F80F9
:103BC400E1C0C0C000C001C0038007000E001C009B
:103BD40038007000FFC0FFC00A0E1C0C00003F003C
:103BE4007F80E1C0C0C000C001800F000F8001C011
:103BF40000C0C0C0E1C07F803F000A0E1C0C000062
:103C0400030007000F001F003B007300E300C30024
:103C1400FFC0FFC0030003000FC00FC00A0E1C0C3E
:103C24000000FFC0FFC0C000C000FF00FF8001C053
:103C340000C000C000C0C0C0E1C07F803F000A0EC9
:103C44001C0C00003F007F00E000C000FF00FF806C
:103C5400C1C0C0C0C0C0C0C0C0C0E1C07F803F0000
:103C64000A0E1C0C0000FFC0FFC000C000C000C052
:103C740001C0038007000E000C000C000C000C00B7
:103C84000C000A0E1C0C00003F007F80E1C0C0C085
:103C9400C0C061803F007F80E1C0C0C0C0C0E1C03F
:103CA4007F803F000A0E1C0C00003F007F80E1C0B3
:103CB400C0C0C0C0C0C0C0C0E0C07FC03FC000C062
:103CC40001C03F803F00040A0A0C030160F0F06069
:103CD400000060F0F060050F0F0C02FC30787830C3
:103CE400000030787838183870E040080E0E0C0266
:103CF4000003070E1C3870E0E070381C0E07030A3E
:103D0400060C0C0004FFC0FFC000000000FFC0FF51
:103D1400C0080E0E0C0200C0E070381C0E07070E1F
:103D24001C3870E0C00A0E1C0C00003F007F80E1CC
:103D3400C0C0C000C001C0038007000E000C00001A
:103D44000000000C000C000A0E1C0C00003F007F59
:103D540080E1C0C0C0C7C0CFC0CCC0CCC0CFC0C73A
:103D640080C000E0007FC03FC00A0E1C0C00000CA5
:103D7400001E001E003300330061806180C0C0FF5C
:103D8400C0FFC0C0C0C0C0C0C0C0C00A0E1C0C0070
:103D940000FF00FF80C1C0C0C0C0C0C180FF00FFE1
:103DA40080C1C0C0C0C0C0C1C0FF80FF000A0E1CDB
:103DB4000C00003F007F80E1C0C0C0C000C000C054
:103DC40000C000C000C000C0C0E1C07F803F000A46
:103DD4000E1C0C0000FF00FF80C1C0C0C0C0C0C0EA
:103DE400C0C0C0C0C0C0C0C0C0C0C0C1C0FF80FF90
:103DF400000A0E1C0C0000FFC0FFC0C000C000C0C1
:103E040000C000FF00FF00C000C000C000C000FFF1
:103E1400C0FFC00A0E1C0C0000FFC0FFC0C000C0E1
:103E240000C000C000FF00FF00C000C000C000C010
:103E340000C000C0000A0E1C0C00003F007F80E19F
:103E4400C0C0C0C000C000C3C0C3C0C0C0C0C0C0E8
:103E5400C0E1C07F803F000A0E1C0C0000C0C0C03F
:103E6400C0C0C0C0C0C0C0C0C0FFC0FFC0C0C0C0D0
:103E7400C0C0C0C0C0C0C0C0C00A0E1C0C0000FF3F
:103E8400C0FFC00C000C000C000C000C000C000C5B
:103E9400000C000C000C00FFC0FFC00A0E1C0C003C
:103EA4000000C000C000C000C000C000C000C000CE
:103EB400C0C0C0C0C0C0C0E1C07F803F000A0E1CAB
:103EC4000C0000C1C0C380C700CE00DC00F800F0C5
:103ED40000F800DC00CE00C700C380C1C0C0C00A27
:103EE4000E1C0C0000C000C000C000C000C000C018
:103EF40000C000C000C000C000C000C000FFC0FF80
:103F0400C00A0E1C0C0000C0C0E1C0F3C0FFC0DE3C
:103F1400C0CCC0CCC0CCC0C0C0C0C0C0C0C0C0C079
:103F2400C0C0C00A0E1C0C0000C0C0E0C0F0C0F845
:103F3400C0DCC0CEC0C7C0C3C0C1C0C0C0C0C0C048
:103F4400C0C0C0C0C00A0E1C0C00003F007F80E14E
:103F5400C0C0C0C0C0C0C0C0C0C0C0C0C0C0C0C05D
:103F6400C0E1C07F803F000A0E1C0C0000FF00FF70
:103F740080C1C0C0C0C0C0C1C0FF80FF00C000C0BD
:103F840000C000C000C000C0000A10200C00FE3FAA
:103F9400007F80E1C0C0C0C0C0C0C0C0C0C0C0C03D
:103FA400C0C0C0CCC0EFC07F803F8001C000C00A49
:103FB4000E1C0C0000FF00FF80C1C0C0C0C0C0C107
:103FC40080FF00FF80C1C0C0C0C0C0C0C0C0C0C0AE
:103FD400C00A0E1C0C00003F007F80E1C0C0C0C0BE
:103FE40000E0007F003F8001C000C0C0C0E1C07F8E
:103FF400803F000A0E1C0C0000FFC0FFC00C000C28
:10400400000C000C000C000C000C000C000C000C4C
:10401400000C000C000A0E1C0C0000C0C0C0C0C084
:10402400C0C0C0C0C0C0C0C0C0C0C0C0C0C0C0C08C
:10403400C0E1C07F803F000A0E1C0C0000C0C0C05D
:10404400C0C0C0C0C0C0C0C0C06180618033003384
:10405400001E001E000C000C000A0E1C0C0000C008
:10406400C0C0C0C0C0C0C0C0C0C0C0CCC0CCC0CC28
:10407400C0DEC0FFC0F3C0E1C0C0C00A0E1C0C000B
:1040840000C0C0C0C0C0C0E1C073803F001E001E9D
:10409400003F007380E1C0C0C0C0C0C0C00A0E1C95
:1040A4000C0000C0C0C0C0C0C0C0C0C0C0E1C0736C
:1040B400803F001E000C000C000C000C000C000AD9
:1040C4000E1C0C0000FFC0FFC000C001C00380072D
:1040D400000E001C0038007000E000C000FFC0FFAC
:1040E400C00412120C04FEF0F0C0C0C0C0C0C0C0B6
:1040F400C0C0C0C0C0C0C0F0F00B14280C01FCC08C
:1041040000C0006000600030003000180018000C8F
:10411400000C00060006000300030001800180007B
:10412400C000C0006000600412120C02FEF0F03007
:1041340030303030303030303030303030F0F00A21
:10414400060C0C00080C001E003F007380E1C04008
:10415400800C02040C00FCFFF0FFF00404040C02C9
:104164000CC0E070300A0A140C00003FC07FC0E0AD
:10417400C0C0C0C0C0C1C0C3C0E7C07EC03CC00A8C
:104184000E1C0C0000C000C000C000C000FF00FFF7
:1041940080C1C0C0C0C0C0C0C0C0C0C1C0FF80FF1B
:1041A400000A0A140C00003F007F80E1C0C0C0C0B8
:1041B40000C000C000E0007FC03FC00A0E1C0C001D
:1041C4000000C000C000C000C03FC07FC0E0C0C04D
:1041D400C0C0C0C0C0C0C0E0C07FC03FC00A0A1495
:1041E4000C00003F007F80E1C0C0C0FFC0FFC0C022
:1041F40000E0007FC03FC0080E0E0C02000F1F3805
:1042040030FCFC30303030303030300A0E1C0C00C2
:10421400FC3FC07FC0E0C0C0C0C0C0C0C0C0C0E0E0
:10422400C07FC03FC000C001C03F803F000A0E1CD9
:104234000C0000C000C000C000C000FF00FF80C12F
:10424400C0C0C0C0C0C0C0C0C0C0C0C0C0C0C00624
:104254000E0E0C020030300000F0F0303030303000
:1042640030FCFC0612120C00FC0C0C00003C3C0C54
:104274000C0C0C0C0C0C0C0C1CF8F00A0E1C0C0096
:1042840000C000C000C000C000C380C700CE00DC76
:1042940000FC00FE00E700C380C1C0C0C0060E0ED3
:1042A4000C0200F0F030303030303030303030FC40
:1042B400FC0A0A140C0000FF00FF80CDC0CCC0CC67
:1042C400C0CCC0CCC0CCC0CCC0CCC00A0A140C003A
:1042D40000CF00DF80F9C0F0C0E0C0C0C0C0C0C0E3
:1042E400C0C0C0C0C00A0A140C00003F007F80E1B7
:1042F400C0C0C0C0C0C0C0C0C0E1C07F803F000A11
:104304000E1C0C00FCFF00FF80C1C0C0C0C0C0C0B8
:10431400C0C0C0C1C0FF80FF00C000C000C000C05A
:10432400000A0E1C0C00FC3FC07FC0E0C0C0C0C02F
:10433400C0C0C0C0C0E0C07FC03FC000C000C0005B
:10434400C000C00A0A140C0000CF00DF80F9C0F0DE
:10435400C0E000C000C000C000C000C0000A0A14D1
:104364000C00003FC07FC0C000C0007F003F800041
:10437400C000C0FF80FF00080E0E0C020030303079
:1043840030FCFC3030303030381F0F0A0A140C0077
:1043940000C0C0C0C0C0C0C0C0C0C0C1C0C3C0E7AE
:1043A400C07EC03CC00A0A140C0000C0C0C0C0C01B
:1043B400C061806180338033001E001E000C000A3F
:1043C4000A140C0000CCC0CCC0CCC0CCC0CCC0CC37
:1043D400C0CCC0CCC07F8033000A0A140C0000C0DB
:1043E400C0E1C073803F001E001E003F007380E1E7
:1043F400C0C0C00A0E1C0C00FCC0C0C0C0C0C0C0FD
:10440400C0C0C0C0C0C0C0E0C07FC03FC000C001C9
:10441400C03F803F000A0A140C0000FFC0FFC00325
:104424008007000E001C0038007000FFC0FFC006AB
:1044340016160C02FC0C1C3830303030303070E072
:10444400E070303030303030381C0C0212120C0462
:10445400FEC0C0C0C0C0C0C0C0C0C0C0C0C0C0C01A
:10446400C0C0C00616160C02FCC0E07030303030FC
:104474003030381C1C3830303030303070E0C00AF6
:1044840004080C000630C07CC0CF80C300000000CC
:104494000C0000001A19F7FA0B023D0515207FFCE9
:1044A4000FFC0EFC000000040000020D0D050100CD
:1044B4004040404040404040404000C08005060627
:1044C400080107C8C848484848080A0A08010112F0
:1044D40014147F2428FE485090070E0E0801FE1085
:1044E400107E9490F0381C149494F810100B0B1652
:1044F4000D010060C0A18091009200A60065C00A71
:104504002012203220222041C00B0D1A0C01001C65
:10451400002200220022002400380031E0D8809CD0
:10452400808E80870087807CE0020606050107C034
:10453400C0404040400311110601FD2040408080EE
:10454400808080808080808080404020031111061C
:1045540001FD8040402020202020202020202020F9
:104564004040800608080801063010A47878A4109A
:1045740030070606070002101010FE101002050591
:104584000401FD40C0404080050101060104F80219
:104594000202040100C0800811110800FD0102029A
:1045A4000604040C080810103020206040C0060BDC
:1045B4000B08010030488484848484848448300651
:1045C4000B0B08010010F010101010101010107CCC
:1045D400060B0B0801001C64440408081020444422
:1045E400FC060B0B07000038444404180C040404B4
:1045F4008C78070B0B080000040C0C14242444FED4
:1046040004041E060B0B0801007C4040407884041F
:1046140004048478060B0B0801000C3040C0B8C4B5
:104624008484844838070B0B080100FE84040808BE
:10463400081010202060070B0B09010078C4C4C4C3
:10464400783CC28282827C060B0B08010038C88445
:104654008484847C040810E0020808040100C080FB
:1046640000000000C080020B0B0401FDC0800000AC
:10467400000040C04040800606060801020438E0FD
:10468400C0380C060404080103FC0000FC060606FE
:10469400080102C0700C1C7080060D0D0801003862
:1046A4004484840408102020200030200D0F1E0FA5
:1046B40001FD07C018602010401087888888908802
:1046C40090889088909089904EE0601030200FC0C0
:1046D4000B0B160B000004000C000E00120012005D
:1046E40013001F00210021802080F1E0080B0B0A39
:1046F4000100FC4242447E4341414143FE080B0B0E
:104704000A01003E4280808080808080433C090B07
:10471400160B0100FC0043004100408040804080B3
:104724004080408041004300FC00070B0B0901005E
:10473400FE4240407C4040404242FE070B0B0901D0
:1047440000FE4240407C4040404040F00A0B160BC3
:1047540001000F003180400080008000800083C091
:104764008080408060801F000A0B160C0100E1C0AD
:1047740040804080408040807F80408040804080F6
:104784004080E1C0030B0B050100E0404040404085
:1047940040404040E0060E0E06FEFD3C08080808B6
:1047A4000808080808080890E0090B160A0100E741
:1047B4008046004C004800500070005800480044F7
:1047C400004600E380070B0B090100E04040404035
:1047D4004040404242FE0D0B160F0100E03860607D
:1047E400606050A050A058A049204D30463046305B
:1047F400E4780A0B160C0100C1C060807080508000
:1048040048804C804680428041804180E080090B92
:10481400160B01001E006300810080808080808070
:1048240080808080410062003C00070B0B0901007E
:10483400FC424242425C60404040F00A0E1C0B01C4
:10484400FD1E0063008100808080808080808080E5
:1048540080410062003C000600034001C0090B16C1
:104864000A0100FC0046004200420044004800786F
:10487400004C0046004200E380070B0B0901003C9A
:10488400C68080701C060282C4F8090B160A000058
:10489400FF808880880008000800080008000800DD
:1048A400080008001C000A0B160C0100E1C040803F
:1048B4004080408040804080408040804080210093
:1048C4001E000B0B160C0000F0E02040208030800E
:1048D40010801900090009000E00060004000F0BE7
:1048E400160F0000F11E210821882288328832C860
:1048F400145014701430183008200B0B160B0000E1
:10490400F3C0208031001A000E0004000E001300D2
:10491400318020C0F1E00A0B160B0000E1C03080AA
:10492400110019000A000E00040004000400040031
:104934000E00080B0B090100FF86840C18103020B0
:1049440041C1FF0411110601FDF080808080808048
:10495400808080808080808080F00811110800FDB4
:10496400C04060202030101008080C040406020225
:10497400010411110500FDF010101010101010109A
:1049840010101010101010F007090909010510305B
:1049940038284C4C4486820701010801FEFE0404B9
:1049A40004060009C06020100708080801003C4400
:1049B400841C64848C76080E0E09000040C04040BC
:1049C40040404E7341414141423C06080808010001
:1049D4003C4480808080C478070E0E0901000C04DA
:1049E400040404043CC4848484844C7606080808C3
:1049F4000100384484FC80804478060E0E060100D1
:104A04001C2840404040F8404040404040F0090CE1
:104A1400180800FC3D80C2008200C2007C00200017
:104A240070003F00C100810082007C00080E0E0A65
:104A3400010040C0404040404E726242424242E760
:104A4400030C0C050100C0C0000040C040404040C1
:104A540040E005101005FEFC1818000008180808AE
:104A640008080808080810E0080E0E09010040C0F4
:104A7400404040404F485070504844E7030E0E05F4
:104A8400010040C04040404040404040404040E081
:104A94000D08100F0100CE70739062104210421086
:104AA40042104210E7380808080A01004ED2624258
:104AB400424242E707080809010038C48282828220
:104AC4004438080C0C0A01FCCE7341414141625C3C
:104AD400404040E0080C0C0901FC3E428282828284
:104AE400463A0202020F060808070100DC6440404F
:104AF400404040E00508080701007088806018887D
:104B040088F0050B0B060100404040F8404040404F
:104B14004040780808080A0100C642424242424620
:104B24003B090810090000F38062002200320014DF
:104B34000014001C0008000D08100D0000F238627B
:104B4400202720252035A018C018C010C00908103F
:104B5400090000F7802200140018001C002600231E
:104B640000F780090C180900FCF380610022003270
:104B740000140014001C00080008001000B000E03D
:104B840000060808080100FC8818102040C4FC0531
:104B940011110601FD1820202020202020C02020F3
:104BA4002020202020180113130402FC8080808020
:104BB400808080808080808080808080808080056C
:104BC40011110600FD40A0202020202020182020C4
:104BD4002020202040C008020209000439CEFFFF33
:104BE400D0FFE0FFC1FFD1AED580A83FD300408DF8
:104BF400142000A1C8DA1281CFD9F1DB402EA4A67B
:104C0400AFFFD0FFFEFFE0FFD11000FFFEFFE0FF8B
:104C1400D1AEFFD0FFFEFFE0FFD1AFFF32FFD0FFE8
:104C2400FEFFD0FFE0FFC1FFD1AED580A83FD30087
:104C3400408D142002A1C8DA1281CFD9F1DB402EB5
:104C4400A4A6AFFFD0FFFEFFE0FFD11002FFFE00DD
:104C5400F8B5C046F8BC08BC9E467047F8B5C046D7
:084C6400F8BC08BC9E46704735
:104C6C000000000001020304010203040607080906
:104C7C001124000834000020E12F00081124000842
:104C8C0034000020E12F000811240008340000201B
:104C9C00E12F000810400000008000008803002075
:104CAC00892200084C000020E12F00080840000079
:104CBC000080000088040020892200086400002085
:104CCC00E12F0008084000000080000008050020CB
:104CDC00892200087C000020E12F00080840000019
:104CEC00008000008805002029230008AC0000206B
:104CFC00E12F000829230008AC000020E12F000858
:104D0C0029230008AC000020E12F0008104000000F
:104D1C000080000008060020E9210008C4000020E3
:104D2C00E12F000808400000008000000807002068
:104D3C00E9210008DC000020E12F000808400000F9
:104D4C000080000088070020E9210008F400002002
:104D5C00E12F000808400000008000000808002037
:104D6C004D2100080C010020E12F00080840000034
:104D7C0000800000880800204D210008240100203C
:104D8C00E12F000808400000008000000809002006
:104D9C004D2100083C010020E12F000808400000D4
:104DAC000080000088090020802500000000000021
:104DBC0000000000000000000400000000000000E3
:104DCC0000070000010300000800000002030001BE
:104DDC0000000000000000000000000000000000C7
:104DEC0000000000000000000000000000000000B7
:104DFC000000FE00000000000080FF010000000029
:104E0C0000C0FF070000000000E0FF0700000000EA
:104E1C0000F0FF0F0000000000F8FF1F0000000072
:104E2C0000F8FF1F0000000000FC1F1E0000000027
:104E3C0000FCEF1D0000000000FCF73A00001E0013
:104E4C0000D6FB3C0000E10000BE7B3C00000107EB
:104E5C0000AF7F3A0000010880CF2B7F00002908AB
:104E6C0080EFFB7B0080000980E7CF760080100983
:104E7C0000FB7F730080440900F3CFFC0040100559
:104E8C0000FF3D9E00408204007EC7870040A804BE
:104E9C0000C6F18001208202003C7E0001205002FD
:104EAC0000E20700033E450200FE0114822150017E
:104EBC00003E0024661022010004002024F027018B
:104ECC00000400289C0F3C01000400480806B000B8
:104EDC00000400404801A000000800509000C000F1
:104EEC0000080050800040000008009000104000B6
:104EFC00000800A000004000001000A000004000CE
:104F0C00002000200700400000200020100020009E
:104F1C00004000201F10200000C000E002203000E4
:104F2C0000800080010010000000016003000800F8
:104F3C000000030000000C0000000600000006004A
:104F4C000000040000A00100000018000070000028
:104F5C0000003000002600000000E000802500006A
:104F6C0000008007E8240000000000FC1F2800005F
:104F7C00000000A0802A0000000000A0C04E00002D
:104F8C00000000A0C0400000000000A00043000092
:104F9C00000000A0008E0000000000A200700000C5
:104FAC00000080AD00000000000000B10000000017
:104FBC0000000082000000000000008C00000000D7
:104FCC00000000780000000000000040000000001D
:104FDC001B00010000000000000000010203040699
:084FEC0007080900006CDC025B
:040000050800399D19
:00000001FF
