:020000040800F2
:100000000010002055100008A5100008A5100008D9
:1000100000000000000000000000000000000000E0
:10002000000000000000000000000000A510000813
:100030000000000000000000A5100008A90D000845
:10004000A5100008A5100008A5100008A5100008BC
:10005000A5100008A5100008A5100008A5100008AC
:10006000A5100008A5100008A5100008A51000089C
:10007000A5100008A5100008A5100008A51000088C
:10008000A5100008A510000800000000A510000839
:10009000A5100008A5100008A5100008A51000086C
:1000A000A5100008A5100008A5100008A51000085C
:1000B000950D000800000000A510000800000000D9
:0400C0005FF808F1EC
:1000C40008B59023DB05984217D0224B98421FD0E5
:1000D400214B984227D0214B98422FD0204B984255
:1000E40000D008BD80200121C00300F05BFD80200A
:1000F4000021C00300F056FDF3E7802001218002B7
:1001040000F050FD80200021800200F04BFDE8E764
:1001140080200121C00200F045FD80200021C002A2
:1001240000F040FDDDE780200121000300F03AFDEE
:1001340080200021000300F035FDD2E7802001215A
:10014400400300F02FFD80200021400300F02AFD31
:10015400C7E7C0460004004800080048000C0048F7
:1001640000140048F0B544465F4656464D46F0B488
:1001740003248C4683B00968002200230127A0468B
:1001840003E001330232102B27D03C1C0D1C9C4091
:100194002540A542F5D164462479A346013C012CAF
:1001A40022D944469440E44301940568019C0133F8
:1001B4002C4004605C46944005682C4345469540B9
:1001C4000460C468AC43C4606446E479C568944080
:1001D4002C43C4600232102BD7D103B03CBC9046F0
:1001E4009946A246AB46F0BD8468A1464446944075
:1001F4004E46E4432640866086680194B2466646CD
:1002040076799640B14656464C46264386608488A5
:10021400261CAE4386808488A1466446A5794C4654
:100224009D402543ADB28580BFE7C046044B022202
:1002340003600023427103718371C3717047C04628
:10024400FFFF0000802382B05B020193019B0B43FC
:100254000193019BC361C161019BC361C3690193A4
:10026400C369019302B07047008A0840411E884167
:10027400C0B27047008A80B27047C046808A084086
:10028400411E8841C0B27047808A80B27047C04620
:100294008161704701857047002A01D1018570474B
:1002A4008161FCE781827047072310B50F240B405E
:1002B4009B009A409C40131CC90889004018016A9D
:1002C400A1430162016A0B43036210BD08B50C4BE4
:1002D40098420AD080200121C00300F07BFC8020DA
:1002E4000021C00300F076FC08BD802001218003BA
:1002F40000F070FC80200021800300F06BFCF3E729
:100304000054004010B501240368A343036002684D
:10031400124B13408A68120213434A681343036062
:100324000A680F4B1340036103688A691C43002366
:1003340004608360C3600B69134380228360836815
:100344001202134383600368CA681343036042685C
:10035400044B13404A691343436010BDFFE0CF00D0
:10036400FFFFFFF0FF7FFF078022002312020360DC
:1003740043608360C3600361426183617047C04628
:10038400002904D1012203689343036070470123C9
:10039400026813430360F9E7002904D10268054B9E
:1003A4001340036070478022036892011343036083
:1003B400F8E7C046FFDFFFFF0368002A02D18B4342
:1003C4000360704719430160FBE7C046002905D16B
:1003D4008022036892021343036070470268024B51
:1003E40013400360F9E7C046FFFFFDFF002904D175
:1003F4000268054B13400360704780220368D202F1
:1004040013430360F8E7C046FFFFFBFF002904D154
:10041400C268054B1340C36070478022C368120250
:100424001343C360F8E7C046FF7FFFFF10B5074BD7
:100434000C1CC16812020B40FE212140E024E400A0
:10044400224011431943C16010BDC04601F8FFFFAB
:10045400002904D10268054B1340036070478022D1
:100464000368120313430360F8E7C046FFFFF7FF76
:10047400002904D10268054B1340036070478022B1
:100484000368520213430360F8E7C046FFFFFEFF10
:10049400436889059B0A9B02890D19434160704793
:1004A400002904D14268054B134043607047802201
:1004B4004368120113434360F8E7C046FFF7FFFFA8
:1004C400002904D14268054B1340436070478022E1
:1004D4004368920413434360F8E7C046FFFFFFFDFF
:1004E400002904D14268054B1340436070478022C1
:1004F4004368520413434360F8E7C046FFFFFFFE1E
:100504004268034B09041340194341607047C046D5
:10051400FFFF00FF002905D080224368D200134367
:10052400436070474268024B13404360F9E7C0469A
:10053400FFFBFFFF002904D14268054B13404360D1
:10054400704780224368920113434360F8E7C04632
:10055400FFDFFFFF002904D14268054B13404360CD
:10056400704780224368D20113434360F8E7C046D2
:10057400FFBFFFFF002904D14268054B13404360CD
:10058400704780224368520113434360F8E7C04632
:10059400FFEFFFFF002905D18022436812021343B5
:1005A400436070474268024B13404360F9E7C0461A
:1005B400FF7FFFFFFE2380691B041840000C704777
:1005C4008069C003C00F80027047C04630B54468DC
:1005D400054D89052C40039D890D2C4323430B4372
:1005E40012041343436030BD009800FC002904D179
:1005F4000268054B13400360704780220368D203EE
:1006040013430360F8E7C046FFFFBFFF002904D18E
:100614004269054B134043617047802243691202CB
:1006240013434361F8E7C046FF7FFFFF4369002996
:1006340003D15B005B0843617047802212061343B9
:100644004361F9E7002904D14269054B1340436132
:10065400704780224369520113434361F8E7C0465F
:10066400FFEFFFFF436909051B0B1B03090D19432A
:10067400416170474269044B09041340034A114025
:10068400194341617047C046FFFF00F00000FF0FAF
:10069400002904D10268054B13400360704780228F
:1006A4000368120413430360F8E7C046FFFF7FFFAB
:1006B400002904D10268054B13400360704780226F
:1006C4000368D20413430360F8E7C046FFFFFFFB4F
:1006D400006AC0B27047C046002382B00193019003
:1006E400019BC9180191019B186802B07047C0466C
:1006F40081627047406AC0B27047C0460368002AEE
:1007040002D18B430360704719430160FBE7C04685
:1007140080690840411E8841C0B27047C16170477A
:10072400FC239B0119420AD080220368134082698A
:1007340000200A4202D0581E8341D8B27047C02319
:100744000B4203D0402203681340F0E703680B40D8
:10075400EDE7C046C16170470121114B1A680A4395
:100764001A6058680F4A02405A6018680E4A0240DC
:100774001A6018680D4A02401A6058680C4A024010
:100784000F205A60DA6A8243DA62186B094A02401F
:100794001A635A6B8A435A6300229A607047C046B0
:1007A400001002400CB8FFF8FFFFF6FEFFFFFBFF4E
:1007B400FFFFC0FFACFEFFFF0022024B1A7018704F
:1007C4007047C04602100240F821034AC000136873
:1007D4008B4318431060704700100240064A0028FB
:1007E40004D1012113688B431360704701231168FE
:1007F4000B431360F9E7C04600100240F821034A96
:10080400C000536B8B431843506370470010024081
:10081400064A002804D10121536B8B43536370476C
:100824000123516B0B435363F9E7C04600100240A8
:10083400064A002804D10423516B0B4353637047C9
:100844000421536B8B435363F9E7C0460010024005
:100854000121064B1A6A8A4304211A621A6A8A43DE
:100864001A621A6A104318627047C04600100240A8
:100874001821044B1A6A8A431A621A6A10431862CE
:100884007047C04600100240064A002804D10121E6
:10089400536A8B43536270470123516A0B4353627B
:1008A400F9E7C04600100240054B10B5054A5C68E4
:1008B40022405A605A6811430843586010BDC0462C
:1008C40000100240FFFFC2FF064A002804D111684D
:1008D400054B0B40136070478021136849040B4398
:1008E4001360F8E700100240FFFFFFFE0F21034AE8
:1008F400D36A8B431843D0627047C046001002404D
:10090400064A002804D11168054B0B401360704758
:100914008021136809030B431360F8E700100240B9
:10092400FFFFF7FF014B18707047C04607100240E5
:100934000321034A53688B43184350607047C046F1
:10094400001002400C20024B5B6818407047C04600
:1009540000100240F021034A53688B43184350604F
:100964007047C04600100240034A044B51680B40D4
:10097400184350607047C04600100240FFF8FFFF64
:10098400094B0A4A59680A405A6059680204120C11
:100994000A435A60196B064A000C0A401A631A6B20
:1009A400104318637047C04600100240FFBFFFFFAA
:1009B400FFFEFFFF4021044B1A6B8A431A631A6B34
:1009C400104318637047C046001002401021044BC6
:1009D4001A6B8A431A631A6B104318637047C04634
:1009E400001002400321044B1A6B8A431A631A6BEA
:1009F400104318637047C046001002400C213B4A64
:100A040038B55368041C0B40042B01D0082B51D07B
:100A1400374820603549374D4B681B061B0FEA5C8D
:100A2400031CD3401A1C63604B685B055B0FEB5CD3
:100A3400DA40A2600B6BDB0521D42F4BE3602B4B18
:100A44001B6B5B0624D42D4B2361284B1B6BDB06ED
:100A540025D4274B2549636103230D6B2B4224D0F6
:100A64000A6B1A40012A3AD00A6B1A40022A38D07B
:100A74000A6B1340032B01D11D4BA36138BD4B6896
:100A84005B0414D45308E360184B1B6B5B06DAD584
:100A940080231B022361154B1B6BDB06D9D5032373
:100AA400124960610D6B2B42DAD1A261E6E793082B
:100AB400E360C4E7506853688002000F851CDB03C1
:100AC40003D40F4868432060A4E70F21D36A084881
:100AD4001940013100F0E8F8684320609AE7A0610A
:100AE400CCE780231B02A361C8E7C0460010024084
:100AF40000127A0000000020809FD50012800000C0
:100B040000093D00024A136A184310627047C04648
:100B140000100240064A002804D1116A054B0B401C
:100B2400136270478021136A09020B431362F8E7CA
:100B340000100240FF7FFFFF064A002804D1116A1B
:100B4400054B0B40136270478021136A49020B4323
:100B54001362F8E700100240FFFFFEFF044A5369E6
:100B6400002902D183435361704718435061FBE766
:100B740000100240044A9369002902D1834393611F
:100B8400704718439061FBE700100240044AD369A0
:100B9400002902D18343D36170471843D061FBE736
:100BA40000100240044A936A002902D183439362ED
:100BB400704718439062FBE700100240044AD36870
:100BC400002902D18343D36070471843D060FBE708
:100BD40000100240044A1369002902D183431361BF
:100BE400704718431061FBE700100240044A137871
:100BF400002902D183431370704718431070FBE738
:100C04000910024043090BD10C4B1B681F221040F2
:100C140001228240101C1840431E9841C0B2704704
:100C2400012B04D0022B05D0044B5B6BEEE7034B86
:100C34001B6AEBE7014B5B6AE8E7C0460010024021
:100C440010B50023A02482B00193E40001E0002841
:100C540008D11120FFF7D6FF019B01330193019BBB
:100C6400A342F4D11120FFF7CDFF431E9841C0B237
:100C740002B010BD8021034A4904536A0B435362F6
:100C84007047C04600100240034B9B681840431E47
:100C94009841C0B27047C04600100240014B187022
:100CA4007047C0460A100240002934D001230022B4
:100CB40010B488422CD301242407A14204D28142D7
:100CC40002D209011B01F8E7E400A14204D28142E7
:100CD40002D249005B00F8E7884201D3401A1A4364
:100CE4004C08A04202D3001B5C0822438C08A0429B
:100CF40002D3001B9C082243CC08A04202D3001B51
:100D0400DC082243002803D01B0901D00909E3E7CA
:100D1400101C10BC7047002801D00020C04307B449
:100D2400024802A14018029003BDC0461900000009
:100D34000029F0D003B5FFF7B9FF0EBC4243891A6E
:100D44001847C0467047C04670B50D4E0D4D00247F
:100D5400AD1BAD1005D0A300F35801349847A5424C
:100D6400F9D100F0A3F9084E084D0024AD1BAD10D5
:100D740005D0A300F35801349847A542F9D170BDBA
:100D8400000000000000000000000000000000005F
:100D9400802108B5024889000122FFF77DFA08BDC9
:100DA40000080048024A1368013313607047C046C4
:100DB4001C000020802030B5C0028BB00121FFF759
:100DC400CDFE80201A4C01218003FFF7DFFE1020A6
:100DD400FFF7FCFD201C06210122FFF765FA201C09
:100DE40007210122FFF760FA01A90A1C114B21CB4C
:100DF40021C2201CFFF7B6F9201C0621FFF722FAB6
:100E0400201C0721FFF71EFA0B4B0C4C0393002305
:100E1400201C03A90493059306930793089309934D
:100E2400FFF770FA201C0121FFF7AAFA0BB030BDBE
:100E340000040048A81000080D0A312000540040A6
:100E440037B5051C0C1C80211E480902FFF760FC05
:100E54000128F8D080239B0100938023194878212E
:100E640001225B04FFF7B2FB16480221FFF750FC96
:100E74000028F9D01348291CFFF73AFC11488021B7
:100E8400FFF746FC0028F9D00023009380230D4887
:100E9400782101229B04FFF799FB0A480221FFF7FE
:100EA40037FC0028F9D00748211CFFF721FC05482E
:100EB4002021FFF72DFC0028F9D002482021FFF75C
:100EC4002DFC37BD0054004037B500F065F8802094
:100ED40001218002FFF742FE90200024C00525492D
:100EE400FFF740F9244B30211C60244B1868FFF7AE
:100EF400DBFE234B98420DD8224A01385060C020B3
:100F0400214900060B6A1B021B0A03430B620723D9
:100F14009460136090208021C005C900FFF7B8F9E0
:100F24001A4D1B4C2560FFF745FFC023DB012560EC
:100F34000093802300225B0416487821FFF746FBC8
:100F440014487821FFF7A4FA12480021FFF7E2FAC7
:100F54008020AE21FFF774FF80208D21FFF770FF02
:100F640080201421FFF76CFF8020AF21FFF768FF7A
:100F7400FEE7C046100000201C00002018000020DE
:100F8400FFFFFF0010E000E000ED00E000E1F505E8
:100F9400200000200054004013B501200F24254BED
:100FA4001A6802431A605968234A0A405A60196849
:100FB400224A0A401A601968214A0A401A6059688C
:100FC400204A11405960D96AA143D9621C6B1E4959
:100FD40021401963596B81435963002111209960A1
:100FE400009101911949086059685960596859601C
:100FF40059680A40A0215A605A6889030A4380212B
:101004005A601A6849040A4380211A6089041868DE
:10101400084A0842FBD003205168814302205160F2
:101024005168014351600C215A680A40082AFBD1D7
:1010340013BDC046001002400CB8FFF8FFFFF6FED7
:10104400FFFFFBFFFFFFC0FFACFEFFFF00200240DD
:101054000D488546002103E00C4B5B584350043196
:101064000B480C4B42189A42F6D30B4A02E0002379
:1010740013600432094B9A42F9D3FFF78DFFFFF74F
:1010840063FEFFF721FFFEE700100020C8100008F0
:10109400000000201C0000201C0000202400002070
:1010A400FEE70000C000000002030101F8B5C046DD
:1010B400F8BC08BC9E467047F8B5C046F8BC08BCEE
:0410C4009E4670478D
:1010C80000000000010203040102030406070809E6
:0C10D8000007000001030000006CDC02B7
:04000005080010558A
:00000001FF
