:020000040800F2
:1000000000100020CD2F00081D3000081D30000812
:1000100000000000000000000000000000000000E0
:100020000000000000000000000000001D3000087B
:1000300000000000000000001D300008112B000827
:100040001D3000081D3000081D3000081D3000085C
:100050001D3000081D3000081D3000081D3000084C
:100060001D3000081D3000081D3000081D3000083C
:100070001D3000081D3000081D3000081D3000082C
:100080001D3000081D300008000000001D30000871
:100090001D3000081D3000081D3000081D3000080C
:1000A0001D3000081D3000081D3000081D300008FC
:1000B000FD2A0008000000001D30000800000000BC
:0400C0005FF808F1EC
:1000C40008B59023DB05984217D0224B98421FD0E5
:1000D400214B984227D0214B98422FD0204B984255
:1000E40000D008BD80200121C00300F05BFD80200A
:1000F4000021C00300F056FDF3E7802001218002B7
:1001040000F050FD80200021800200F04BFDE8E764
:1001140080200121C00200F045FD80200021C002A2
:1001240000F040FDDDE780200121000300F03AFDEE
:1001340080200021000300F035FDD2E7802001215A
:10014400400300F02FFD80200021400300F02AFD31
:10015400C7E7C0460004004800080048000C0048F7
:1001640000140048F0B544465F4656464D46F0B488
:1001740003248C4683B00968002200230127A0468B
:1001840003E001330232102B27D03C1C0D1C9C4091
:100194002540A542F5D164462479A346013C012CAF
:1001A40022D944469440E44301940568019C0133F8
:1001B4002C4004605C46944005682C4345469540B9
:1001C4000460C468AC43C4606446E479C568944080
:1001D4002C43C4600232102BD7D103B03CBC9046F0
:1001E4009946A246AB46F0BD8468A1464446944075
:1001F4004E46E4432640866086680194B2466646CD
:1002040076799640B14656464C46264386608488A5
:10021400261CAE4386808488A1466446A5794C4654
:100224009D402543ADB28580BFE7C046044B022202
:1002340003600023427103718371C3717047C04628
:10024400FFFF0000802382B05B020193019B0B43FC
:100254000193019BC361C161019BC361C3690193A4
:10026400C369019302B07047008A0840411E884167
:10027400C0B27047008A80B27047C046808A084086
:10028400411E8841C0B27047808A80B27047C04620
:100294008161704701857047002A01D1018570474B
:1002A4008161FCE781827047072310B50F240B405E
:1002B4009B009A409C40131CC90889004018016A9D
:1002C400A1430162016A0B43036210BD08B50C4BE4
:1002D40098420AD080200121C00300F07BFC8020DA
:1002E4000021C00300F076FC08BD802001218003BA
:1002F40000F070FC80200021800300F06BFCF3E729
:100304000054004010B501240368A343036002684D
:10031400124B13408A68120213434A681343036062
:100324000A680F4B1340036103688A691C43002366
:1003340004608360C3600B69134380228360836815
:100344001202134383600368CA681343036042685C
:10035400044B13404A691343436010BDFFE0CF00D0
:10036400FFFFFFF0FF7FFF078022002312020360DC
:1003740043608360C3600361426183617047C04628
:10038400002904D1012203689343036070470123C9
:10039400026813430360F9E7002904D10268054B9E
:1003A4001340036070478022036892011343036083
:1003B400F8E7C046FFDFFFFF0368002A02D18B4342
:1003C4000360704719430160FBE7C046002905D16B
:1003D4008022036892021343036070470268024B51
:1003E40013400360F9E7C046FFFFFDFF002904D175
:1003F4000268054B13400360704780220368D202F1
:1004040013430360F8E7C046FFFFFBFF002904D154
:10041400C268054B1340C36070478022C368120250
:100424001343C360F8E7C046FF7FFFFF10B5074BD7
:100434000C1CC16812020B40FE212140E024E400A0
:10044400224011431943C16010BDC04601F8FFFFAB
:10045400002904D10268054B1340036070478022D1
:100464000368120313430360F8E7C046FFFFF7FF76
:10047400002904D10268054B1340036070478022B1
:100484000368520213430360F8E7C046FFFFFEFF10
:10049400436889059B0A9B02890D19434160704793
:1004A400002904D14268054B134043607047802201
:1004B4004368120113434360F8E7C046FFF7FFFFA8
:1004C400002904D14268054B1340436070478022E1
:1004D4004368920413434360F8E7C046FFFFFFFDFF
:1004E400002904D14268054B1340436070478022C1
:1004F4004368520413434360F8E7C046FFFFFFFE1E
:100504004268034B09041340194341607047C046D5
:10051400FFFF00FF002905D080224368D200134367
:10052400436070474268024B13404360F9E7C0469A
:10053400FFFBFFFF002904D14268054B13404360D1
:10054400704780224368920113434360F8E7C04632
:10055400FFDFFFFF002904D14268054B13404360CD
:10056400704780224368D20113434360F8E7C046D2
:10057400FFBFFFFF002904D14268054B13404360CD
:10058400704780224368520113434360F8E7C04632
:10059400FFEFFFFF002905D18022436812021343B5
:1005A400436070474268024B13404360F9E7C0461A
:1005B400FF7FFFFFFE2380691B041840000C704777
:1005C4008069C003C00F80027047C04630B54468DC
:1005D400054D89052C40039D890D2C4323430B4372
:1005E40012041343436030BD009800FC002904D179
:1005F4000268054B13400360704780220368D203EE
:1006040013430360F8E7C046FFFFBFFF002904D18E
:100614004269054B134043617047802243691202CB
:1006240013434361F8E7C046FF7FFFFF4369002996
:1006340003D15B005B0843617047802212061343B9
:100644004361F9E7002904D14269054B1340436132
:10065400704780224369520113434361F8E7C0465F
:10066400FFEFFFFF436909051B0B1B03090D19432A
:10067400416170474269044B09041340034A114025
:10068400194341617047C046FFFF00F00000FF0FAF
:10069400002904D10268054B13400360704780228F
:1006A4000368120413430360F8E7C046FFFF7FFFAB
:1006B400002904D10268054B13400360704780226F
:1006C4000368D20413430360F8E7C046FFFFFFFB4F
:1006D400006AC0B27047C046002382B00193019003
:1006E400019BC9180191019B186802B07047C0466C
:1006F40081627047406AC0B27047C0460368002AEE
:1007040002D18B430360704719430160FBE7C04685
:1007140080690840411E8841C0B27047C16170477A
:10072400FC239B0119420AD080220368134082698A
:1007340000200A4202D0581E8341D8B27047C02319
:100744000B4203D0402203681340F0E703680B40D8
:10075400EDE7C046C16170470121114B1A680A4395
:100764001A6058680F4A02405A6018680E4A0240DC
:100774001A6018680D4A02401A6058680C4A024010
:100784000F205A60DA6A8243DA62186B094A02401F
:100794001A635A6B8A435A6300229A607047C046B0
:1007A400001002400CB8FFF8FFFFF6FEFFFFFBFF4E
:1007B400FFFFC0FFACFEFFFF0022024B1A7018704F
:1007C4007047C04602100240F821034AC000136873
:1007D4008B4318431060704700100240064A0028FB
:1007E40004D1012113688B431360704701231168FE
:1007F4000B431360F9E7C04600100240F821034A96
:10080400C000536B8B431843506370470010024081
:10081400064A002804D10121536B8B43536370476C
:100824000123516B0B435363F9E7C04600100240A8
:10083400064A002804D10423516B0B4353637047C9
:100844000421536B8B435363F9E7C0460010024005
:100854000121064B1A6A8A4304211A621A6A8A43DE
:100864001A621A6A104318627047C04600100240A8
:100874001821044B1A6A8A431A621A6A10431862CE
:100884007047C04600100240064A002804D10121E6
:10089400536A8B43536270470123516A0B4353627B
:1008A400F9E7C04600100240054B10B5054A5C68E4
:1008B40022405A605A6811430843586010BDC0462C
:1008C40000100240FFFFC2FF064A002804D111684D
:1008D400054B0B40136070478021136849040B4398
:1008E4001360F8E700100240FFFFFFFE0F21034AE8
:1008F400D36A8B431843D0627047C046001002404D
:10090400064A002804D11168054B0B401360704758
:100914008021136809030B431360F8E700100240B9
:10092400FFFFF7FF014B18707047C04607100240E5
:100934000321034A53688B43184350607047C046F1
:10094400001002400C20024B5B6818407047C04600
:1009540000100240F021034A53688B43184350604F
:100964007047C04600100240034A044B51680B40D4
:10097400184350607047C04600100240FFF8FFFF64
:10098400094B0A4A59680A405A6059680204120C11
:100994000A435A60196B064A000C0A401A631A6B20
:1009A400104318637047C04600100240FFBFFFFFAA
:1009B400FFFEFFFF4021044B1A6B8A431A631A6B34
:1009C400104318637047C046001002401021044BC6
:1009D4001A6B8A431A631A6B104318637047C04634
:1009E400001002400321044B1A6B8A431A631A6BEA
:1009F400104318637047C046001002400C213B4A64
:100A040038B55368041C0B40042B01D0082B51D07B
:100A1400374820603549374D4B681B061B0FEA5C8D
:100A2400031CD3401A1C63604B685B055B0FEB5CD3
:100A3400DA40A2600B6BDB0521D42F4BE3602B4B18
:100A44001B6B5B0624D42D4B2361284B1B6BDB06ED
:100A540025D4274B2549636103230D6B2B4224D0F6
:100A64000A6B1A40012A3AD00A6B1A40022A38D07B
:100A74000A6B1340032B01D11D4BA36138BD4B6896
:100A84005B0414D45308E360184B1B6B5B06DAD584
:100A940080231B022361154B1B6BDB06D9D5032373
:100AA400124960610D6B2B42DAD1A261E6E793082B
:100AB400E360C4E7506853688002000F851CDB03C1
:100AC40003D40F4868432060A4E70F21D36A084881
:100AD4001940013101F09CFF684320609AE7A0614E
:100AE400CCE780231B02A361C8E7C0460010024084
:100AF40000127A0000000020809FD50012800000C0
:100B040000093D00024A136A184310627047C04648
:100B140000100240064A002804D1116A054B0B401C
:100B2400136270478021136A09020B431362F8E7CA
:100B340000100240FF7FFFFF064A002804D1116A1B
:100B4400054B0B40136270478021136A49020B4323
:100B54001362F8E700100240FFFFFEFF044A5369E6
:100B6400002902D183435361704718435061FBE766
:100B740000100240044A9369002902D1834393611F
:100B8400704718439061FBE700100240044AD369A0
:100B9400002902D18343D36170471843D061FBE736
:100BA40000100240044A936A002902D183439362ED
:100BB400704718439062FBE700100240044AD36870
:100BC400002902D18343D36070471843D060FBE708
:100BD40000100240044A1369002902D183431361BF
:100BE400704718431061FBE700100240044A137871
:100BF400002902D183431370704718431070FBE738
:100C04000910024043090BD10C4B1B681F221040F2
:100C140001228240101C1840431E9841C0B2704704
:100C2400012B04D0022B05D0044B5B6BEEE7034B86
:100C34001B6AEBE7014B5B6AE8E7C0460010024021
:100C440010B50023A02482B00193E40001E0002841
:100C540008D11120FFF7D6FF019B01330193019BBB
:100C6400A342F4D11120FFF7CDFF431E9841C0B237
:100C740002B010BD8021034A4904536A0B435362F6
:100C84007047C04600100240034B9B681840431E47
:100C94009841C0B27047C04600100240014B187022
:100CA4007047C0460A100240F0B585B0171C0A9A76
:100CB400061C141C0391D5180A9BE11A039BC90056
:100CC4005918C9B2AC4208D02378301C00933A1C9E
:100CD400002300F09CFD0134EEE705B0F0BDF0B553
:100CE4001D1C141C85B00AAB1B78061C0393039AC5
:100CF400EB000092DBB2221C0F1C00F011F900285B
:100D040014D0039BE318DBB20393039B9C420DD0E6
:100D14000B9B221C0093301C2B1C391CFFF7C4FFB7
:100D24000B9B01345B190B93E4B2EEE705B0F0BD05
:100D3400F0B585B0171C0A9A061C141C0391D5182B
:100D44000A9BE11A039BC9005918C9B2AC4208D0E6
:100D54002378301C00933A1C002300F058FD013422
:100D6400EEE705B0F0BDF0B51D1C141C85B00AAB50
:100D74001B78061C0393039AEB000092DBB2221C3F
:100D84000F1C00F0CDF8002814D0039BE318DBB24D
:100D94000393039B9C420DD00B9B221C0093301C9D
:100DA4002B1C391CFFF7C4FF0B9B01345B190B93FD
:100DB400E4B2EEE705B0F0BDF0B51D1C8BB010AB8E
:100DC4001F782B1C009703900E1C141C00F0A8F82D
:100DD400002849D0EB1DDBB2DB08E719079307367F
:100DE400FBB20893F3B20493049AEB080593DB0077
:100DF400D318073BDBB20993089B9C4234D02E1CCA
:100E0400119F119BF91A049BC9005918C9B2072EE6
:100E14000AD93B7803980093221C0223083E00F071
:100E2400F6FC0137F6B2ECE7059A119B9B180722F2
:100E34002A40069210D000261F78099B9919C9B23E
:100E4400FB0703D50398221C00F0D9FC0136069A4F
:100E5400F3B27F089A42F0D1079A119B9446013469
:100E640063441193E4B2C7E70BB0F0BDF0B51D1CA9
:100E74008BB010AB1F782B1C009703900E1C141C16
:100E840000F04EF8002849D0EB1DDBB2DB08E7196F
:100E940007930736FBB20893F3B20493049AEB0862
:100EA4000593DB00D318073BDBB20993089B9C42F4
:100EB40034D02E1C119F119BF91A049BC900591898
:100EC400C9B2072E0AD93B7803980093221C022347
:100ED400083E00F09CFC0137F6B2ECE7059A119B42
:100EE4009B1807222A40069210D000261F78099BDF
:100EF4009919C9B2FB0703D50398221C00F07FFCA3
:100F04000136069AF3B27F089A42F0D1079A119BF0
:100F14009446013463441193E4B2C7E70BB0F0BDC7
:100F240070B5051C04A80478281C493006780230E2
:100F3400013C00781419E4B2904205D3B44208D2BB
:100F44000020A24219D904E00020B44215D3A242E1
:100F540013D92A1C4A35013B2878CB184832DBB216
:100F64001278884203D30120934206D202E0002083
:100F7400934202D38B429B41584270BDF7B5051C86
:100F8400101C0A380C1C161C01930B283BD801F0CA
:100F940035FD063A3A3A3A3A2F333A3A3A10281C8F
:100FA400022200F04AFE281C211C1A4A00F07CFE92
:100FB40029E0184A281C26324F6800F075FEB02339
:100FC4003A79211C1A43281C00F05EFE281C211CBF
:100FD400012200F053FE381C291C221C00F00FFFD4
:100FE400002816D0281C211C002200F033FE0AE041
:100FF400084A281C2E3202E0281C064A373200F028
:1010040053FE012005E0281C211C321C019B00F02A
:10101400D5FDFEBD28300008F7B5051C101C0A38A4
:101024000C1C161C01930B283CD801F0E7FC063B72
:101034003B3B3B3B30343B3B3B11281C022200F042
:10104400FCFD1C4A281C211C423200F02DFE29E024
:10105400184A281C26324F6800F026FEB0233A793D
:10106400211C1A43281C00F00FFE281C211C0122FD
:1010740000F004FE381C291C221C00F0C0FE0028CD
:1010840016D0281C211C002200F0E4FD0AE0094AC5
:10109400281C2E3202E0281C064A373200F004FED7
:1010A400012005E0281C211C321C019B00F086FD58
:1010B400FEBDC04628300008F7B5051C101C0A38D0
:1010C4000C1C161C01930B283CD801F097FC063B22
:1010D4003B3B3B3B30343B3B3B11281C022200F0A2
:1010E400ACFD1C4A281C211C423200F0DDFD29E025
:1010F400184A281C68324F6800F0D6FDB0233A79AC
:10110400211C1A43281C00F0BFFD281C211C0122AD
:1011140000F0B4FD381C291C221C00F070FE0028CD
:1011240016D0281C211C002200F094FD0AE0094A74
:10113400281C2E3202E0281C064A373200F0B4FD87
:10114400012005E0281C211C321C019B00F036FD07
:10115400FEBDC04628300008F7B5051C101C0A382F
:101164000C1C171C01930B2861D801F047FC066086
:1011740060606060555960606011281C022200F0B4
:101184005CFD2E4A281C211C423200F08DFD4EE0ED
:101194002A4B281C26331A1C4E68009300F084FD49
:1011A400502332795B4252001A43211CD2B2281CCC
:1011B40000F06AFD281C211C012200F05FFDB368C9
:1011C4007279211C281C00F065FD281C211C0022BA
:1011D40000F040FD211C009A281C00F065FD5023FE
:1011E40032795B42520001321A43211CD2B2281CCC
:1011F40000F04AFD281C211C012200F03FFD7279F9
:10120400B368211C9B18281C00F044FD281C211CD9
:10121400002200F01FFD0AE0084A281C2E3202E0DA
:10122400281C064A373200F03FFD012005E0281C47
:10123400211C3A1C019B00F00AFCFEBD283000086A
:10124400F7B5051C101C0A380C1C171C01930B283D
:1012540061D801F0D3FB066060606060555960603E
:101264006011281C022200F0E8FC2E4A281C211CD4
:10127400423200F019FD4EE02A4B281C68331A1C38
:101284004E68009300F010FD502332795B42520007
:101294001A43211CD2B2281C00F0F6FC281C211C85
:1012A400012200F0EBFCB3687279211C281C00F0C9
:1012B400F1FC281C211C002200F0CCFC211C009A0B
:1012C400281C00F0F1FC502332795B4252000132B9
:1012D4001A43211CD2B2281C00F0D6FC281C211C65
:1012E400012200F0CBFC7279B368211C9B18281CE6
:1012F40000F0D0FC281C211C002200F0ABFC0AE00A
:10130400084A281C2E3202E0281C064A373200F014
:10131400CBFC012005E0281C211C3A1C019B00F099
:1013240096FBFEBD28300008012238B50023027464
:1013340022228360C360437482748361021C031C91
:10134400041CFF2134334232197001339342FBD120
:10135400231C012531331D70201C01F0B4F9231C1A
:10136400221C28331D70002340212932137053702E
:10137400D370024B9170636438BDC04639190008BC
:1013840010B50C68A04710BD38B5041C0D1C636C67
:1013940002209847291C0A22201C0023FFF7F0FF93
:1013A400051C636C03209847636C00209847281C35
:1013B40038BD38B5041C0D1C636C02209847636C5F
:1013C40001209847291C201C14220023FFF7D8FF72
:1013D400231C291C17224833201CFFF7D1FF636C00
:1013E4000020984738BD70B5041C0E1C0220636CA5
:1013F40098470120636C9847201C311C1522002358
:10140400FFF7BEFF051E06D0231C201C311C17222B
:101414004833FFF7B5FF636C00209847281C70BD64
:1014240007B56B4607331A700F22FFF7A9FF0EBDED
:1014340010B51C1C031C2D331A705C703222FFF78C
:101444009FFF10BD70B51E1C04AB1D7805AB1C7846
:10145400031C2D331A705E70DD709C703B22FFF705
:101464008FFF70BD70B51E1C04AB1D7805AB1C78D6
:10147400031C2D331A705E70DD709C702D22FFF7F3
:101484007FFF70BD13B56B46DC1D4622231CFFF79E
:1014940077FF207816BD13B56B46DC1D4722231C4D
:1014A400FFF76EFF207816BD08B548220023FFF72A
:1014B40067FF08BD10B5041C6168FFF7E3FF6168AE
:1014C4002070201CFFF7E7FF61686070201CFFF7A5
:1014D400EBFF231CE07461684833201C1722FFF7DC
:1014E4004FFF10BD10B5041C6168FFF74DFF0028C5
:1014F40003D0201CFFF7DEFF012010BD38B50D1C02
:10150400041CFFF711FF6560201CFFF7EBFF38BDDB
:1015140070B5041C0D1C161CFFF706FF231C221CAF
:10152400FE2134334232197001339342FBD165609A
:10153400201CAE60FFF7D6FF70BDF0B5041C85B06B
:101544001D1C0AAB1B780F1C01930BAB1B78161CDC
:1015540002930CAB1B780393FFF7E6FE231C6A4649
:10156400383312796760023B9E70DD701A706A46E8
:10157400127A013B1A706A46127B013B1A70201CD6
:10158400FFF7B0FF05B0F0BDF7B5041C1D1C08AB98
:101594001B780F1C161C0193FFF7C6FE231C6A461A
:1015A4003633676012791E70013B1D70013B1A705F
:1015B400201CFFF797FFFEBD70B5041C0E1C151C04
:1015C400FFF7B2FE231C3F336660201C1D70FFF73B
:1015D40089FF70BDF0B5041C85B01D1C0AAB1B78D7
:1015E4000F1C01930BAB1B78161C02930CAB1B78DE
:1015F4000393FFF799FE231C6A4638336760023B66
:101604009E7012791D70013B1A706A46127A201C72
:101614001A736A46127B013B1A70FFF763FF05B029
:10162400F0BDF0B58DB0009312AB1B78161C01937E
:1016340013AB1B780CAA029314AB1B78041C039302
:1016440015AB1B780F1C049316AB1B78059317ABD3
:101654001B78069318AB1B78079319AB1B78089378
:1016640019239B18DB7F09931D239B18DB7F0A93A7
:101674001CAB1B780B931DAB1D78FFF755FE6A4618
:10168400231C1278393367605A706A4612791E70C7
:101694009A706A46127A013B1A716A46127B2021BB
:1016A4005A716A46127C201C9A716A46127DDA715C
:1016B4006A46127E1A726A46127F023B9A706A4622
:1016C4005218127824211A706A4652181278282166
:1016D4005A706A4652181278013B1A702C216A46D5
:1016E400521812781A73013B1D70FFF7FBFE0DB000
:1016F400F0BDF0B58DB0019312AB1B78161C0293AC
:1017040013AB1B780CAA039314AB1B78041C04932F
:1017140015AB1B780F1C059316AB1B78069317AB00
:101724001B78079318AB1B78089319AB1B780993A4
:1017340019239B18DB7F0A931D239B18DB7F0B93D4
:101744001CAB1D78FFF7F0FD6A46231C1279393370
:1017540067605A706A46127A20219A706A46127B30
:101764001E70DA706A46127C033BDA716A46127D97
:10177400201C1A726A46127E5A726A46127F9A7244
:101784006A465218127824211A706A46521812783E
:10179400013B1A7028216A46521812782C211A73B8
:1017A4006A465218127803331A70043B1D70FFF70F
:1017B40099FE0DB0F0BD08B54168FFF7FAFD08BD0C
:1017C400836910B5041C002B00D098476168201C65
:1017D400FFF709FE10BD08B50A1C4168FFF720FE9B
:1017E40008BD08B5416810220023FFF7C9FD08BDF4
:1017F40008B5416811220023FFF7C2FD08BD10B5EA
:101804000C1C131C4168221CFFF712FE10BD70B59E
:101814001D1C04AB1C78031C0E1C2D3341681E7068
:101824005A70DD709C703B22FFF7AAFD70BD70B545
:101834001D1C04AB1C78031C0E1C2D3341681E7048
:101844005A70DD709C702D22FFF79AFD70BD37B57C
:1018540006AC257801AC21706270A37041683C220B
:10186400231CE570FFF78CFD37BD313001707047E4
:10187400031C313319703230090A01707047920821
:1018840010B5DB0854012343041C313423700723AF
:10189400D20899430A433230027010BD10B5C47C9B
:1018A400282C09D11F24A243A143D20811439B0928
:1018B4001943313001700CE0302C02D1FFF7DFFF07
:1018C40007E0041C31342170011C333032310A70BA
:1018D400037010BD313000787047C37CFF20282B83
:1018E40003D00320022B00D00120704710B5041C44
:1018F400C37C3134302B04D1FF2332302370037086
:1019040002E0FFF7EAFF207010BD002070470023BB
:10191400313003707047C37C6D20282B00D0012028
:101924007047C27C6D23282A00D001233130037014
:101934007047C046704708B541640320884708BD16
:1019440070470021437982685B00D318117001321B
:101954009A42FBD1704708B581604271FFF7F1FFED
:1019640008BD30B585788468521BD2B2072A03D9E2
:101974004079241807200240012090406118C2B227
:101984000878002B01D0104300E09043087030BD6C
:1019940010B583784A7893420AD8C378934207D320
:1019A4000C784379A34203D90B79211CFFF7D9FFA3
:1019B40010BD70B5061C0C1C8D786BB2002B03DABD
:1019C400301C211CFFF7E4FFE078032810D801F055
:1019D40015F80205080C2378013304E06378013319
:1019E40005E02378013B237002E06378013B6370D8
:1019F4006D00EDB2002DE0D170BDF7B50190C8784F
:101A04000C1C8D7803280ED800F0F8FF0205070A95
:101A14000026012709E0012603E00026FF2704E051
:101A2400FF26002701E00026371C6BB2002B03DAE7
:101A34000198211CFFF7ACFF23786D00FB1823707D
:101A44006378EDB2F3186370002DEED1F7BD70B575
:101A54001E1C4D68322A1FD00CD8152A21D0172AF3
:101A640028D0142A2FD1281CFFF76BFF281C00F064
:101A74009DFF28E0462A22D0472A22D03B2A22D1A1
:101A8400281C191C00F0A8F9012400281CD0281CCB
:101A9400311CFFF7B2FF17E0281C191CFFF778FF71
:101AA40011E0281C00F091FF041E0DD0281CFFF744
:101AB40048FF08E0281C191C00F084F903E06B7946
:101AC40000E06B7833700124201C70BD08B5816080
:101AD400427100F037F908BD30B507248568807875
:101AE4006918121A22400124201C9040C2B20878BE
:101AF400002B01D0104300E09043087030BD10B5B6
:101B040083784A7893420AD8C378934207D30C78EF
:101B14004379A34203D90B79211CFFF7DDFF10BDE4
:101B240070B5061C0C1C8D786BB2002B03DA301CCC
:101B3400211CFFF7E4FFE078032810D800F05EFFD3
:101B44000205080C2378013304E06378013305E0CF
:101B54002378013B237002E06378013B63706D00DE
:101B6400EDB2002DE0D170BDF7B50190C8780C1C22
:101B74008D7803280ED800F041FF0205070A0026DD
:101B8400012709E0012603E00026FF2704E0FF26E1
:101B9400002701E00026371C6BB2002B03DA019802
:101BA400211CFFF7ACFF23786D00FB1823706378CA
:101BB400EDB2F3186370002DEED1F7BD70B51E1CA5
:101BC4004D68322A1FD00CD8152A21D0172A28D0C4
:101BD400142A2FD1281C00F0B5F8281C00F0E6FECA
:101BE40028E0462A22D0472A22D03B2A22D1281C88
:101BF400191C00F0F1F8012400281CD0281C311C09
:101C0400FFF7B2FF17E0281C191CFFF778FF11E05B
:101C1400281C00F0DAFE041E0DD0281C00F092F8F7
:101C240008E0281C191C00F0CDF803E06B7900E0F3
:101C34006B7833700124201C70BD10B500238C68B0
:101C44000121A04710BD10B58C6800210A1C0B1C93
:101C5400A04710BD10B500238C680321A04710BD18
:101C6400002210B5131C8C680421A04710BD10B5C8
:101C740001228C6800230421A04710BD10B5002365
:101C84008C680221A04710BD10B500238C68052183
:101C9400A04710BD10B58C680621A04710BD10B533
:101CA4008C680721A04710BDF8B5051C0E1C171C35
:101CB40000233C78002B09D1FF2C3CD0281C311C7C
:101CC400221CFFF7E1FF00282ED137E0FF2CF5D0CE
:101CD400FE2C35D0EF2C27D8DF2C06D90F22281C58
:101CE4002240311CFFF7CAFF1EE0CF2C06D90F2279
:101CF400281C2240311CFFF7ADFF15E0BF2C15D97D
:101D0400311C281CFFF7ACFF0F22144024010234BD
:101D1400E4B2A4B2201C01F03FF8281C311CFFF7E8
:101D2400A6FF201C01F038F8002305E063B2A0B23E
:101D3400002BF7DAF8E701230137BAE7002000E0C7
:101D44000120F8BD0021836842799A181970013383
:101D54009342FBD1704730B50024251CC3788078AA
:101D64008B4265418A429B4159420B1C8242644129
:101D7400EDB22B431C40201C2940084330BD43795D
:101D84000120994203D9002093424041C0B27047D8
:101D940038B50D1C4978EA78041C8A18013AD2B285
:101DA400FFF7D9FF00280CD029786279AB7801209D
:101DB400914206D90020CB18013BDBB29A42404144
:101DC400C0B238BD00230B7083784B704379013B5C
:101DD4008B70C378CB70704708B5CB784A78012BE9
:101DE40006D0111C0839C9B2032B05D0111C03E01D
:101DF400131C0833111CDAB2FFF7ADFF08BD08B598
:101E0400031C081C111C5A799B68FFF743FF08BD8B
:101E1400411808784B780002C01880B2704700203F
:101E240070472A3000787047293000780130C0B2FA
:101E34007047031C29302A331A7803789B1A5BB243
:101E4400D80FC0184310D018C0B27047007870473C
:101E540000787047704708B5FFF7FCFF002803D0EF
:101E6400022801D0032000E0062008BD4079704715
:101E740008B50621FFF7CCFF08BD08B50821FFF718
:101E8400C7FF08BD807A7047C07A7047007B40B2B4
:101E94007047407B40B27047807B40B27047C07B44
:101EA40040B27047007C40B27047F8B50578041C16
:101EB400281CFFF7CFFF071C281CFFF7CCFF061CCC
:101EC400201CFFF7DFFF051C201CFFF7DDFFFF21AF
:101ED400012F00D10F21231C11331A78FF2A01D1BD
:101EE400013303E09A780A4092199B18854202D084
:101EF4000135EDB2F1E7181BF8BD836858787047D7
:101F040083689878704783680320185670478368FD
:101F1400042018567047836858797047F0B586686E
:101F240085B03578041C281C0F1CFFF793FF009024
:101F3400281CFFF790FFFF230293009B0390012BC3
:101F440001D10F230293301CFFF79CFF051C301CAA
:101F5400FFF79AFF0190301CFFF78FFF602F04D921
:101F6400002802D0361861250AE0301CFFF780FFF4
:101F7400402F04D9002802D03618412500E011363C
:101F8400019B9F4207D90026631C2677E677DE77FC
:101F94006677A67728E0019B9D42F4D83378FF2B1F
:101FA40001D1013629E0BD4221D1009A611C002AE9
:101FB40001D0022A09D1E3777378CB77F3782377BA
:101FC400337963777379A3770EE00F22181C1040DE
:101FD4001B090238A077637773781A401B09CA7704
:101FE400E377B3781B092377301C05B0F0BDB378D1
:101FF400029A1340039A9B18F618019B9D42C2D083
:102004000135EDB2CAE7002370B513710B78051CD6
:102014000E1C141C002B04D1137053709370D370D6
:1020240032E07F231370802353700978FFF776FF23
:102034006B7F5B4223716B7FA370AB7FE3700021E6
:10204400AA7F615653B2994200DD227001216B1CB4
:10205400DB7F6156D318DBB25AB2914200DA637067
:10206400013633782279002B07D02B7F281C9A184D
:1020740022713178FFF752FFE1E7EB7F9B18DBB267
:1020840023716A7F9B18237170BD08B5FFF746FF63
:10209400431E9841C0B208BD10B5041CFFF73EFFB3
:1020A400031E00D0237F58B210BDF0B50F1C87B0BB
:1020B400191C041C161CFFF731FF051E3DD0A36834
:1020C4001878FFF7C8FEE37F05900393631CDA7F5B
:1020D400637F0092FF18FBB20493A37F201CF61ABF
:1020E400F3B29E1AF6B202930499321C039BFEF7D4
:1020F40017FF002820D0059BED18039B0733DBB2A4
:10210400DB080393029B9E4216D02F1C7B1B049A70
:10211400DBB2D9005118039AC9B2934208D23B7872
:10212400201C0093321C0023FFF771FB0137EDE7FD
:102134000136AD18F6B2E5E7207F40B207B0F0BD36
:10214400F8B5051C1E1C6B6A0F1C141C9847021959
:10215400391C281C331CD2B2FFF7A7FFF8BDF0B519
:102164000F1C87B0191C041C161CFFF7D7FE051E94
:1021740045D0A3681878FFF76EFEE37F05900393BC
:10218400631CDB7F201C0293A37F0133FF18637F52
:10219400FFB2F618F3B20493039B391C0093049A1C
:1021A400029BFEF7BDFE002828D0059BED18039B7B
:1021B4000733DBB2DB080393029B013BFF18029B4E
:1021C400FFB2FB1ADBB20293029B9F4216D02E1C75
:1021D400731B0499DBB2DA008A180399D2B28B42DA
:1021E40008D23378201C0093391C0123FFF70FFB1E
:1021F4000136EDE7013F6D18FFB2E5E7207F40B2FD
:1022040007B0F0BDF8B5051C1E1C6B6A171C0C1C2E
:102214009847211A3A1C281C331CC9B2FFF79FFFA8
:10222400F8BDF0B50E1C89B0191C051C171CFFF76E
:1022340075FE0390002853D0AB681878FFF70BFEA7
:102244006B1C0690DB7FEC7F04936B7F281CF61AD3
:10225400F3B20593AB7F0133FF18059BFFB2191B43
:10226400049B01310093C9B23A1C231CFEF758FEAB
:10227400002834D0069A039B944663440393049B3A
:102284000734013BFF18049BFFB2FB1AE6B2DBB232
:10229400F6080693069B9F4221D06B461B7B059A4A
:1022A4000493DB00D318DBB2039C0793E3B2079AD1
:1022B400D900511A049AC9B29B1ADBB2B34208D2AC
:1022C4002378281C00933A1C0223FFF7A0FA013458
:1022D400ECE7039B013F9B190393FFB2DAE7287FE6
:1022E40040B209B0F0BDF8B5051C1E1C6B6A0F1C8A
:1022F400141C9847221A391C281C331CD2B2FFF72D
:1023040090FFF8BDF0B50E1C89B0191C051C171CF4
:10231400FFF704FE039000284FD0AB681878FFF74E
:102324009AFD6B1C0690DB7FEC7F04936B7F049A11
:10233400FF1AFBB20593AB7F0094D318F61A059BE2
:10234400F6B21A1B0132D2B2281C311C049BFEF7D0
:10235400E7FD002830D0069A039B94466344039318
:10236400049B0734F318E7B2DBB2FF080693069B1D
:102374009E4221D06B461B7B059A0493DB00D31845
:10238400DBB2039C0793E3B20799DA008A1A049933
:10239400D2B25B1ADBB2BB4208D22378281C00936A
:1023A400311C0323FFF733FA0134ECE7039B0136B6
:1023B400DB190393F6B2DAE7287F40B209B0F0BD27
:1023C400F8B5051C1E1C6B6A171C0C1C98470119D8
:1023D4003A1C281C331CC9B2FFF794FFF8BDF7B5AB
:1023E400071C1E1C7B6A151C0C1C98474519EBB274
:1023F400002501933378002B0BD0211C381C019A43
:10240400FFF753FEC0B204194519E4B2EDB2013628
:10241400F0E7281CFEBDF7B5071C1E1C7B6A0D1CCB
:10242400141C98472D1AEBB2002501933378002B26
:102434000BD0221C381C0199FFF791FEC0B204197D
:102444004519E4B2EDB20136F0E7281CFEBDF7B53C
:10245400071C1E1C7B6A151C0C1C98472D1AEBB21A
:10246400002501933378002B0BD0211C381C019AD2
:10247400FFF7D7FEC0B2241A4519E4B2EDB2013613
:10248400F0E7281CFEBDF7B5071C1E1C7B6A0D1C5B
:10249400141C98474519EBB2002501933378002B9F
:1024A4000BD0221C381C0199FFF72CFFC0B2241A50
:1024B4004519E4B2EDB20136F0E7281CFEBD10B5B3
:1024C400041C0020032B17D8181C00F097FA0207ED
:1024D4000C11201C029BFFF782FF0DE0201C029BC5
:1024E400FFF799FF08E0201C029BFFF7B0FF03E011
:1024F400201C029BFFF7C7FF10BDF7B5071C1E1C6D
:102504007B6A151C0C1C98474519EBB200250193F6
:102514003378002B0BD0211C381C019AFFF7C5FD22
:10252400C0B204194519E4B2EDB20136F0E7281C33
:10253400FEBDF7B5071C1E1C7B6A0D1C141C9847B6
:102544002D1AEBB2002501933378002B0BD0221CFB
:10255400381C0199FFF756FEC0B204194519E4B2BC
:10256400EDB20136F0E7281CFEBDF7B5071C1E1CB2
:102574007B6A151C0C1C98472D1AEBB2002501939D
:102584003378002B0BD0211C381C019AFFF7ABFECB
:10259400C0B2241A4519E4B2EDB20136F0E7281CA2
:1025A400FEBDF7B5071C1E1C7B6A0D1C141C984746
:1025B4004519EBB2002501933378002B0BD0221C74
:1025C400381C0199FFF7FCFEC0B2241A4519E4B285
:1025D400EDB20136F0E7281CFEBDF7B51E1C051C44
:1025E400171C0C1CFFF78FFC241A281CFFF78FFC08
:1025F400089B3A18E4B20093281C331CD2B2211C65
:10260400FFF75DFFFEBDF8B506AB1E78051C171C71
:102614000C1CFFF778FC241A281CFFF778FCE4B2A2
:102624003A18331C281CD2B2211CFFF73EFD0020AF
:10263400F8BD836810B5002B25D0021C011C28327C
:10264400147829310232002C03D15C790C701B7B85
:1026540008E0012C03D1DC7B0C701B7C02E05C7B6A
:102664000C709B7B137000231278CB5652B29B1ACA
:10267400021C2B3212789BB2402A02D0DBB25343A5
:102684009B092C30037010BD08B5031C00222833AD
:102694001A70FFF7CEFF08BD08B5031C01222833CA
:1026A4001A70FFF7C6FF08BD08B5031C02222833C1
:1026B4001A70FFF7BEFF08BD08B5031C2B33197051
:1026C400FFF7B7FF08BD014B43627047231E0008A4
:1026D400014B43627047C046271E0008014B43620A
:1026E4007047C0462D1E0008014B43627047C04628
:1026F400371E0008F7B5051C081C0F1C01929047F3
:10270400061C0020864221D0281C311CFFF706FC41
:102714006C7F6442E4B20137381C019B984700285F
:102724000BD0287F019B2418381C9847061C281CB2
:10273400311CE4B2FFF7F2FBEDE7202E03D0687FF3
:10274400EB7FC01800E0287F2418E0B2FEBD08B576
:10275400014AFFF7CFFF08BD511E000808B5024A21
:10276400FFF7C8FF08BDC046551E000810B509781C
:10277400041CFFF7D3FB1D20205610BD10B50978AB
:10278400041CFFF7CBFB1D20205610BD70B5061CA2
:102794000D1C00242978002907D0301CFFF7BEFB4C
:1027A400337F0135E418E4B2F4E7201C70BD70B542
:1027B400061C0D1C00242978002907D0301CFFF7C3
:1027C400ADFB337F0135E418E4B2F4E7201C70BD9F
:1027D40008B5FFF718FC08BD70477047F7B50C78CB
:1027E400002C04D1089B1C70099B1C701CE0041C69
:1027F4000D1C171C6A461E1CFFF705FC2978201CBB
:10280400FFF78CFB3A78637FD3183B706B46089ACA
:102814001B7913706B4632785B78D21A32706A4631
:1028240012789B1A099A1370F7BDF0B50F7885B02A
:10283400002F04D10A9B1F700B9B1F7026E01D1CE8
:102844008368161C02AA5F790191041CFFF7DBFB65
:1028540002AB5B785BB2BB4201DA02AB5F70019BF7
:10286400201C1978FFF75AFB3278637FD318337032
:1028740002AB1B790A9A137002AB5B782A78D21ADE
:102884002A7002AA12789B1A0B9A137005B0F0BD35
:10289400836810B58B4205D0041C8160FFF7C9FE24
:1028A400014B636210BDC046231E0008F0B50F1C27
:1028B40087B0191C041C161CFFF730FB051E3DD005
:1028C400A3681878FFF7C7FAE37F05900393631CA6
:1028D400DA7F637F0092FF18FBB20493A37F201C6E
:1028E400F61AF3B29E1AF6B202930499321C039BB1
:1028F400FEF716FB002820D0059BED18039B03333D
:10290400DBB29B080393029B9E4216D02F1C7B1BB9
:10291400049ADBB299005118039AC9B2934208D2BF
:102924003B78201C0093321C0023FEF780FF013704
:10293400EDE70136AD18F6B2E5E7207F40B207B007
:10294400F0BDF8B5051C1E1C6B6A0F1C141C9847BF
:102954000219391C281C331CD2B2FFF7A7FFF8BD9B
:10296400F7B51F1C8368061C18780D1C0192FFF72D
:1029740071FA0024022815D1736A301C9847019B10
:10298400C018C3B201933B78002B0BD0291C301C18
:10299400019AFFF78BFFC0B245190419EDB2E4B2F6
:1029A4000137F0E7201CFEBD0120704700220378A8
:1029B4008270013BC3700271704708B50023017037
:1029C40042700371FFF7F2FF08BD30B584780178D7
:1029D40045780C19E4B2031C84700020AC420BD27D
:1029E4001A7901321A71DA785118CAB2AA4201D39B
:1029F4006A1ED2B20120DA7030BD000002B4714602
:102A040049084900095C49008E4402BC7047C0462D
:102A1400002934D00123002210B488422CD301248D
:102A24002407A14204D2814202D209011B01F8E722
:102A3400E400A14204D2814202D249005B00F8E7DB
:102A4400884201D3401A1A434C08A04202D3001B07
:102A54005C0822438C08A04202D3001B9C0822433A
:102A6400CC08A04202D3001BDC082243002803D078
:102A74001B0901D00909E3E7101C10BC70470028AA
:102A840001D00020C04307B4024802A140180290BC
:102A940003BDC046190000000029F0D003B5FFF7BC
:102AA400B9FF0EBC4243891A1847C0467047C04656
:102AB40070B50D4E0D4D0024AD1BAD1005D0A30017
:102AC400F35801349847A542F9D100F0E3FA084ECF
:102AD400084D0024AD1BAD1005D0A300F3580134FC
:102AE4009847A542F9D170BD000000000000000025
:102AF4000000000000000000802108B502488900A1
:102B04000122FDF7C9FB08BD00080048024A13680A
:102B1400013313607047C046E4090020402307B521
:102B2400044A011C0192009303480022FEF744F971
:102B340007BDC04650010020E809002038B500F068
:102B440057F800F0B1F8802001218002FEF706F862
:102B540090201E49C005FDF705FB00211C4B1D4AB2
:102B640019601D4B1B68DB0893420DD8C0241B4A17
:102B7400013B1B485360036A24061B021B0A2343C0
:102B8400036207239160136090208021C005C9006F
:102B9400FDF77EFB134C1449144A201CFEF7B8FCC5
:102BA400201CFEF7A3FE0025201CFEF704FE281CB3
:102BB400FFF7B4FF201CFEF703FE0028F7D16420C2
:102BC400013500F0E9F8EDB2EEE7C0464801002017
:102BD400E4090020FFFFFF006003002010E000E094
:102BE40000ED00E0E809002000010020C12D0008EC
:102BF40013B501200F24254B1A6802431A60596843
:102C0400234A0A405A601968224A0A401A6019681D
:102C1400214A0A401A605968204A11405960D96A09
:102C2400A143D9621C6B1E4921401963596B81432E
:102C3400596300211120996000910191194908609C
:102C4400596859605968596059680A40A0215A6006
:102C54005A6889030A4380215A601A6849040A435E
:102C640080211A6089041868084A0842FBD00320AE
:102C740051688143022051605168014351600C2125
:102C84005A680A40082AFBD113BDC046001002400E
:102C94000CB8FFF8FFFFF6FEFFFFFBFFFFFFC0FFCE
:102CA400ACFEFFFF002002400C2370B5124D134E02
:102CB4006A681340042B01D0082B02D0104B3360F8
:102CC40011E06C686B68A402240F0234DB0301D4A6
:102CD4000C4806E00F23E96A094819400131FFF75F
:102CE40097FE444334606B68074A1B061B0FD35C92
:102CF4003268DA40326070BD001002406003002088
:102D040000127A0000093D00500300200F498A6830
:102D14001202120A131E834203D24B681B021B0ABF
:102D24009B18181A824209D38B681B021B0A834220
:102D34000AD99342F8D907E0934205D88B681B025D
:102D44001B0A8342FAD8F7E77047C04610E000E058
:102D540038B5051C074B5C682402A40AA54204D9B3
:102D6400201C2D1BFFF7D2FFF8E7281CFFF7CEFF2E
:102D740038BDC04610E000E0054B10B50549041C01
:102D84001868FFF745FE6043FFF7E2FF10BDC04639
:102D94006003002040420F0008B5FA239B0058430B
:102DA400FFF7EAFF08BD08B50120FFF7E5FF08BDFE
:102DB40008B50A20FFF7E0FF08BD000037B5481E3C
:102DC400062871D81D1C141CFFF718FE04076E6E2C
:102DD4001117170000F06EF864E0344B002A01D19B
:102DE4001A6001E040221A60FFF7E2FF5CE02F4B1B
:102DF400111C187800F0A4F854E080212C48090232
:102E0400FDF786FC0128F8D080239B0100938023E2
:102E14002748782101225B04FDF7D8FB24480221CE
:102E2400FDF776FC0028F9D0204B21481978FDF7EE
:102E34005FFC1F488021FDF76BFC0028F9D00023BC
:102E440000938023621CD2B2194878219B04FDF7B9
:102E5400BDFB17480221FDF75BFC0028F9D02C19B3
:102E6400A5420BD029781248FDF742FC10480221F4
:102E7400FDF74EFC0028F9D00135F1E78023DB0192
:102E8400009380230A48782100229B04FDF79EFBCF
:102E940007482021FDF73CFC0028F9D004482021F4
:102EA400FDF73CFCFFF77FFF01203EBD680A0020D0
:102EB40000540040802030B5C0028BB00121FDF7E2
:102EC4004DFE80201A4C01218003FDF75FFE102087
:102ED400FDF77CFD201C06210122FDF7E5F9201CED
:102EE40007210122FDF7E0F901A90A1C114B21CBAE
:102EF40021C2201CFDF736F9201C0621FDF7A2F99A
:102F0400201C0721FDF79EF90B4B0C4C0393002367
:102F1400201C03A90493059306930793089309932C
:102F2400FDF7F0F9201C0121FDF72AFA0BB030BDA2
:102F340000040048203000080D0A312000540040ED
:102F440037B5051C0C1C80211E480902FDF7E0FB67
:102F54000128F8D080239B0100938023194878210D
:102F640001225B04FDF732FB16480221FDF7D0FB7A
:102F74000028F9D01348291CFDF7BAFB1148802119
:102F8400FDF7C6FB0028F9D00023009380230D48E9
:102F9400782101229B04FDF719FB0A480221FDF761
:102FA400B7FB0028F9D00748211CFDF7A1FB054811
:102FB4002021FDF7ADFB0028F9D002482021FDF7C0
:102FC400ADFB37BD005400400D488546002103E0A9
:102FD4000C4B5B58435004310B480C4B42189A423B
:102FE400F6D30B4A02E0002313600432094B9A42E1
:102FF400F9D3FFF7FDFDFFF75BFDFFF79FFDFEE74C
:1030040000100020B03000080000002064030020FD
:10301400640300206C0A0020FEE70000C0000000EA
:1030240002030101FFD0FFE0FFC1FFD1AED580A8AC
:103034003FD300408D142000A1C8DA1281CFD9F10A
:10304400DB402EA4A6AFFFD0FFFEFFE0FFD11000AF
:10305400FFFEFFE0FFD1AEFFD0FFFEFFE0FFD1AFE8
:10306400FF32FFD0FFFEFFD0FFE0FFC1FFD1AED59E
:1030740080A83FD300408D142002A1C8DA1281CF6A
:10308400D9F1DB402EA4A6AFFFD0FFFEFFE0FFD1B5
:103094001002FFFEF8B5C046F8BC08BC9E46704757
:0C30A400F8B5C046F8BC08BC9E4670475A
:1030B00000000000010203040102030406070809DE
:1030C0004512000834000020AD2900084512000810
:1030D00034000020AD29000845120008340000200B
:1030E000AD290008104000000080000064030020AB
:1030F000BD1000084C000020AD2900080840000069
:103100000080000064040020BD100008640000205E
:10311000AD2900080840000000800000E404002001
:10312000BD1000087C000020AD2900080840000008
:1031300000800000640500205D110008AC00002044
:10314000AD2900085D110008AC000020AD29000881
:103150005D110008AC000020AD29000810400000FF
:1031600000800000E40500201D100008C4000020BD
:10317000AD2900080840000000800000E40600209F
:103180001D100008DC000020AD29000808400000E8
:1031900000800000640700201D100008F4000020DB
:1031A000AD2900080840000000800000E40700206E
:1031B000810F00080C010020AD2900080840000024
:1031C0000080000064080020810F00082401002016
:1031D000AD2900080840000000800000E40800203D
:1031E000810F00083C010020AD29000808400000C4
:1031F00000800000640900200007000001030000B7
:1032000000000000000000000000000000000000BE
:1032100000000000000000000000000000000000AE
:103220000000FE00000000000080FF010000000020
:1032300000C0FF070000000000E0FF0700000000E2
:1032400000F0FF0F0000000000F8FF1F000000006A
:1032500000F8FF1F0000000000FC1F1E000000001F
:1032600000FCEF1D0000000000FCF73A00001E000B
:1032700000D6FB3C0000E10000BE7B3C00000107E3
:1032800000AF7F3A0000010880CF2B7F00002908A3
:1032900080EFFB7B0080000980E7CF76008010097B
:1032A00000FB7F730080440900F3CFFC0040100551
:1032B00000FF3D9E00408204007EC7870040A804B6
:1032C00000C6F18001208202003C7E0001205002F5
:1032D00000E20700033E450200FE01148221500176
:1032E000003E0024661022010004002024F0270183
:1032F000000400289C0F3C01000400480806B000B0
:10330000000400404801A000000800509000C000E8
:1033100000080050800040000008009000104000AD
:10332000000800A000004000001000A000004000C5
:103330000020002007004000002000201000200096
:10334000004000201F10200000C000E002203000DC
:1033500000800080010010000000016003000800F0
:103360000000030000000C00000006000000060042
:103370000000040000A00100000018000070000020
:1033800000003000002600000000E0008025000062
:1033900000008007E8240000000000FC1F28000057
:1033A000000000A0802A0000000000A0C04E000025
:1033B000000000A0C0400000000000A0004300008A
:1033C000000000A0008E0000000000A200700000BD
:1033D000000080AD00000000000000B1000000000F
:1033E00000000082000000000000008C00000000CF
:1033F0000000007800000000000000400000000015
:103400000000000000000000010203040607080994
:04341000006CDC026E
:0400000508002FCDF3
:00000001FF
